:020000040800F2
:1000000000000220011000087104000873040008B9
:100010007504000877040008790400080000000057
:100020000000000000000000000000007B04000849
:100030007D040008000000007F040008810400081F
:10004000511000085110000851100008511000080C
:1000500051100008511000085110000851100008FC
:1000600051100008511000085110000851100008EC
:1000700051100008511000085110000851100008DC
:1000800051100008511000085110000851100008CC
:1000900051100008511000085110000851100008BC
:1000A00051100008511000085110000851100008AC
:1000B000511000085110000851100008511000089C
:1000C000511000085110000851100008511000088C
:1000D000511000085110000851100008511000087C
:1000E000511000085110000851100008511000086C
:1000F000511000085110000851100008511000085C
:10010000511000085110000851100008511000084B
:10011000511000085110000851100008511000083B
:10012000511000085110000851100008511000082B
:10013000511000085110000851100008511000081B
:10014000511000085110000851100008511000080B
:1001500051100008511000085110000851100008FB
:1001600051100008511000085110000851100008EB
:100170005110000851100008511000080000000044
:080180005110000851100008A5
:1001880053B94AB9002908BF00281CBF4FF0FF31F6
:100198004FF0FF3000F00CB8ADF1080C6DE904CE5B
:1001A80000F080FFDDF804E0DDE9022304B07047C9
:1001B800704700BF10B5054C237833B9044B13B111
:1001C8000448AFF300800123237010BD0C00002009
:1001D800000000006813000808B5034B1BB1034971
:1001E8000348AFF3008008BD0000000010000020A5
:1001F8006813000872B6FEE710B594B008AC302258
:100208000021204600F021FF002303930493059367
:10021800069307930193204A116C41F080511164B1
:10022800126C02F080520192019A02931B4B1A68D9
:1002380042F480421A601B6803F480430293029BD5
:10024800012308934FF48033099302230E934FF44C
:1002580080020F9206221092A82211921293042370
:100268001393204600F0E0F990B90F23039302237B
:100278000493002305934FF4A05306934FF480533F
:100288000793052103A800F01FFC18B914B010BD8E
:10029800FFF7B0FFFFF7AEFF0038024000700040E4
:1002A80008B500F073FEFFF7A7FF00F005F800F0AF
:1002B80043F800F05BF8FEE770B588B003AD0024A2
:1002C800039404940594069407940094184B1A6BAD
:1002D80042F040021A631A6B02F040020092009A40
:1002E80001941A6B42F002021A631A6B02F00202BE
:1002F8000192019A02941A6B42F080021A631B6BF6
:1003080003F080030293029B0A4E22464FF4E05109
:10031800304600F0A5FD4FF4E05303930123049306
:10032800059406942946304600F0A4FC08B070BD38
:1003380000380240001C024008B50A480A4B036016
:100348004FF49643436000238360C36003610C222B
:1003580042618361C36100F037F900B908BDFFF756
:1003680049FFFBE7700000200010014008B50A486B
:100378000A4B03604FF49643436000238360C360D5
:1003880003610C2242618361C36100F01DF900B969
:1003980008BDFFF72FFFFBE72800002000140140ED
:1003A80000B58BB000230593069307930893099330
:1003B8000368284A934205D0274A934225D00BB0B8
:1003C8005DF804FB00210191244B5A6C42F01002A5
:1003D8005A645A6C02F010020192019A02911A6B47
:1003E80042F002021A631B6B03F002030293029BA2
:1003F800C023059302230693032308930723099335
:1004080005A9174800F036FCD9E700210391134BE2
:100418005A6C42F020025A645A6C02F0200203928D
:10042800039A04911A6B42F040021A631B6B03F0A3
:1004380040030493049B4FF48443059302230693DB
:10044800032308930823099305A9064800F012FC22
:10045800B5E700BF00100140001401400038024019
:100468000004024000180240FEE7FEE7FEE7FEE750
:10047800FEE770477047704708B500F0A1FD08BD5A
:1004880082B0002100910B4B5A6C42F480425A64AE
:100498005A6C02F480420092009A01911A6C42F060
:1004A80080521A641B6C03F080530193019B02B0C5
:1004B800704700BF0038024010B50446026813694F
:1004C80023F44053C1680B431361836802691A43DC
:1004D80043691A43C3691A430168CB6823F4164376
:1004E80023F00C031343CB600268536923F4407371
:1004F80081690B4353610368314A934206D002F580
:100508008062934202D000F095FB01E000F0A2FB6C
:10051800E369B3F5004F29D00021031849411B189E
:1005280041F10001C90041EA5371DB001818636802
:100538004FEA83024FEA937341F10001FFF720FE6F
:10054800204AA2FB00314909642303FB11031B0164
:100558003233A2FB03235B0903F0F00202EB011222
:1005680003F00F03216813448B6010BD00230218A9
:1005780043EB0301121841F10001C90041EA52712D
:10058800D200101841F10001626892185B41FFF730
:10059800F7FD0C4AA2FB00314909642303FB110350
:1005A800DB003233A2FB03235B095A0002F4F87222
:1005B80002EB011203F00703216813448B60D4E7B0
:1005C800001001401F85EB5160B310B5044690F848
:1005D800413013B3242384F841302268D36823F4CC
:1005E8000053D3602046FFF767FF2268136923F49E
:1005F800904313612268536923F02A0353612268E8
:10060800D36843F40053D36000206064202384F847
:10061800413084F84230606310BD80F84030FFF705
:10062800BFFED7E701207047002800F0E08170B5D1
:1006380082B00446036813F0010F3BD09F4B9B68C0
:1006480003F00C03042B2CD09C4B9B6803F00C0389
:10065800082B21D06368B3F5803F4FD0B3F5A02FA6
:1006680052D0964B1A6822F480321A601A6822F423
:1006780080221A606368002B50D000F0ADFC05465C
:100688008E4B1B6813F4003F14D100F0A5FC401BEF
:100698006428F5D90320B1E1884B5B6813F4800F17
:1006A800D8D0864B1B6813F4003F03D06368002B37
:1006B80000F09F81236813F0020F54D07F4B9B6892
:1006C80013F00C0F3ED07D4B9B6803F00C03082BF6
:1006D80033D0E368002B68D0794B01221A6000F010
:1006E8007BFC0546754B1B6813F0020F54D100F0D4
:1006F80073FC401B0228F5D903207FE16F4A136879
:1007080043F480331360B5E76C4B1A6842F48022D7
:100718001A601A6842F480321A60ABE700F05CFC99
:100728000546664B1B6813F4003FC3D000F054FC29
:10073800401B6428F5D9032060E1604B5B6813F423
:10074800800FC6D15D4B1B6813F0020F03D0E3681E
:10075800012B40F05081594A136823F0F8032169AE
:1007680043EAC1031360236813F0080F42D063699A
:100778006BB3534B0122C3F8802E00F02DFC0546C5
:100788004E4B5B6F13F0020F34D100F025FC401B79
:100798000228F5D9032031E1484A136823F0F80309
:1007A800216943EAC1031360DDE7454B00221A6063
:1007B80000F012FC0546414B1B6813F0020FD2D023
:1007C80000F00AFC401B0228F5D9032016E13C4B37
:1007D8000022C3F8802E00F0FFFB0546374B5B6F05
:1007E80013F0020F06D000F0F7FB401B0228F5D9E2
:1007F800032003E1236813F0040F77D02F4B1B6C01
:1008080013F0805F33D1002301932C4B1A6C42F014
:1008180080521A641B6C03F080530193019B0125DD
:10082800284B1B6813F4807F23D0A368012B34D096
:10083800052B38D0214B1A6F22F001021A671A6F64
:1008480022F004021A67A368002B3DD000F0C4FB15
:1008580006461A4B1B6F13F0020F46D100F0BCFB83
:10086800801B41F288339842F3D90320C6E0002563
:10087800D6E7144A136843F48073136000F0ACFBA6
:100888000646104B1B6813F4807FCED100F0A4FB02
:10089800801B0228F5D90320B0E0084A136F43F003
:1008A80001031367CFE7054B1A6F42F004021A677A
:1008B8001A6F42F001021A67C5E700BF003802400C
:1008C800000047420070004000F086FB0646524B8D
:1008D8001B6F13F0020F08D000F07EFB801B41F263
:1008E80088339842F3D9032088E0EDB9A369002B37
:1008F80000F08380484A926802F00C02082A51D01E
:10090800022B17D0454B00221A6600F065FB0446FF
:10091800414B1B6813F0007F42D000F05DFB001BC9
:100928000228F5D9032069E03B4A136C23F0805371
:100938001364DBE7394B00221A6600F04DFB0546CD
:10094800354B1B6813F0007F06D000F045FB401BB9
:100958000228F5D9032051E0E369226A1343626A49
:1009680043EA8213A26A5208013A43EA0243E26A5E
:1009780043EA0263284A5360284B01221A6600F0B2
:100988002BFB0446244B1B6813F0007F06D100F0B4
:1009980023FB001B0228F5D903202FE000202DE0BF
:1009A80000202BE0012B2BD01B4B5B6803F480014C
:1009B800E269914226D103F03F02216A8A4223D19B
:1009C800616A47F6C0721A40B2EB811F1ED103F468
:1009D8004031A26A5208013AB1EB024F18D103F034
:1009E8007063E26AB3EB026F14D1002006E00120C5
:1009F8007047012002E0012000E0002002B070BD35
:100A08000120FBE70120F9E70120F7E70120F5E7DE
:100A18000120F3E70120F1E70038024000004742D7
:100A280008B5264B9B6803F00C03042B41D0082B18
:100A380041D1224B5A6802F03F025B6813F4800FE1
:100A480012D01E4B5968C1F388111D480023A1FB21
:100A58000001FFF795FB194B5B68C3F301430133B2
:100A68005B00B0FBF3F008BD144B5868C0F3881066
:100A78004FEA401CBCEB000C6EEB0E0E4FEA8E13D7
:100A880043EA9C634FEA8C11B1EB0C0163EB0E0354
:100A9800DB0043EA5173C90011EB000C43F100037A
:100AA800990200234FEA8C2041EA9C51FFF768FB2A
:100AB800D1E70348D7E70348D5E700BF003802402D
:100AC800001BB7000024F400002800F09B8070B5DC
:100AD8000D4604464F4B1B6803F007038B4208D2B0
:100AE800CBB24C4A1370136803F007038B4240F0F3
:100AF8008B80236813F0020F17D013F0040F04D073
:100B0800454A936843F4E0539360236813F0080F51
:100B180004D0414A936843F4604393603E4A936823
:100B280023F0F003A1680B439360236813F0010FCF
:100B380032D06368012B21D09A1E012A25D9364A62
:100B4800126812F0020F61D033498A6822F003025A
:100B580013438B6000F040FA06462F4B9B6803F066
:100B68000C036268B3EB820F16D000F035FA801BD5
:100B780041F288339842F0D9032042E0264A1268AD
:100B880012F4003FE0D101203BE0234A126812F042
:100B9800007FD9D1012034E01E4B1B6803F0070306
:100BA800AB4207D9EAB21B4B1A701B6803F0070364
:100BB800AB422DD1236813F0040F06D0164A936870
:100BC80023F4E053E1680B439360236813F0080FA4
:100BD80007D0114A936823F46043216943EAC103AB
:100BE8009360FFF71DFF0C4B9B68C3F303130B4A7D
:100BF800D35CD8400A4B18600A4B186800F0A0F97B
:100C0800002070BD012070470120FAE70120F8E7B5
:100C18000120F6E7003C0240003802408813000833
:100C28000800002004000020014B1868704700BF2E
:100C38000800002008B5FFF7F7FF044B9B68C3F3D3
:100C48008223034AD35CD84008BD00BF0038024065
:100C58008013000808B5FFF7E7FF044B9B68C3F350
:100C68004233034AD35CD84008BD00BF0038024075
:100C78008013000800230F2B00F2E98070B582B0C2
:100C880065E085684FEA430E032404FA0EF425EA6A
:100C98000405CC6804FA0EF42C438460446824EA02
:100CA80002044A68C2F300129A40224342605CE0A0
:100CB800DC08083450F8242003F00705AD004FF095
:100CC8000F0E0EFA05FE22EA0E0E0A69AA4042EA43
:100CD8000E0240F824205CE0072200E0002202FA1D
:100CE8000EF22A4302345A4D45F82420594A946892
:100CF8006FEA0C0224EA0C054E6816F4801F01D036
:100D08004CEA0405534CA560E46802EA04054E6801
:100D180016F4001F01D04CEA04054E4CE5606468E7
:100D280002EA04054E6816F4003F01D04CEA0405B7
:100D3800484C6560246822404D6815F4803F01D016
:100D48004CEA0402434C226001330F2B7DD8012268
:100D58009A400C6804EA020C32EA0404F4D14C68A4
:100D680004F00304013C012C8BD94A6802F0030209
:100D7800032A09D0C4685D000322AA4024EA0204B9
:100D88008A68AA402243C2604A6802F00302022A23
:100D98008ED004684FEA430E032202FA0EF224EAC8
:100DA80002044A6802F0030202FA0EF222430260C9
:100DB8004A6812F4403FC7D000220192264A546C78
:100DC80044F480445464526C02F480420192019AC3
:100DD8009C08A51C1E4A52F8255003F0030E4FEA42
:100DE8008E0E0F2202FA0EF225EA02051B4A9042E5
:100DF8003FF474AF02F5806290421AD002F5806227
:100E0800904218D002F58062904216D002F58062B6
:100E1800904214D002F58062904212D002F58062AE
:100E2800904210D002F5806290423FF455AF0822FC
:100E380055E7012253E7022251E703224FE7042234
:100E48004DE705224BE7062249E702B070BD70471F
:100E580000380140003C01400038024000000240D8
:100E68000AB181617047090481617047002808DB75
:100E78000901C9B200F1604000F5614080F8001333
:100E8800704700F00F000901C9B2014B19547047AF
:100E980014ED00E000B500F00700C0F1070CBCF14C
:100EA800040F28BF4FF0040C031D062B0FD9C31ED7
:100EB8004FF0FF3E0EFA0CF021EA000199400EFABD
:100EC80003FE22EA0E0241EA02005DF804FB002359
:100ED800EEE70000074AD36823F4E0631B041B0C09
:100EE800000200F4E060034343F0BF6343F40033BF
:100EF800D360704700ED00E010B50446054BD86894
:100F0800C0F30220FFF7C6FF01462046FFF7AEFFF9
:100F180010BD00BF00ED00E00138B0F1807F0BD2BA
:100F28004FF0E0235861054AF02182F82310002091
:100F3800986107221A6170470120704700ED00E0B0
:100F480010B504460E4B1A784FF47A73B3FBF2F3DC
:100F58000C4A1068B0FBF3F0FFF7DEFF68B90F2CFE
:100F680001D901200AE0002221464FF0FF30FFF7A7
:100F7800C3FF054B1C60002000E0012010BD00BF2E
:100F880000000020080000200400002008B50B4BDA
:100F98001A6842F400721A601A6842F480621A6091
:100FA8001A6842F480721A600320FFF793FF0F203B
:100FB800FFF7C6FFFFF764FA002008BD003C0240B7
:100FC800034A1168034B1B780B441360704700BF3A
:100FD800B800002000000020014B1868704700BFCF
:100FE800B8000020034AD2F8883043F47003C2F8EE
:100FF8008830704700ED00E0DFF834D0FFF7F2FFEB
:101008000C480D490D4A002302E0D458C45004335B
:10101800C4188C42F9D30A4A0A4C002301E0136031
:101028000432A242FBD300F019F8FFF739F97047F0
:1010380000000220000000200C000020A813000877
:101048000C000020BC000020FEE702440346934247
:1010580000D1704703F8011BF9E7000070B50D4D8A
:101068000D4C641BA4100026A64209D10B4D0C4C54
:1010780000F076F9641BA4100026A64205D170BDC5
:1010880055F8043B98470136EEE755F8043B984776
:101098000136F2E7A0130008A0130008A013000807
:1010A800A41300082DE9F0478C468E46089E154685
:1010B80004461946002B40F0D080724547D9B2FA51
:1010C80082F74FB1C7F120030EFA07FC20FA03F3A9
:1010D800BD4043EA0C0CBC404FEA154EA8B2BCFB1D
:1010E800FEF8230C0EFB18CC08FB00F943EA0C436E
:1010F800994528D9EB1808F1FF3204D2994502D94D
:10110800A8F102022B44A3EB0903A4B2B3FBFEFC33
:101118000EFB1C330CFB00F044EA0344A04214D934
:101128002C190CF1FF3304D2A04202D9ACF102030E
:101138002C44241A43EA02401EB1FC4000233460C8
:101148007360BDE8F0874246DDE76346F1E7002AB1
:1011580079D0B2FA82F3002B3FD01946C1F12003AF
:1011680002FA01F52EFA03F20EFA01FE20FA03F351
:1011780043EA0E034FEA154E00FA01F4B2FBFEFCF7
:10118800AFB20EFB1C201A0C0CFB07F842EA004217
:1011980090455AD9AA180CF1FF3004D2904502D9CB
:1011A800ACF102002A44A2EB08029BB2B2FBFEFC9F
:1011B8000EFB1C220CFB07F743EA02439F4246D969
:1011C800EB180CF1FF3204D29F4202D9ACF10202B3
:1011D8002B44DB1B42EA004202E0AEEB0203012291
:1011E8004FEA154EAFB2B3FBFEFC200C0EFB1C33CE
:1011F8000CFB07F840EA034398452AD9EB180CF191
:10120800FF3004D2984502D9ACF102002B44A3EB7D
:101218000803A4B2B3FBFEFC0EFB1C330CFB07F760
:1012280044EA0344A74216D92C190CF1FF3304D21F
:10123800A74202D9ACF102032C44E41B43EA004064
:101248000F46114678E71F2188E76046ABE76246FC
:10125800BFE76046DBE76346EFE7734506D916B993
:10126800002108466DE7C6E9000EF9E7B3FA83F7EF
:1012780087B9734501D3824207D8841A6EEB0303FA
:1012880001209C461EB900215BE73846FAE7C6E90B
:10129800004CF8E7C7F1200CBB4022FA0CF51D43BF
:1012A80020FA0CF12EFA0CF30EFA07FE41EA0E01B1
:1012B8004FEA154900FA07F4B3FBF9F81FFA85FE5F
:1012C80009FB18300B0C08FB0EFA43EA00439A4559
:1012D80002FA07F240D9EB1808F1FF3004D29A4518
:1012E80002D9A8F102002B44A3EB0A0389B2B3FB8D
:1012F800F9F809FB183308FB0EFE41EA03418E4555
:101308002CD9691808F1FF3304D28E4502D9A8F107
:101318000203294443EA0040A0FB0298A1EB0E0116
:101328004145CE46434602D306D14C4504D2B9EBDB
:10133800020E68EB05030138002EA4D0B4EB0E02B0
:1013480061EB030101FA0CFC22FA07F34CEA0303F0
:10135800F940C6E9003196E74046C5E74346D9E774
:10136800F8B500BFF8BC08BC9E467047F8B500BF8A
:08137800F8BC08BC9E4670475A
:101380000000000001020304000000000000000053
:0813900001020304060708092D
:0813980014FDFF7F01000000BD
:0413A000E10100085F
:0413A400BD0100087F
:0C13A80001000000100000000024F40010
:0400000508001001DE
:00000001FF
