:020000040800F2
:1000000000000220B5240008A9060008AD0600087B
:10001000B1060008B5060008B90600080000000097
:10002000000000000000000000000000BD06000805
:10003000C106000800000000C5060008C906000847
:1000400005250008052500080525000805250008E8
:1000500005250008052500080525000805250008D8
:1000600005250008052500080525000805250008C8
:1000700005250008052500080525000805250008B8
:1000800005250008052500080525000805250008A8
:10009000CD060008052500080525000805250008EF
:1000A0000525000805250008052500080525000888
:1000B0000525000805250008052500080525000878
:1000C0000525000805250008052500080525000868
:1000D00005250008D90600080525000805250008A3
:1000E0000525000805250008052500080525000848
:1000F0000525000805250008052500080525000838
:100100000525000805250008052500080525000827
:100110000525000805250008052500080525000817
:100120000525000805250008052500080525000807
:1001300005250008052500080525000805250008F7
:1001400005250008052500080525000805250008E7
:100150000525000805250008E50600080525000816
:1001600005250008052500080525000805250008C7
:1001700005250008052500080525000800000000E9
:08018000052500080525000813
:1001900001F0FF01102A2BDB10F0070F08D010F838
:1001A000013B013A8B422DD010F0070F42B3F6D13C
:1001B000F0B441EA012141EA014122F007047FF055
:1001C00000070023F0E80256083C85EA010586EAAC
:1001D000010685FA47F5A3FA87F586FA47F6A5FAE8
:1001E00087F68EB9EED1F0BC01F0FF0102F00702F4
:1001F00032B110F8013B013A83EA010313B1F8D19F
:100200000020704701387047002D06BF354603387F
:10021000073815F0010F07D1013015F4807F02BFB8
:10022000013015F4C03F0130F0BC0138704700BF09
:1002300053B94AB9002908BF00281CBF4FF0FF314D
:100240004FF0FF3000F00CB8ADF1080C6DE904CEB2
:1002500002F0FAFDDDF804E0DDE9022304B07047A6
:10026000704700BF10B5054C237833B9044B13B168
:100270000448AFF300800123237010BD600000200C
:10028000000000000431000808B5034B1BB103490E
:100290000348AFF3008008BD0000000064000020A8
:1002A0000431000810B50C480C4C06220023C4E9A8
:1002B00000024FF400314FF400122046C4E902332B
:1002C000C4E90412A361A38300F010FB00B910BDC0
:1002D000BDE8104000F046B9006400407C000020FA
:1002E00030B51F4B026889B000249A42CDE9024420
:1002F000CDE90444069401D009B030BD03F5EA33DA
:1003000000941A6C174842F000721A641A6C02F0DA
:1003100000720092009A01941A6B42F008021A636C
:100320001B6B9FED0D7B03F00803019302A90923CA
:100330000322CDE905238DED027B019D01F09EF89E
:1003400022462146142000F06FFE142000F0A8FE83
:1003500009B030BDAFF300800300000002000000D0
:1003600000640040000C024000B583B000220A4B3C
:100370000192196B41F4800119631B6B03F4800334
:10038000019311464620019B00F04EFE462003B02B
:100390005DF804EB00F084BE0038024000B5002296
:1003A0008BB0CDE90422CDE906221F4B00920892C2
:1003B000196B1E4841F002011963196B01F002012B
:1003C000009100990192196B41F008011963196BB2
:1003D00001F00801019101990292196B41F00101AC
:1003E0001963196B01F00101029102990392196BD3
:1003F00041F0800119631B6B03F0800303934FF4FA
:10040000E051039B01F01AFA4FF4E0520123CDE9C9
:10041000042306480022002304A9CDE9062301F0A5
:100420002DF80BB05DF804FB00380240001C0240C0
:1004300010B5002394B0CDE90A33CDE90C33CDE9F2
:100440000333CDE90533214901930793086C204A12
:1004500040F080500864096C01F0805101910199CD
:100460000293136843F480431360136801204FF430
:10047000803103F48043CDE9080102934FF48001F9
:100480000224CDE90E41029804210220CDE9120197
:100490000622A82308A81092119301F0DDF908B1F3
:1004A00072B6FEE70F220346CDE903244FF4A05CA9
:1004B0004FF4805203A80521CDE9053C079201F0D5
:1004C000E5FB08B172B6FEE714B010BD003802407B
:1004D0000070004010B582B000F0CAF9FFF7A8FF25
:1004E000FFF75CFFFFF740FFFFF7DCFE00F00AF9C3
:1004F00000F0A2F8174918484FF47A73062201F069
:1005000015FD6C4617E04FF48061144801F09AF92C
:10051000642000F0D9F94FF40061104801F092F91D
:10052000642000F0D1F90D484FF4805101F08AF9B0
:10053000642000F0C9F90A48002100F0EBFB002814
:10054000E1D0204600F032F894E8030000F00CF807
:10055000D9E700BF1C31000848010020001C024000
:100560007C00002072B6FEE700B585B004AB03E95D
:100570000300BDF80C00BDF80A30BDF8082000905B
:100580000749084801F0C0FF0649024606484FF4F3
:100590007A7392B205B05DF804EB01F0C7BC00BFFE
:1005A00024310008A80000204801002010B58AB0BE
:1005B000044601AB03AA0021084800F027FBBDF860
:1005C0000620BDF80830BDF8041052BA5BBA49BA2B
:1005D000204621806280A3800AB010BD7C000020EC
:1005E000114B02689A4200D0704710B50F4A8AB08A
:1005F0001288ADF8082000230820CDF80A30ADF8A5
:100600000E3040F2FF1100220023CDE906230890AE
:100610000DEB00020491012401AB04A904480194EC
:1006200000F0A2FA0AB010BD00100140A4000020A2
:100630007C000020704700BF10B500228AB0002364
:10064000CDE90023CDE90223CDE904236946002248
:100650000123012405480894CDE9062300F0C6F9DA
:10066000024800F053FA0AB010BD00BF7C00002021
:1006700082B00C4B002100915A6C42F480425A64C3
:100680005A6C02F480420092009A01911A6C42F076
:1006900080521A641B6C03F080530193019B02B0DB
:1006A000704700BF00380240FEE700BFFEE700BF12
:1006B000FEE700BFFEE700BFFEE700BF704700BFD8
:1006C000704700BF704700BF00F0ECB8014800F071
:1006D0004BBB00BF7C000020014801F031BD00BFD2
:1006E00048010020014800F0F3BD00BFE8000020F1
:1006F000034AD2F8883043F47003C2F88830704758
:1007000000ED00E010B50B480B4C4FF49641002370
:10071000C4E900010C222046C4E90233C4E90432D2
:10072000C4E9063301F070FB00B910BDBDE810400C
:10073000FFF718BF0010014048010020F0B5354B0D
:1007400002688BB000249A42CDE90444CDE9064406
:10075000089401D00BB0F0BD03F5943301945A6CAA
:1007600042F010025A645A6C02F010020192019A8F
:1007700002941A6B42F002021A631A6B02F0020230
:100780000292029A03941A6B42F001021A631B6BE5
:1007900003F001030393802207260223032704A901
:1007A00005461D48CDE90423CDE90776039B00F0FB
:1007B00065FE4FF4007202231848089604A9184EEB
:1007C0000797CDE90423069400F058FE154A746299
:1007D0004FF00063C6E90023304640224FF48063A7
:1007E000C6E90224C6E90544C6E90744336100F0BE
:1007F0007FFC58B90022AE6311462520B56300F096
:1008000013FC252000F04CFC0BB0F0BDFFF7AAFE56
:10081000F0E700BF00100140000402400000024069
:10082000E8000020B864024038B50E4A0E4B12783A
:10083000054618684FF47A73B3FBF2F3B0FBF3F09C
:1008400000F03CFC08B90F2D01D9012038BD044649
:10085000024629464FF0FF3000F0E6FB034B2046EE
:100860001D6038BD040000200000002008000020AA
:1008700008B50B4B1A6842F400721A601A6842F409
:1008800080621A601A6842F480721A60032000F0D5
:10089000B9FB0F20FFF7C8FFFFF7EAFE002008BDF5
:1008A000003C0240034A044B11681B780B44136060
:1008B000704700BF9001002004000020014B186821
:1008C000704700BF9001002038B50446FFF7F6FFDF
:1008D000631C054602D0044B1B781C44FFF7EEFF57
:1008E000401BA042FAD338BD0400002000287BD072
:1008F00038B590F820300446002B72D02268136877
:1009000043F001031360FFF7D9FF054604E0FFF74A
:10091000D5FF401B0A285BD823685A68D107F6D553
:100920001A6822F002021A60FFF7C8FF054604E0C9
:10093000FFF7C4FF401B0A284AD823685A68920769
:10094000F6D4227E012A1A680CBF42F0800222F0FF
:1009500080021A60627E012A1A680CBF42F04002CF
:1009600022F040021A60A27E012A1A680CBF42F0EF
:10097000200222F020021A60E27E012A1A680CBFCF
:1009800022F0100242F010021A60227F012A1A6837
:100990000CBF42F0080222F008021A60627F012AAE
:1009A0001A680CBF42F0040222F004021A60D4E973
:1009B0000220216902430A436069616802430139E8
:1009C0000A4300200121DA61606284F8201038BDFA
:1009D000636A052243F40033636284F82020012017
:1009E00038BDFFF77DFC89E70120704790F8202093
:1009F000013A012A06D9426A034642F480220120C4
:100A00005A627047404BD3F800220120024330B4B1
:100A1000C3F80022D3F8002222F47C52C3F800224B
:100A2000D3F800224C6A42EA0422C3F800224A6941
:100A300002F01F04A040D3F81C4224EA0004C3F8CB
:100A40001C42CD69C443002D45D1D3F80C5225403A
:100A5000C3F80C52D200CD688B8802F1804202F5B7
:100A6000C84243EA0543C2F840328D680B8843EA26
:100A70000543C2F844328B69234A33BBD2F80432AF
:100A80002340C2F804320B69C3B91F4BD3F81422B8
:100A90001440C3F814420B6A012B05D11A4AD2F84C
:100AA0001C320343C2F81C32174AD2F8003223F03A
:100AB0000103002030BCC2F800327047124AD2F85D
:100AC00014320343C2F81432E5E7D2F80432034388
:100AD000C2F80432D7E7012DCDD1D3F80C5205432B
:100AE000C3F80C52D2000D688B8802F1804202F5E7
:100AF000C84243EA0543C2F840328D688B8943EA15
:100B00000543C2F84432B6E70064004038B590F8B7
:100B10002030012B044605D0436A43F4002343628E
:100B2000012038BD0268022380F82030136823F0CA
:100B300001031360FFF7C2FE054604E0FFF7BEFEA7
:100B4000431B0A2B07D823685B6813F00103F5D118
:100B50006362184638BD636A052243F4003363625A
:100B600084F82020DCE700BF30B490F820C005688E
:100B70000CF1FF3CBCF1010FAC6839D814F0E05F18
:100B800006D1436A43F400134362012030BC70472E
:100B9000C4F301640120A0401860D1E9023063B3BE
:100BA0000343486843EAC00304F1180000012B50D6
:100BB00005EB041C0B69CCF884310B7D012B4FEA4B
:100BC000041105D1DCF8843143F48073CCF884310E
:100BD0006B185168C3F88C111268C3F88821DCF8CF
:100BE000803143F00103002030BCCCF880317047E5
:100BF000436A43F480234362C7E70B6840EA4350EB
:100C000004F118031B01E850D2E700BF90F820C0A0
:100C10000CF1FF3CBCF1010F6BD870B5046841B911
:100C2000E568AD0708D1436A43F40013436201202D
:100C300070BD2569AE07F6D004EB011C4FEA011E1A
:100C4000DCF8B05105F004059560002D57D0DCF8B4
:100C5000B051ED085560DCF8B05105F00205D560E3
:100C6000DCF8B4512D0758BFDCF8B451DCF8B4619E
:100C700054BF05F00F05082515617444DCF8B45124
:100C8000C6F3072696612D0CD4F8B86155611E7025
:100C900002687244D2F8B821120A5A70026872448B
:100CA000D2F8B821120C9A7002687244D2F8B821B6
:100CB000120EDA7002687244D2F8BC211A7102680E
:100CC0007244D2F8BC21120A5A7102687244D2F8F6
:100CD000BC21120C9A7102687244D2F8BC21120E27
:100CE000DA71036881B9DA6842F02002DA60002024
:100CF00070BD436A43F48023436201207047DCF8EF
:100D0000B0516D0D1560A6E71A6942F020021A6114
:100D1000EDE700BF90F82030013B012B01D9002006
:100D20007047036819B9D86800F003007047186964
:100D300000F00300704700BF704700BF704700BF5E
:100D4000704700BF704700BF704700BF704700BFCB
:100D5000704700BF704700BF704700BF704700BFBB
:100D6000704700BF704700BF2DE9F84F03685C690A
:100D7000D3F804809F68D3F80CB0D3F81090D3F860
:100D800018A014F00106054625D0FA0700F1888066
:100D90004FF400514FF480400026FA050DD52B6822
:100DA0004FF480729A60BB0500F1BA807A0500F1B9
:100DB000D8803B0540F1F2800646F9030BD52B683D
:100DC0004FF480329A60BA0300F1A3807B0340F1B4
:100DD000CA8046F40046210702D51BF0100F59D1F6
:100DE000620702D51BF0080F73D1A30703D52B6848
:100DF000DB689F0774D1600602D519F0100F5ED131
:100E0000A10602D519F0080F75D1E20603D52B68AB
:100E10001B699B0759D1A70302D518F0100F63D1A6
:100E2000E00302D518F0080F6CD121042ED518F07C
:100E3000040F2B6828D0E20544BF0AF001021643D4
:100E4000A70516D51AF0020F13D0600546F002066A
:100E500004F400626AD51AF0040F65D18AB904223D
:100E60005A606B6A334328466B62FFF77BFFBDE82D
:100E7000F88F610504F4006202D51AF0040F53D113
:100E800012B11AF0700A56D104225A60002EE8D12D
:100E9000BDE8F88F2B68102246F40076DA609FE7F1
:100EA00001229A60BB0738D47E0761D4390779D50F
:100EB0004FF440514FF4A0404FF480566DE72B683B
:100EC000102246F480661A619AE72846FFF742FF2F
:100ED000A1E72B680822DA602846FFF739FF84E78C
:100EE0002846FFF7A7FB86E72B6810225A602846A2
:100EF000FFF734FF94E72B6808221A612846FFF7B2
:100F00002BFF82E72B6808225A602846FFF728FF4C
:100F10008BE72846FFF714FF5DE7FFF70DFF37E784
:100F20002846FFF70BFF48E746F00406002A96D054
:100F30001AF0700A93D0BAF1400F3FD01FD8BAF11F
:100F4000200F56D0BAF1300F4AD0BAF1100F30D17D
:100F50009A69042122F070029A6146F008065960ED
:100F60007FE70E4629E738031FD546F4803632E77F
:100F70004FF420514FF490404FF400660DE7BAF162
:100F8000500F24D0BAF1600F13D19A69042122F0D6
:100F900070029A6146F48076596062E72846FFF74E
:100FA000D3FE0AE7FFF7CEFEF2E62846FFF7CEFEB5
:100FB00011E79A6922F070029A6165E79A69042143
:100FC00022F070029A6146F04006596049E79A693A
:100FD000042122F070029A6146F08006596040E7D1
:100FE0009A69042122F070029A6146F02006596045
:100FF00037E79A69042122F070029A6146F01006E0
:1010000059602EE70749CA6803024FF6FF0003F450
:10101000E0630240134343F0BF6343F40033CB600B
:10102000704700BF00ED00E01B4BDB68C3F30223F9
:1010300000B5C3F1070EBEF1040F03F1040C28BF85
:101040004FF0040EBCF1060F1CD9A3F1030C4FF0B6
:10105000FF3303FA0CF322EA03024FF0FF3303FAE3
:101060000EF321EA030303FA0CF313431B010028D8
:10107000DBB20ADB00F1604000F5614080F800332C
:101080005DF804FB00229446E7E7044A00F00F00F5
:10109000024413765DF804FB00ED00E0FCEC00E098
:1010A000002807DB044A4109012300F01F008340A8
:1010B00042F82130704700BF00E100E00138B0F194
:1010C000807F01D30120704710B44FF0E023074C1C
:1010D00058614FF0F00C84F823C00022072110461D
:1010E0009A615DF8044B1961704700BF00ED00E0A4
:1010F00038B50446FFF7E2FB002C6DD023680022D0
:10110000022184F8351084F834201A6822F0010294
:1011100005461A6005E0FFF7D1FB431B052B37D8C6
:1011200023681A68D107F6D4D4E90120E1680243A4
:101130000A43D4E90451A0692A430A43E1691D68BE
:1011400002430A4331492940256A2A430A43616A16
:10115000042924D01A605A6922F007021143D8B238
:101160002B4A59611038A2FB0052120929496FF32A
:101170000903895CE1655F2888BF04333F228A4008
:10118000A36500209A600123606584F8353038BD7E
:1011900003232022626584F83530184638BDD4E92F
:1011A0000B512943114319605969A26A21F00701C3
:1011B000114341F00401002DD1D078B1B0F5005FAA
:1011C00016D0022A03D9032AC9D1EA01C7D5402281
:1011D0000123626584F83530012038BD012A03D02F
:1011E00032F00202BBD1F0E7B5F1C07FB7D1EEE734
:1011F000032AB4D801A050F822F000BFCF11000894
:10120000CB110008CF110008E91100083F8010F051
:10121000ABAAAAAA6831000870B50446866DFFF72C
:101220004DFB94F83530022B06D0802363650023F4
:1012300084F83430012070BD23681A6822F0160249
:101240001A605A6922F080025A61226C054642B344
:101250001A6822F008021A601A6822F001021A6065
:1012600005E0FFF72BFB431B052B10D823681B68F9
:1012700013F00103F5D1E16D3F228A4018460121A8
:101280000023B26084F8351084F8343070BD032335
:1012900020226265184684F83530002384F8343003
:1012A00070BDA26C002AD3D1D6E700BF90F83530CC
:1012B000022B03D080234365012070470268052379
:1012C00080F83530136823F0010300201360704765
:1012D000F0B583B0674A876D166800230193C36D2C
:1012E0003D6808229A402A42044603D001680868F3
:1012F000400778D401229A402A4203D021684969E4
:1013000008066AD404229A402A4203D02168096858
:1013100089075CD410229A402A4203D021680868C9
:10132000000741D420229A402A4214D0216808683C
:10133000C00610D5BA6094F83520052A63D00B6832
:1013400013F4802F0B687ED0190340F18980E36B82
:101350000BB120469847636D23B3636DDA071AD546
:1013600022684549052384F835301368A1FB061629
:1013700023F00103B60A136002E01368DB0704D50B
:10138000019B0133B3420193F7D90122002384F872
:10139000352084F83430E36C23B1204603B0BDE837
:1013A000F040184703B0F0BDBA600A6812F4802F0D
:1013B0000A6822D1D20503D40A6822F008020A6022
:1013C000226C002AAED020469047E36DAAE7BA60AF
:1013D000626D42F0040262659CE7BA60626D42F0A1
:1013E000020262658EE7086820F004000860BA60B7
:1013F000626D42F0010262657CE71103E0D5A26CE8
:10140000002AE0D18EE70A6822F016020A604A69D3
:1014100022F080024A61226C3AB30A6822F0080284
:101420000A603F2202FA03F3216DBB600122002310
:1014300084F8352084F834300029B3D0204603B036
:10144000BDE8F040084713F4807380D10A6822F0A9
:1014500010020A60012284F8352084F8343076E7DF
:10146000636C002B7FF475AF75E7A26C002AD4D1B2
:10147000D7E700BF00000020B5814E1B2DE9F04FDB
:10148000AC4A0B68904285B04FF000024FF0010B60
:1014900000F0DA80DFF8ACE28A4603E00132102A7D
:1014A00000F0A6800BFA02F101EA03069943F5D198
:1014B000DAF8044004F0030C510003250CF1FF3767
:1014C0008D40012F6FEA050558D9BCF1030F08D0F4
:1014D000C76807EA0508DAF808708F4047EA080786
:1014E000C76007680CFA01F13D40294314F4403FFE
:1014F0000160D3D0904D00210391696C41F480418B
:101500006964696C01F480410391039922F003013D
:1015100001F1804101F59C3102F003078D68BF00A5
:101520004FF00F0C0CFA07FC25EA0C08834DA8427B
:1015300061D0834DA84200F05E81DFF80CC26045A7
:1015400000F06081DFF804C2604500F06981DFF8D7
:1015500000C2604500F06B81DFF8F8C1604500F023
:101560005881DFF8F4C160450CBF4FF0070C4FF015
:10157000080C0CFA07F748EA070542E0876807EA13
:101580000508DAF80C708F4047EA0807876047685B
:1015900027EA0608C4F30017974047EA08074760A0
:1015A000C76807EA0508DAF808708F4047EA0807B5
:1015B000BCF1020FC76094D14FEAD20900EB890950
:1015C00002F00708D9F820700097DAF810704FEA97
:1015D000880807FA08F701970F2707FA08F8009F0D
:1015E00027EA0808019F47EA0807C9F8207078E74A
:1015F00005B0BDE8F08F4FF0010C0CFA07F748EA90
:1016000007058D60DEF80810F543E70254BF294056
:101610003143CEF80810DEF80C10A70254BF294061
:101620003143CEF80C10DEF80410A70354BF294054
:101630003143CEF80410DEF80010E40354BF294013
:101640003143CEF8001029E7DFF8ECA002E00132C8
:10165000102ACDD00BFA02F403EA04079C43F6D11A
:101660004D685400032606FA04FC05F003096FEAEE
:101670000C0809F1FF3CBCF1010F6FD9B9F1030F60
:101680000AD0D0F80CE08E6808EA0E0E06FA04FCC8
:101690004CEA0E0CC0F80CC0D0F800C009FA04F4F3
:1016A0000CEA080C44EA0C0415F4403F0460CED068
:1016B00000240394DAF8444044F48044CAF84440D7
:1016C000DAF8444004F480440394039C22F00304B9
:1016D00004F1804404F59C3402F0030CD4F808E0D3
:1016E0000F264FEA8C0C06FA0CFC2EEA0C0CC4F800
:1016F00008C0144CEE02A4686FEA070C79D404EA1F
:101700000C04104EB460F468AE0270D404EA0C0409
:101710000C4EF4607468AE0367D40CEA0404094EFE
:10172000ED03746034685ED40CEA0404054D2C604B
:101730008DE700BF00000240003802400004024074
:1017400000080240003C0140000C02400010024032
:101750000014024000180240001C0240D0F808E0CB
:10176000CE6808EA0E0E06FA04FC4CEA0E0CC0F82D
:1017700008C0D0F804E0C5F3001C2EEA070E0CFAEE
:1017800002FC4CEA0E0CC0F804C0D0F80CE08E68E5
:1017900008EA0E0E06FA04FC4CEA0E0CB9F1020F30
:1017A000C0F80CC07FF478AF4FEAD20C4FEA8C0C33
:1017B0000CF1804C0CF5003C02F0070EDCF82060C8
:1017C00000960E694FEA8E0E06FA0EF601960F2667
:1017D00006FA0EFE009E26EA0E0E019E46EA0E0E48
:1017E000CCF820E058E73C43A0E73C4397E73C4374
:1017F0008EE73C4385E74FF0020C0CFA07F748EA06
:101800000705FEE64FF0030C0CFA07F748EA070558
:10181000F7E64FF0060C0CFA07F748EA0705F0E682
:101820004FF0040C0CFA07F748EA0705E9E64FF019
:10183000050C0CFA07F748EA0705E2E602B90904C5
:1018400081617047436901EA030221EA030141EA29
:1018500002418161704700BF002800F06A812DE9D4
:10186000F0410368DD0782B004462FD59F498A689E
:1018700002F00C02042A00F0EF808A6802F00C02E9
:10188000082A00F0E5806368B3F5803F00F0EE8041
:10189000B3F5A02F00F07981944D2A6822F48032AC
:1018A0002A602A6822F480222A60002B40F0E3801C
:1018B000FFF704F8064605E0FFF700F8801B6428F0
:1018C00000F203812B689F03F6D423689D0728D577
:1018D000864A916811F00C0F00F09280916801F037
:1018E0000C01082900F08880E368002B00F01081CB
:1018F0007F4B7E4E01221A60FEF7E0FF054605E0B1
:10190000FEF7DCFF401B022800F2DF8033689F07F0
:10191000F6D53368226923F0F80343EAC203336043
:1019200023681A0753D45D0730D5704A136C13F03F
:10193000805300F0818000256E4E3368D80540F159
:10194000B480A368012B00F0C480052B00F02D812A
:10195000664E326F22F001023267326F22F00402CB
:101960003267002B40F0BA80FEF7A8FF41F28838BA
:10197000074605E0FEF7A2FFC01B404500F2A58028
:10198000336F9B07F6D4002D40F00981A369D3B1D2
:10199000564DAA6802F00C02082A00F0CC80022BF7
:1019A000534B4FF000021A6600F00981FEF786FFE4
:1019B000044605E0FEF782FF001B022800F2858046
:1019C0002B689B01F6D4002002B0BDE8F08163696A
:1019D0000BB3474B454E0122C3F8802EFEF76EFF36
:1019E000054604E0FEF76AFF401B02286DD8736FBE
:1019F0009B07F7D5236896E7526851023FF574AF0D
:101A00003A4A1268920744D5E268012A41D001207F
:101A100002B0BDE8F081364A344EC2F8803EFEF78F
:101A20004DFF054604E0FEF749FF401B02284CD855
:101A3000736F9F07F7D4DDE70193136C43F0805376
:101A40001364136C03F080530193019B012573E72A
:101A50004A6851027FF517AF244A126892037FF556
:101A600035AF6268002A7FF431AFD0E71F4A1368B0
:101A700043F480331360FEF721FF1C4E054604E05B
:101A8000FEF71CFF401B64281FD833689B03F7D563
:101A90001BE7164920690A6822F0F80242EAC002F0
:101AA0000A601A077FF53FAF91E7336843F480730C
:101AB0003360FEF703FF07463368D9053FF541AFB2
:101AC000FEF7FCFEC01B0228F6D9032002B0BDE8D9
:101AD000F081064A136F43F001031367FEF7EEFE31
:101AE000024F064641F288380BE000BF0038024042
:101AF0000000474200700040FEF7E0FE801B4045BA
:101B0000E3D83B6F9A07F7D5002D3FF43FAF46E08F
:101B1000424A434E1360FEF7D1FE054604E0FEF74D
:101B2000CDFE401B0228D0D833689907F7D423682C
:101B3000F7E601207047012B3FF469AF6B68E2695B
:101B400003F4800191427FF462AF226A03F03F0107
:101B500091427FF45CAF616A47F6C0721A40B2EB03
:101B6000811F7FF454AFA26A520803F44031013A56
:101B7000B1EB024F7FF44BAFE26A03F07063B3EB5B
:101B8000026F14BF012000201EE7254B1A6842F4A3
:101B900080221A601A6842F480321A606BE7204A89
:101BA000136C23F080531364F0E61D4B1A6F42F060
:101BB00004021A671A6F42F001021A678EE7FEF7F5
:101BC0007DFE064605E0FEF779FE801B02283FF603
:101BD0007CAF2B689901F6D4D4E90731626A0B43D4
:101BE00043EA8213D4E90A2052080C4943EA00630D
:101BF000013A43EA024301226B600A66FEF75EFE89
:101C0000074D044605E0FEF759FE001B02283FF68B
:101C10005CAF2B689A01F6D5D5E600BF00004742BD
:101C200000380240164908B58B6803F00C03042BFA
:101C30001BD0082B01D0134808BD4A684B6849687F
:101C400013F4800302F03F0211D10E48C1F3881152
:101C5000A1FB0001FEF7ECFA094B5B68C3F30143FB
:101C600001335B00B0FBF3F008BD074808BD064830
:101C7000C1F388110023A1FB0001FEF7D9FAEBE7BD
:101C8000003802400024F400001BB700002800F0D8
:101C90008780484A136803F007038B422DE9F0411F
:101CA0000D46044609D2CBB21370136803F0070344
:101CB0008B4202D00120BDE8F0812368980714D53B
:101CC000590704D53C498A6842F4E0528A601A07F1
:101CD00004D539498A6842F460428A603649A0686E
:101CE0008A6822F0F00202438A60DF0721D5626829
:101CF000012A57D0931E012B2F4B1B684DD99907F2
:101D0000D8D52D4EB36823F003031343B360FEF719
:101D1000D5FD41F28838074604E0FEF7CFFDC01B31
:101D2000404544D8B368626803F00C03B3EB820FFC
:101D3000F3D1204A136803F00703AB4206D9EBB294
:101D40001370136803F00703AB42B3D123685A073B
:101D500006D51949E0688A6822F4E05202438A6095
:101D60001B0707D5144A2169936823F4604343EAAB
:101D7000C1039360FFF756FF0F4A104C9268104959
:101D8000C2F303120346A25C0E48D34000680B6006
:101D9000FEF74AFD0020BDE8F0819801B1D489E743
:101DA00001207047044B1B689E03AAD482E70320DE
:101DB00081E700BF003C0240003802405831000873
:101DC0000000002008000020044B05499B68054ADC
:101DD0000868C3F38223D35CD840704700380240C0
:101DE0000000002050310008044B05499B68054A5B
:101DF0000868C3F34233D35CD840704700380240D0
:101E00000000002050310008002800F0878038B51D
:101E100090F84130044603F0FF02002B79D023688C
:101E2000E068242284F84120DA6822F40052DA6063
:101E30001969A26821F440510143206919610243E4
:101E40006069D9680243E06921F4164121F00C0170
:101E500002430A43DA605A69A069314922F44072A8
:101E600002438B425A6136D02E4A934233D0FFF759
:101E7000ABFFE2691921B2F5004FD4E90053A0FB92
:101E800001012BD09A009B0FFEF7D2F9264AA2FB44
:101E900000135B09642101FB130000013230A2FB37
:101EA00000201B0103EB5013AB602A6922F490421F
:101EB0002A616A6922F02A026A61EA680023202105
:101EC00042F40052EA60636484F8411084F84210DE
:101ED0001846636338BDFFF787FFCAE7DA184FF08B
:101EE00000035B41FEF7A4F90F4AA2FB0031490948
:101EF000642303FB1103DB003233A2FB0323C3F390
:101F000042121B0902EB011203F4F8731344AB6095
:101F1000CBE780F84020FEF711FC80E701207047F6
:101F200000100140001401401F85EB512DE9F843DA
:101F3000044690F8410020285ED10F4609B11546AD
:101F400012B90120BDE8F88398464FF0000921231B
:101F5000C4F8449084F84130FEF7B0FCA368A5842F
:101F6000B3F5805F0646E58449D0E28C236892B2DF
:101F7000002A55D0B8F1FF3F21D0B8F1000F44D06E
:101F80001A68150609D4FEF799FC801B804541D3D9
:101F90002368DA681A681506F5D5BFB117F8012B62
:101FA0005A60E28C013A92B2E284E28C92B2002A48
:101FB00036D0B8F1FF3FE0D11A681106EED41A68A6
:101FC0001006EAD41A681006F9D5E6E739F8022BAC
:101FD000C2F308025A60E28C013A92B2E284E28CC7
:101FE00092B2EAB1B8F1FF3FC7D11A681206EDD438
:101FF0001A681006E6D5D0E70220BDE8F883236909
:10200000002BB2D1B9461F46AFE71A681006C4D4F8
:10201000FEF754FC202384F841300320BDE8F88308
:10202000B8F1FF3F14D0B8F1000F18D01B68590663
:1020300009D4FEF743FC831B9845EBD32368DA6889
:102040001B685906F5D5202384F84130002079E734
:102050001A685206F7D41A685206F4D4F8E71B68D7
:102060005B06D5D5EFE700BF704700BF704700BFE4
:1020700008B5806B0023C385C384FFF7F7FF08BD55
:10208000704700BF83680168826AB3F5805F42D001
:10209000002B39D04B6803F07F031370826A013242
:1020A000C38D8262013B9BB2C385002B32D100B548
:1020B0000268D16821F0200183B0D160D16821F499
:1020C0008071D16051694FF0200C21F00101516104
:1020D00080F842C04363016B012925D1036302F1FB
:1020E0000C0353E8003F23F0100302F10C0C4CE802
:1020F00000310029F3D11368DB061AD4818DFFF774
:10210000BFFF03B05DF804FB0369002BC2D14B682D
:10211000DBB2C2E770470369002BF8D14B68C3F309
:10212000080322F8023BBBE7FEF75AFA03B05DF85A
:1021300004FB01911368019353680193019BDDE750
:1021400030B503681A68DD68596912F00F0F83B063
:10215000044613D1910602D5A90600F1BC80216B7B
:10216000012945D0100602D5290600F1BE8052068D
:1021700002D5680600F1D88003B030BD11F001012E
:1021800040F0938015F4907FE9D0D0070CD5E80596
:1021900040F1F480606C40F001006064500740F151
:1021A000D880002940F08580900740F1D880100742
:1021B00000F1E180616C0029DED0910609D5AA0604
:1021C00007D594F84220222A03D12046FFF75AFF70
:1021D00023685A69616C02F0400201F0080152EA7A
:1021E000010540F00A812046FFF740FF6564C3E720
:1021F000D006B7D5E906B5D5002201921A6801923A
:102200005A680192019A5A69550640F1BB80E06B09
:102210000268526892B2002AAED0A18D9142ABD929
:10222000E285C269B2F5807F36D003F10C0252E834
:10223000002F22F4807203F10C0545E800210029EB
:10224000F3D103F1140252E8002F22F0010203F14E
:10225000140545E800210029F3D103F1140252E8E6
:10226000002F22F0400203F1140545E80021002967
:10227000F3D1202284F84220216303F10C0252E8BA
:10228000002F22F0100203F10C0545E8002100297F
:10229000F3D1FEF7C1FFA18D02236363E38DC91A59
:1022A000204689B2FFF7ECFE66E7D0074CD4500712
:1022B00045D5616C41F002016164910741D5616CC3
:1022C00041F00401616411077FF574AF616C41F066
:1022D000080161646EE790F84230222B7FF44CAF26
:1022E00003B0BDE83040FFF7CDBE94F84120212A6D
:1022F0007FF442AFA168226AB1F5805F00F0CD8023
:10230000511C216212785A60E28C013A92B2E28446
:10231000002A7FF431AFDA6822F08002DA60DA68EE
:1023200042F04002DA6027E7DA68202122F040021A
:10233000DA60204684F84110FFF796FE1CE791070B
:10234000BDD41107C2D435E7E8053FF523AF5007E8
:10235000AFD4900703D500293FF429AFAFE71007AA
:102360007FF528AF05F020000843AFD1626C002A4A
:102370007FF42FAF00E7A906A8D4F7E750073FF591
:1023800013AFE6E7E18DE28D92B289B2002A3FF405
:10239000F3AEA28D511A89B200293FF4EDAE03F1DC
:1023A0000C0252E8002F22F4907203F10C0545E86C
:1023B00000200028F3D103F1140252E8002F22F08C
:1023C000010203F1140545E800200028F3D1202282
:1023D00084F84220206303F10C0252E8002F22F01F
:1023E000100203F10C0545E800200028F3D1022378
:1023F00063632046FFF744FEBEE6194601F10C0276
:1024000052E8002F22F490720C3141E80020194666
:102410000028F3D103F1140252E8002F22F0010248
:1024200003F1140040E800210029F3D1226B012AB6
:1024300022D00022202184F8421022635A695506D6
:1024400027D503F1140252E8002F22F0400203F1D5
:10245000140040E800210029F3D1E06BC8B1144B0F
:102460000365FEF723FF00283FF486AEE06B036DA3
:1024700003B0BDE83040184703F10C0252E8002FCA
:1024800022F0100203F10C0040E800210029F3D1F2
:10249000CFE72046FFF7EAFD6EE6216900297FF4C9
:1024A0002FAF32F8021BC1F30801596022622BE7FB
:1024B00071200008DFF834D0FEF71AF90C480D49F6
:1024C0000D4A002302E0D458C4500433C4188C428F
:1024D000F9D30A4A0A4C002301E013600432A242F5
:1024E000FBD300F033F8FDF7F5FF70470000022042
:1024F000000000205C000020B431000860000020D3
:10250000E0020020FEE700000EB410B59DB01FAB46
:10251000029006906FF000410A48079104910A4921
:1025200053F8042B0591002402A9006801931B9421
:1025300000F086F9029B1C701DB0BDE8104003B08E
:10254000704700BF0C0000200802FFFF70B50D4D62
:102550000D4C641BA4100026A64209D10B4D0C4C57
:1025600000F0D0FD641BA4100026A64205D170BD6A
:1025700055F8043B98470136EEE755F8043B984779
:102580000136F2E7AC310008AC310008AC3100088C
:10259000B03100087047704738B50546002941D072
:1025A00051F8043C0C1F002BB8BFE41800F0E0F811
:1025B0001D4A136833B9636014602846BDE838408B
:1025C00000F0DCB8A34208D9206821188B4201BF73
:1025D00019685B6809182160EDE71A465B680BB162
:1025E000A342FAD911685018A0420BD120680144C7
:1025F000501883421160E0D118685B68536008444A
:102600001060DAE702D90C232B60D6E72068211886
:102610008B4204BF19685B68636004BF09182160BE
:102620005460CAE738BD00BFD802002070B50F4E15
:102630000C463168054611B900F0A4FB3060214614
:10264000284600F09FFB431C03D14FF0FF34204687
:1026500070BDC41C24F00304A042F8D0211A2846FF
:1026600000F090FB0130F2D1EFE700BFD402002070
:102670002DE9F843CD1C25F0030508350C2D38BF96
:102680000C25002D064601DBA94204D90C2333603A
:102690000020BDE8F883DFF8D48000F069F8D8F8AE
:1026A00000301C4644BB29463046FFF7BFFF431CA1
:1026B000044658D1D8F800402746002F43D1002CBB
:1026C0004BD023683946304604EB030900F05AFB2F
:1026D000814542D121686D1A29463046FFF7A6FF91
:1026E00001303AD023682B442360D8F800305A6870
:1026F00062BBC8F800700FE02268521B20D40B2A7E
:1027000017D96119A342256018BF5960636808BFD3
:10271000C8F8001062514B60304600F02FF804F109
:102720000B00231D20F00700C21A1CBF1B1AA35068
:10273000AFE76268A3420CBFC8F800205A60EBE71D
:1027400023466468AEE73C467F68B6E71A465B6896
:10275000A342FBD100235360DEE70C2333603046F5
:1027600000F00CF894E70560D6E700BFD80200201F
:102770000148FFF70FBF00BFD00200200148FFF75C
:102780000ABF00BFD00200202DE9F0478E681F4627
:10279000BE420B6882460C4690462DD8B1F90C20FB
:1027A00012F4906F26D06569096905EB4505A3EB26
:1027B000010905EBD5757B1C4B446D109D4238BF5C
:1027C0001D46530527D52946FFF752FF064660B33D
:1027D00021694A4600F0E6FAA38923F4906343F0A6
:1027E0008003A381266165614E44A5EB090526603F
:1027F000A5603E46BE4200D93E462068324641466C
:1028000000F0A6FAA3689B1BA360236833442360EF
:102810000020BDE8F0872A4600F0D2FA06460028DC
:10282000E0D121695046FFF7B7FE0C23CAF800300B
:10283000A38943F04003A3814FF0FF30E9E7000094
:102840002DE9F04F98468B891B069DB007460D4633
:10285000144610D50B6973B94021FFF709FF2860B2
:10286000286130B90C233B604FF0FF301DB0BDE84C
:10287000F08F40236B610023099320238DF82930CA
:10288000CDF80C803023DFF89C818DF82A304FF092
:10289000010923469A4613F8012B0AB1252AF9D1DA
:1028A000BAEB040B0BD05B46224629463846FFF7AD
:1028B0006BFF013000F0A780099A5A4409929AF8F8
:1028C0000030002B00F09F8000234FF0FF32CDE955
:1028D00005230AF1010A049307938DF853301A93E4
:1028E0005446052214F8011B4E48FDF751FC049A8A
:1028F000D8B9D00644BF20238DF85330110744BF08
:102900002B238DF853309AF800302A2B15D0079AD4
:10291000544600204FF00A0C214611F8013B303B91
:10292000092B4BD9B0B1079214E0A0EB080309FAC8
:1029300003F313430493A246D2E7039B191D1B68BC
:102940000391002BBBBF5B4242F002020793079347
:10295000B8BF049223782E2B0AD163782A2B32D168
:10296000039B1A1D1B68039243EAE3730234059329
:10297000DFF8C0A0217803225046FDF709FC38B1EA
:10298000049BA0EB0A0040228240134301340493CD
:1029900014F8011B24488DF828100622FDF7F8FBD7
:1029A000002836D0214B1BBB039B073323F00703C2
:1029B00008330393099B334409936AE70CFB023203
:1029C0000C460120A8E700230134059319464FF077
:1029D0000A0C204610F8012B303A092A03D9002BA3
:1029E000C6D00591C4E70CFB012104460123F0E7A2
:1029F00003AB00932A460E4B04A93846AFF3008080
:102A0000421C0646D6D1AB895B063FF52DAF09982F
:102A10002CE703AB00932A46054B04A9384600F087
:102A200079F8EDE7703100087A3100080000000005
:102A300089270008763100082DE9F04716469846A8
:102A40008A680B69DDF820909342B8BF1346336063
:102A500091F8432007460C460AB1013333602368DE
:102A6000990642BF336802333360256815F00605C6
:102A700006D104F1190AE36832689B1AAB4226DCDE
:102A800094F843302268003B18BF012392062BD4F0
:102A900004F1430241463846C84701301ED023683E
:102AA000226903F00603042B02BFE5683368ED1AC0
:102AB000A3680CBF25EAE57500259342C4BF9B1AA5
:102AC000ED1800261A34B5421AD1002008E001237F
:102AD000524641463846C847013003D14FF0FF30D7
:102AE000BDE8F0870135C6E7E1185A1C302081F8AF
:102AF0004300224494F8451082F843100233C7E79C
:102B00000123224641463846C8470130E6D0013607
:102B1000D9E700002DE9FF470F7E0C9E782F9146E4
:102B200080460C469A4601F1430207D8622F0AD824
:102B3000002F00F0D180582F00F0B88004F1420639
:102B400084F842703AE0A7F16303152BF6D801A18F
:102B500051F823F0AD2B0008C12B00083D2B0008D5
:102B60003D2B00083D2B00083D2B0008C12B000821
:102B70003D2B00083D2B00083D2B00083D2B000895
:102B8000BF2C0008EB2B0008792C00083D2B000817
:102B90003D2B0008E12C00083D2B0008EB2B000822
:102BA0003D2B00083D2B0008812C000833681A1DBE
:102BB0001B68326004F1420684F8423001239CE035
:102BC00033682068191D3160060601D51D6803E0D1
:102BD0004506FBD5B3F90050002D03DA2D236D42D5
:102BE00084F8433058480A2311E021683368080606
:102BF00053F8045B02D4490648BFADB26F2F524868
:102C0000336014BF0A230823002184F84310666848
:102C1000A660002E05DB21682E4321F0040121600F
:102C20004BD01646B5FBF3F103FB1157C75D06F811
:102C3000017D2F46BB420D46F4D9082B0BD12368EA
:102C4000DF0708D5236961689942DEBF302306F8A3
:102C5000013C06F1FF36921B2261CDF800A04B46E5
:102C600003AA21464046FFF7E7FE01304AD14FF064
:102C7000FF3004B0BDE8F087236843F020032360F1
:102C80003248782784F84570236831681F0651F868
:102C9000045B02D45F0648BFADB23160D90744BFC0
:102CA00043F0200323601DB11023ADE72648E9E778
:102CB000236823F020032360F6E71646BDE7336858
:102CC00025686169181D30602E061B6801D51960E2
:102CD00002E06806FBD51980002323611646BCE795
:102CE00033681A1D32601E68626800213046FDF7A5
:102CF0004FFA08B1801B606063682361002384F889
:102D00004330AAE72369324649464046D04701305E
:102D1000ADD023689B0713D4E068039B9842B8BFEB
:102D20001846A6E70123324649464046D0470130BF
:102D30009DD00135E36803995B1AAB42F2DCEBE707
:102D4000002504F11906F5E78131000892310008E9
:102D5000884210B501EB020402D98442234607D809
:102D6000431EA14208D011F8012B03F8012FF8E708
:102D7000024401468A4200D110BD13F8014D02F809
:102D8000014DF7E738B5064D0023044608462B6091
:102D900000F04CF8431C02D12B6803B1236038BD0E
:102DA000CC0200200A44914200F1FF3300D1704769
:102DB00010B511F8014B03F8014F9142F9D110BD44
:102DC0002DE9F041074614460D4621B9BDE8F04112
:102DD0001146FFF74DBC2AB9FFF7DEFB2546284612
:102DE000BDE8F08100F01AF88442064602D8B4EB40
:102DF000500FF4D821463846FFF73AFC804608B910
:102E00004546ECE7B4422246294628BF3246FFF742
:102E1000C9FF29463846FFF7BFFBF1E751F8043CEC
:102E2000181F002BBCBF0B58C0187047044A054937
:102E30001368002B08BF0B461844106018467047F3
:102E4000DC020020E00200202DE9F0478C468E468F
:102E5000089E154604461946002B40F0D080724566
:102E600047D9B2FA82F74FB1C7F120030EFA07FC37
:102E700020FA03F3BD4043EA0C0CBC404FEA154E68
:102E8000A8B2BCFBFEF8230C0EFB18CC08FB00F923
:102E900043EA0C43994528D9EB1808F1FF3204D2D4
:102EA000994502D9A8F102022B44A3EB0903A4B26D
:102EB000B3FBFEFC0EFB1C330CFB00F044EA0344A6
:102EC000A04214D92C190CF1FF3304D2A04202D92C
:102ED000ACF102032C44241A43EA02401EB1FC4028
:102EE000002334607360BDE8F0874246DDE7634647
:102EF000F1E7002A79D0B2FA82F3002B3FD01946CD
:102F0000C1F1200302FA01F52EFA03F20EFA01FED6
:102F100020FA03F343EA0E034FEA154E00FA01F4D8
:102F2000B2FBFEFCAFB20EFB1C201A0C0CFB07F828
:102F300042EA004290455AD9AA180CF1FF3004D257
:102F4000904502D9ACF102002A44A2EB08029BB2E0
:102F5000B2FBFEFC0EFB1C220CFB07F743EA02430C
:102F60009F4246D9EB180CF1FF3204D29F4202D99E
:102F7000ACF102022B44DB1B42EA004202E0AEEB62
:102F8000020301224FEA154EAFB2B3FBFEFC200C48
:102F90000EFB1C330CFB07F840EA034398452AD983
:102FA000EB180CF1FF3004D2984502D9ACF10200C5
:102FB0002B44A3EB0803A4B2B3FBFEFC0EFB1C33B3
:102FC0000CFB07F744EA0344A74216D92C190CF16D
:102FD000FF3304D2A74202D9ACF102032C44E41B14
:102FE00043EA00400F46114678E71F2188E7604614
:102FF000ABE76246BFE76046DBE76346EFE7734552
:1030000006D916B9002108466DE7C6E9000EF9E7B2
:10301000B3FA83F787B9734501D3824207D8841A7C
:103020006EEB030301209C461EB900215BE7384686
:10303000FAE7C6E9004CF8E7C7F1200CBB4022FADA
:103040000CF51D4320FA0CF12EFA0CF30EFA07FED4
:1030500041EA0E014FEA154900FA07F4B3FBF9F80B
:103060001FFA85FE09FB18300B0C08FB0EFA43EA29
:1030700000439A4502FA07F240D9EB1808F1FF30F5
:1030800004D29A4502D9A8F102002B44A3EB0A030B
:1030900089B2B3FBF9F809FB183308FB0EFE41EACD
:1030A00003418E452CD9691808F1FF3304D28E45AF
:1030B00002D9A8F10203294443EA0040A0FB029888
:1030C000A1EB0E014145CE46434602D306D14C4505
:1030D00004D2B9EB020E68EB05030138002EA4D030
:1030E000B4EB0E0261EB030101FA0CFC22FA07F3C8
:1030F0004CEA0303F940C6E9003196E74046C5E7CC
:103100004346D9E7F8B500BFF8BC08BC9E467047F7
:0C311000F8B500BFF8BC08BC9E46704734
:10311C0048454C4C4F0A000043414E3A20616E67C3
:10312C006C653A2025642C2073706565643A202503
:10313C00642C20746F727175653A2025640A0A0A32
:10314C000000000000000000010203040000000069
:10315C00000000000102030406070809000610160F
:10316C0000061016232D302B2000686C4C00656671
:10317C0067454647003031323334353637383941BC
:10318C0042434445460030313233343536373839D2
:08319C006162636465660000D6
:0831A400ECCFFF7F01000000E9
:0431AC00890200088C
:0431B00065020008AC
:1031B4000024F400010000001000000010000020B2
:1031C4000000000094010020FC01002064020020A3
:1031D40000000000000000000000000000000000EB
:1031E40000000000000000000000000000000000DB
:1031F40000000000000000000000000000000000CB
:0C320400000000000000000000000000BE
:04000005080024B516
:00000001FF
