:020000040800F2
:1000000000000220C91800087104000873040008E9
:100010007504000877040008790400080000000057
:100020000000000000000000000000007B04000849
:100030007D040008000000007F040008810400081F
:1000400019190008191900081919000819190008C8
:1000500019190008191900081919000819190008B8
:1000600019190008191900081919000819190008A8
:100070001919000819190008191900081919000898
:100080001919000819190008191900081919000888
:100090001919000819190008191900081919000878
:1000A0001919000819190008191900081919000868
:1000B0001919000819190008191900081919000858
:1000C0001919000819190008191900081919000848
:1000D00019190008890400081919000819190008DD
:1000E0001919000819190008191900081919000828
:1000F0001919000819190008191900081919000818
:100100001919000819190008191900081919000807
:1001100019190008191900081919000819190008F7
:1001200019190008191900081919000819190008E7
:1001300019190008191900081919000819190008D7
:1001400019190008191900081919000819190008C7
:10015000191900081919000899040008191900084C
:1001600019190008191900081919000819190008A7
:1001700019190008191900081919000800000000D1
:08018000191900081919000803
:1001880053B94AB9002908BF00281CBF4FF0FF31F6
:100198004FF0FF3000F00CB8ADF1080C6DE904CE5B
:1001A80001F0E4FBDDF804E0DDE9022304B0704768
:1001B800704700BF10B5054C237833B9044B13B111
:1001C8000448AFF300800123237010BD0C00002009
:1001D80000000000301C000808B5034B1BB10349A0
:1001E8000348AFF3008008BD0000000010000020A5
:1001F800301C000872B6FEE710B594B008AC302287
:100208000021204601F085FB002303930493059306
:10021800069307930193204A116C41F080511164B1
:10022800126C02F080520192019A02931B4B1A68D9
:1002380042F480421A601B6803F480430293029BD5
:10024800012308934FF48033099302230E934FF44C
:1002580080020F9206221092A82211921293042370
:100268001393204600F01CFC90B90F23039302233C
:100278000493002305934FF4A05306934FF480533F
:100288000793052103A800F05BFE18B914B010BD50
:10029800FFF7B0FFFFF7AEFF0038024000700040E4
:1002A80008B501F0D7FAFFF7A7FF00F005F800F04E
:1002B80029F800F041F8FEE784B000220192104BC3
:1002C800196B41F002011963196B01F002010191E8
:1002D80001990292196B41F001011963196B01F040
:1002E80001010291029903921A6B42F080021A638B
:1002F8001B6B03F080030393039B04B0704700BF9C
:100308000038024000B583B000210191094B1A6BF7
:1003180042F480021A631B6B03F480030193019B70
:100328000A46462001F048FA462001F055FA03B083
:100338005DF804FB0038024008B50A480A4B036020
:100348004FF49643436000238360C36003610C222B
:1003580042618361C36100F0A5F900B908BDFFF7E8
:1003680049FFFBE788000020001001402DE9F04319
:1003780089B00023039304930593069307930268B7
:1003880003F1804303F588339A4202D009B0BDE8EF
:10039800F08304460025009503F594335A6C42F027
:1003A80010025A645A6C02F010020092009A0195E9
:1003B8001A6B42F002021A631A6B02F002020192EF
:1003C800019A02951A6B42F001021A631B6B03F043
:1003D80001030293029B802303934FF00209CDF897
:1003E80010904FF00308CDF818800727079703AE41
:1003F8003146194800F07AFE4FF400730393CDF8A4
:1004080010900595CDF8188007973146134800F0ED
:100418006DFE1348134B03604FF0006343604023A5
:100428008360C5604FF48063036145618561C56180
:100438000562456200F0BCFF58B9094BA3639C6391
:1004480000221146252001F0B7F9252001F0C4F952
:100458009CE7FFF7CFFEF0E70004024000000240EF
:1004680028000020B8640240FEE7FEE7FEE7FEE74A
:10047800FEE770477047704708B501F005FA08BDF8
:1004880008B5024800F0CAF908BD00BF880000207E
:1004980008B5024801F04EF808BD00BF280000204A
:1004A80082B0002100910B4B5A6C42F480425A648E
:1004B8005A6C02F480420092009A01911A6C42F040
:1004C80080521A641B6C03F080530193019B02B0A5
:1004D800704700BF00380240026802F10C0353E87D
:1004E800003F23F490730C3242E800310029F3D125
:1004F800026802F1140353E8003F23F001031432A9
:1005080042E800310029F3D1036B012B05D02023E9
:1005180080F84230002303637047026802F10C033D
:1005280053E8003F23F010030C3242E80031002961
:10053800F3D1ECE790F84130212B01D0022070472D
:100548008368B3F5805F17D0036A5A1C02621A7871
:1005580003685A60C38C9BB2013B9BB2C3844BB9FE
:100568000268D36823F08003D3600268D36843F03D
:100578004003D360002070470369002BE4D1036A6D
:100588001B880268C3F308035360036A02330362DB
:10059800E0E7000010B504460268136923F44053ED
:1005A800C1680B431361836802691A4343691A439C
:1005B800C3691A430168CB6823F4164323F00C037C
:1005C8001343CB600268536923F4407381690B437A
:1005D80053610368314A934206D002F58062934220
:1005E80002D000F063FD01E000F070FDE369B3F5AF
:1005F800004F29D00021031849411B1841F100017F
:10060800C90041EA5371DB00181863684FEA830296
:100618004FEA937341F10001FFF7B2FD204AA2FBB4
:1006280000314909642303FB11031B013233A2FB88
:1006380003235B0903F0F00202EB011203F00F033E
:10064800216813448B6010BD0023021843EB03019B
:10065800121841F10001C90041EA5271D200101884
:1006680041F10001626892185B41FFF789FD0C4A6D
:10067800A2FB00314909642303FB1103DB00323379
:10068800A2FB03235B095A0002F4F87202EB011281
:1006980003F00703216813448B60D4E7001001407E
:1006A8001F85EB5160B310B5044690F8413013B381
:1006B800242384F841302268D36823F40053D3609C
:1006C8002046FFF767FF2268136923F490431361FC
:1006D8002268536923F02A0353612268D36843F4DC
:1006E8000053D36000206064202384F8413084F8EC
:1006F8004230606310BD80F84030FFF737FED7E71F
:1007080001207047704708B50168CA6822F04002A6
:10071800CA60202280F84120FFF7F4FF002008BDBE
:100728007047704708B5806B0023C385C384FFF703
:10073800F8FF08BD704790F84230222B69D18368D2
:10074800B3F5805F4FD0826AB3F5805F04D0002B89
:1007580056D10369002B53D103685B681370836A11
:1007680001338362C38D9BB2013B9BB2C385002BCF
:1007780051D100B583B00268D36823F02003D36059
:100788000268D36823F48073D3600268536923F046
:1007980001035361202380F8423000234363036B35
:1007A800012B33D100230363026802F10C0353E8E1
:1007B800003F23F010030C3242E800310029F3D146
:1007C80003681A6812F0100F06D0002201921A6806
:1007D80001925B680193019B818DFFF7ABFF0020BD
:1007E80003B05DF804FB0269002AACD1826A036891
:1007F8005B68C3F308031380836A02338362B1E73B
:1008080003685B6803F07F031370A8E7FFF788FFAE
:10081800E5E70220704700207047000010B582B05D
:10082800044602681368D068516913F00F0F09D1A4
:1008380013F0200F0CD010F0200F09D02046FFF73E
:100848007AFF16E011F0010115D110F4907F12D152
:10085800216B012979D013F0800F03D010F0800F9D
:1008680040F0148113F0400F03D010F0400F40F017
:10087800118102B010BD13F0010F06D010F4807F73
:1008880003D0626C42F00102626413F0040F04D0DA
:1008980019B1626C42F00202626413F0020F04D0D4
:1008A80019B1626C42F00402626413F0080F07D0B9
:1008B80010F0200F00D119B1626C42F00802626496
:1008C800626C002AD5D013F0200F02D010F0200F50
:1008D80029D123685B6903F04003626C12F0080FAA
:1008E80000D163B32046FFF7F7FD23685B6913F077
:1008F800400F20D0226802F1140353E8003F23F090
:100908004003143242E800310029F3D1E36B73B19C
:10091800624A1A65E06B00F0FAFD0028A9D0E06B86
:10092800036D9847A5E72046FFF705FFD1E7204666
:10093800FFF7F7FE9DE72046FFF7F3FE99E720460D
:10094800FFF7EFFE0023636493E713F0100F82D0E4
:1009580010F0100F3FF47FAF002301931368019349
:1009680053680193019B536913F0400F52D0E26B17
:1009780013685B689BB2002B3FF47BAFA18D994253
:100988007FF677AFE385D369B3F5807F37D02268E8
:1009980002F10C0353E8003F23F480730C3242E861
:1009A80000310029F3D1226802F1140353E8003F13
:1009B80023F00103143242E800310029F3D1226800
:1009C80002F1140353E8003F23F04003143242E8D5
:1009D80000310029F3D1202384F842300023236317
:1009E800226802F10C0353E8003F23F010030C3295
:1009F80042E800310029F3D1E06B00F03FFD02230B
:100A08006363A18DE38D9BB2C91A89B22046FFF7B3
:100A180091FE2EE7A18DE38D9BB2C91A89B2E38DB1
:100A28009BB2002B3FF425AF00293FF422AF226888
:100A380002F10C0353E8003F23F490730C3242E8B0
:100A480000300028F3D1226802F1140353E8003F74
:100A580023F00103143242E800300028F3D12023A8
:100A680084F8423000232363226802F10C0353E820
:100A7800003F23F010030C3242E800300028F3D185
:100A8800022363632046FFF755FEF2E62046FFF790
:100A980051FDEEE62046FFF736FEEAE62D07000890
:100AA800002800F0E08170B582B00446036813F0B6
:100AB800010F3BD09F4B9B6803F00C03042B2CD0F9
:100AC8009C4B9B6803F00C03082B21D06368B3F59B
:100AD800803F4FD0B3F5A02F52D0964B1A6822F41E
:100AE80080321A601A6822F480221A606368002B28
:100AF80050D000F0D5FE05468E4B1B6813F4003F1E
:100B080014D100F0CDFE401B6428F5D90320B1E1D3
:100B1800884B5B6813F4800FD8D0864B1B6813F49E
:100B2800003F03D06368002B00F09F81236813F017
:100B3800020F54D07F4B9B6813F00C0F3ED07D4BB7
:100B48009B6803F00C03082B33D0E368002B68D0B4
:100B5800794B01221A6000F0A3FE0546754B1B680D
:100B680013F0020F54D100F09BFE401B0228F5D968
:100B780003207FE16F4A136843F480331360B5E7BD
:100B88006C4B1A6842F480221A601A6842F4803268
:100B98001A60ABE700F084FE0546664B1B6813F449
:100BA800003FC3D000F07CFE401B6428F5D9032029
:100BB80060E1604B5B6813F4800FC6D15D4B1B6826
:100BC80013F0020F03D0E368012B40F05081594A1B
:100BD800136823F0F803216943EAC103136023680B
:100BE80013F0080F42D063696BB3534B0122C3F86B
:100BF800802E00F055FE05464E4B5B6F13F0020F3A
:100C080034D100F04DFE401B0228F5D9032031E114
:100C1800484A136823F0F803216943EAC1031360C3
:100C2800DDE7454B00221A6000F03AFE0546414BCD
:100C38001B6813F0020FD2D000F032FE401B0228CE
:100C4800F5D9032016E13C4B0022C3F8802E00F0B2
:100C580027FE0546374B5B6F13F0020F06D000F0F6
:100C68001FFE401B0228F5D9032003E1236813F077
:100C7800040F77D02F4B1B6C13F0805F33D1002308
:100C880001932C4B1A6C42F080521A641B6C03F0CF
:100C980080530193019B0125284B1B6813F4807F27
:100CA80023D0A368012B34D0052B38D0214B1A6FE1
:100CB80022F001021A671A6F22F004021A67A36869
:100CC800002B3DD000F0ECFD06461A4B1B6F13F0CD
:100CD800020F46D100F0E4FD801B41F288339842B0
:100CE800F3D90320C6E00025D6E7144A136843F475
:100CF8008073136000F0D4FD0646104B1B6813F494
:100D0800807FCED100F0CCFD801B0228F5D90320CE
:100D1800B0E0084A136F43F001031367CFE7054BB0
:100D28001A6F42F004021A671A6F42F001021A673A
:100D3800C5E700BF0038024000004742007000408D
:100D480000F0AEFD0646524B1B6F13F0020F08D0A1
:100D580000F0A6FD801B41F288339842F3D90320A6
:100D680088E0EDB9A369002B00F08380484A9268B7
:100D780002F00C02082A51D0022B17D0454B002252
:100D88001A6600F08DFD0446414B1B6813F0007F86
:100D980042D000F085FD001B0228F5D9032069E048
:100DA8003B4A136C23F080531364DBE7394B002272
:100DB8001A6600F075FD0546354B1B6813F0007F79
:100DC80006D000F06DFD401B0228F5D9032051E044
:100DD800E369226A1343626A43EA8213A26A5208E9
:100DE800013A43EA0243E26A43EA0263284A53604B
:100DF800284B01221A6600F053FD0446244B1B6859
:100E080013F0007F06D100F04BFD001B0228F5D936
:100E180003202FE000202DE000202BE0012B2BD019
:100E28001B4B5B6803F48001E269914226D103F011
:100E38003F02216A8A4223D1616A47F6C0721A408A
:100E4800B2EB811F1ED103F44031A26A5208013A65
:100E5800B1EB024F18D103F07063E26AB3EB026F93
:100E680014D1002006E001207047012002E0012093
:100E780000E0002002B070BD0120FBE70120F9E787
:100E88000120F7E70120F5E70120F3E70120F1E76A
:100E9800003802400000474208B5264B9B6803F023
:100EA8000C03042B41D0082B41D1224B5A6802F085
:100EB8003F025B6813F4800F12D01E4B5968C1F3D0
:100EC80088111D480023A1FB0001FFF759F9194BB0
:100ED8005B68C3F3014301335B00B0FBF3F008BD6B
:100EE800144B5868C0F388104FEA401CBCEB000C48
:100EF8006EEB0E0E4FEA8E1343EA9C634FEA8C1199
:100F0800B1EB0C0163EB0E03DB0043EA5173C9003C
:100F180011EB000C43F10003990200234FEA8C20E7
:100F280041EA9C51FFF72CF9D1E70348D7E703487A
:100F3800D5E700BF00380240001BB7000024F400CA
:100F4800002800F09B8070B50D4604464F4B1B6887
:100F580003F007038B4208D2CBB24C4A13701368D4
:100F680003F007038B4240F08B80236813F0020FD5
:100F780017D013F0040F04D0454A936843F4E053A4
:100F88009360236813F0080F04D0414A936843F430
:100F9800604393603E4A936823F0F003A1680B43D3
:100FA8009360236813F0010F32D06368012B21D0BE
:100FB8009A1E012A25D9364A126812F0020F61D00A
:100FC80033498A6822F0030213438B6000F068FCFF
:100FD80006462F4B9B6803F00C036268B3EB820F45
:100FE80016D000F05DFC801B41F288339842F0D99E
:100FF800032042E0264A126812F4003FE0D10120A3
:101008003BE0234A126812F0007FD9D1012034E076
:101018001E4B1B6803F00703AB4207D9EAB21B4B10
:101028001A701B6803F00703AB422DD1236813F035
:10103800040F06D0164A936823F4E053E1680B4383
:101048009360236813F0080F07D0114A936823F4BC
:101058006043216943EAC1039360FFF71DFF0C4B0E
:101068009B68C3F303130B4AD35CD8400A4B186040
:101078000A4B186800F0C8FB002070BD01207047BB
:101088000120FAE70120F8E70120F6E7003C0240DA
:1010980000380240581C0008080000200400002006
:1010A800014B1868704700BF0800002008B5FFF71B
:1010B800F7FF044B9B68C3F38223034AD35CD840F1
:1010C80008BD00BF00380240501C000808B5FFF7F3
:1010D800E7FF044B9B68C3F34233034AD35CD84011
:1010E80008BD00BF00380240501C000800230F2B29
:1010F80000F2E98070B582B065E085684FEA430E7A
:10110800032404FA0EF425EA0405CC6804FA0EF464
:101118002C438460446824EA02044A68C2F300123B
:101128009A40224342605CE0DC08083450F82420EE
:1011380003F00705AD004FF00F0E0EFA05FE22EA88
:101148000E0E0A69AA4042EA0E0240F824205CE02A
:10115800072200E0002202FA0EF22A4302345A4D16
:1011680045F82420594A94686FEA0C0224EA0C05D1
:101178004E6816F4801F01D04CEA0405534CA56054
:10118800E46802EA04054E6816F4001F01D04CEA30
:1011980004054E4CE560646802EA04054E6816F4DE
:1011A800003F01D04CEA0405484C656024682240A1
:1011B8004D6815F4803F01D04CEA0402434C22608C
:1011C80001330F2B7DD801229A400C6804EA020CE7
:1011D80032EA0404F4D14C6804F00304013C012C05
:1011E8008BD94A6802F00302032A09D0C4685D005B
:1011F8000322AA4024EA02048A68AA402243C26061
:101208004A6802F00302022A8ED004684FEA430EAD
:10121800032202FA0EF224EA02044A6802F00302E8
:1012280002FA0EF2224302604A6812F4403FC7D025
:1012380000220192264A546C44F480445464526C4F
:1012480002F480420192019A9C08A51C1E4A52F899
:10125800255003F0030E4FEA8E0E0F2202FA0EF20B
:1012680025EA02051B4A90423FF474AF02F58062FA
:1012780090421AD002F58062904218D002F580623E
:10128800904216D002F58062904214D002F5806236
:10129800904212D002F58062904210D002F580622E
:1012A80090423FF455AF082255E7012253E7022246
:1012B80051E703224FE704224DE705224BE70622B8
:1012C80049E702B070BD704700380140003C01405A
:1012D800003802400000024010B40368D9B2103947
:1012E8000A4AA2FB01421209094CA25CC2655F29A5
:1012F80007D96FF3090304338365806D5DF8044BE8
:1013080070476FF309038365F7E700BFABAAAAAA82
:10131800481C0008836A826992B9012B0AD0022B03
:1013280002D00BB100207047C36A13F0807F2FD121
:1013380000207047C36AB3F1C07F2BD000207047EC
:10134800B2F5005F09D0022B2CD9032B2CD1C36A2C
:1013580013F0807F2AD100207047032B0AD801A2FE
:1013680052F823F0A113000881130008A113000804
:101378008D13000800207047C36A13F0807F0DD1D9
:1013880000207047C36AB3F1C07F09D000207047BE
:1013980001207047012070470120704701207047E5
:1013A80001207047012070470020704701207047D6
:1013B80070B5044600F074FA002C5BD00546022391
:1013C80084F83530002384F834302268136823F019
:1013D8000103136023681A6812F0010F0AD000F0A5
:1013E8005FFA431B052BF5D920236365032084F896
:1013F800350070BD1A68204911406268A068024330
:10140800E06802432069024360690243A06902431D
:10141800E0690243206A02430A43616A04291ED034
:101428001A602668756925F00705636A1D43042B51
:1014380007D1A36A1D43E36A1BB12046FFF76AFF81
:1014480090B975612046FFF747FFE26D3F2393404F
:10145800836000206065012384F83530C9E7E16ABC
:10146800206B01430A43DBE740236365012084F8CE
:101478003500BEE70120BCE73F8010F070B5044698
:10148800866D00F00DFA94F83530022B06D08023D3
:101498006365002384F83430012070BD0546226856
:1014A800136823F0160313602268536923F080033E
:1014B8005361236CE3B12268136823F008031360B7
:1014C8002268136823F00103136023681B6813F074
:1014D800010F11D000F0E4F9431B052BF5D92023A7
:1014E8006365032084F83500002384F83430D4E79A
:1014F800A36C002BDFD1E3E7E26D3F239340B36099
:10150800012384F83530002084F83400C5E790F8CA
:101518003530022B03D08023436501207047052313
:1015280080F835300268136823F001031360002047
:1015380070470000F0B583B0044600230193724B56
:101548001D68724BA3FB0535AD0A876D3E68C26DF9
:1015580008239340334210D003681A6812F0040F2E
:101568000BD01A6822F004021A60C26D0823934057
:10157800BB60436D43F001034365E26D0123934073
:10158800334209D02268526912F0800F04D0BB6040
:10159800636D43F002036365E26D042393403342B5
:1015A80009D02268126812F0020F04D0BB60636D84
:1015B80043F004036365E26D10239340334224D063
:1015C8002268126812F0080F1FD0BB6023681A68DF
:1015D80012F4802F0DD01B6813F4002F04D1236C54
:1015E8009BB12046984710E0A36C73B120469847FA
:1015F8000BE01A6812F4807F03D11A6822F00802FF
:101608001A60236C0BB120469847E26D2023934063
:10161800334254D02268126812F0100F4FD0BB60CA
:1016280094F83530052B0ED023681A6812F4802FF1
:1016380033D01B6813F4002F2AD1636C002B3ED0E3
:10164800204698473BE02268136823F0160313608E
:101658002268536923F080035361236CA3B1226885
:10166800136823F008031360E26D3F239340BB60C7
:10167800012384F83530002384F83430236D002B9F
:101688003FD0204698473CE0A36C002BE7D1EBE71E
:10169800E36BA3B12046984711E01A6812F4807FE3
:1016A80009D11A6822F010021A60012384F8353033
:1016B800002384F83430E36B0BB120469847636D00
:1016C800FBB1636D13F0010F17D0052384F8353093
:1016D8002268136823F001031360019B013301930F
:1016E800AB4204D823681B6813F0010FF5D101231E
:1016F80084F83530002384F83430E36C0BB120468D
:10170800984703B0F0BD00BF08000020B5814E1B0C
:10171800002807DB00F01F02400901239340024A1A
:1017280042F82030704700BF00E100E0002808DBE5
:101738000901C9B200F1604000F5614080F800136A
:10174800704700F00F000901C9B2014B19547047E6
:1017580014ED00E000B500F00700C0F1070CBCF183
:10176800040F28BF4FF0040C031D062B0FD9C31E0E
:101778004FF0FF3E0EFA0CF021EA000199400EFAF4
:1017880003FE22EA0E0241EA02005DF804FB002390
:10179800EEE70000074AD36823F4E0631B041B0C40
:1017A800000200F4E060034343F0BF6343F40033F6
:1017B800D360704700ED00E010B50446054BD868CB
:1017C800C0F30220FFF7C6FF01462046FFF7AEFF31
:1017D80010BD00BF00ED00E008B5FFF799FF08BD98
:1017E8000138B0F1807F0BD24FF0E0235861054AF1
:1017F800F02182F823100020986107221A617047AF
:101808000120704700ED00E010B504460E4B1A7831
:101818004FF47A73B3FBF2F30C4A1068B0FBF3F0A1
:10182800FFF7DEFF68B90F2C01D901200AE000227A
:1018380021464FF0FF30FFF7BFFF054B1C6000202B
:1018480000E0012010BD00BF0000002008000020BB
:101858000400002008B50B4B1A6842F400721A60A5
:101868001A6842F480621A601A6842F480721A6038
:101878000320FFF78FFF0F20FFF7C6FFFEF710FECC
:10188800002008BD003C0240034A1168034B1B7846
:101898000B441360704700BFD000002000000020F8
:1018A800014B1868704700BFD0000020034AD2F8E7
:1018B800883043F47003C2F88830704700ED00E0C8
:1018C800DFF834D0FFF7F2FF0C480D490D4A00232A
:1018D80002E0D458C4500433C4188C42F9D30A4ADD
:1018E8000A4C002301E013600432A242FBD300F04B
:1018F80019F8FEF7D5FC7047000002200000002010
:101908000C000020781C00080C000020D4000020E7
:10191800FEE702440346934200D1704703F8011BD7
:10192800F9E7000070B50D4D0D4C641BA41000269E
:10193800A64209D10B4D0C4C00F076F9641BA4109B
:101948000026A64205D170BD55F8043B98470136DC
:10195800EEE755F8043B98470136F2E7701C00089B
:10196800701C0008701C0008741C00082DE9F04762
:101978008C468E46089E154604461946002B40F0B4
:10198800D080724547D9B2FA82F74FB1C7F1200328
:101998000EFA07FC20FA03F3BD4043EA0C0CBC40E6
:1019A8004FEA154EA8B2BCFBFEF8230C0EFB18CC70
:1019B80008FB00F943EA0C43994528D9EB1808F1CC
:1019C800FF3204D2994502D9A8F102022B44A3EBB5
:1019D8000903A4B2B3FBFEFC0EFB1C330CFB00F0A6
:1019E80044EA0344A04214D92C190CF1FF3304D261
:1019F800A04202D9ACF102032C44241A43EA024063
:101A08001EB1FC40002334607360BDE8F087424695
:101A1800DDE76346F1E7002A79D0B2FA82F3002BBA
:101A28003FD01946C1F1200302FA01F52EFA03F25C
:101A38000EFA01FE20FA03F343EA0E034FEA154EAD
:101A480000FA01F4B2FBFEFCAFB20EFB1C201A0C2C
:101A58000CFB07F842EA004290455AD9AA180CF143
:101A6800FF3004D2904502D9ACF102002A44A2EB1F
:101A780008029BB2B2FBFEFC0EFB1C220CFB07F714
:101A880043EA02439F4246D9EB180CF1FF3204D2D5
:101A98009F4202D9ACF102022B44DB1B42EA00420E
:101AA80002E0AEEB020301224FEA154EAFB2B3FBE0
:101AB800FEFC200C0EFB1C330CFB07F840EA03432A
:101AC80098452AD9EB180CF1FF3004D2984502D971
:101AD800ACF102002B44A3EB0803A4B2B3FBFEFC59
:101AE8000EFB1C330CFB07F744EA0344A74216D944
:101AF8002C190CF1FF3304D2A74202D9ACF102032E
:101B08002C44E41B43EA00400F46114678E71F21A6
:101B180088E76046ABE76246BFE76046DBE76346B7
:101B2800EFE7734506D916B9002108466DE7C6E9FF
:101B3800000EF9E7B3FA83F787B9734501D38242F8
:101B480007D8841A6EEB030301209C461EB90021B6
:101B58005BE73846FAE7C6E9004CF8E7C7F1200C1E
:101B6800BB4022FA0CF51D4320FA0CF12EFA0CF3B7
:101B78000EFA07FE41EA0E014FEA154900FA07F48A
:101B8800B3FBF9F81FFA85FE09FB18300B0C08FBAC
:101B98000EFA43EA00439A4502FA07F240D9EB18D5
:101BA80008F1FF3004D29A4502D9A8F102002B446B
:101BB800A3EB0A0389B2B3FBF9F809FB183308FB56
:101BC8000EFE41EA03418E452CD9691808F1FF330E
:101BD80004D28E4502D9A8F10203294443EA004001
:101BE800A0FB0298A1EB0E014145CE46434602D325
:101BF80006D14C4504D2B9EB020E68EB0503013857
:101C0800002EA4D0B4EB0E0261EB030101FA0CFC28
:101C180022FA07F34CEA0303F940C6E9003196E7D4
:101C28004046C5E74346D9E7F8B500BFF8BC08BC4D
:101C38009E467047F8B500BFF8BC08BC9E46704782
:101C4800000610160006101600000000010203042A
:101C58000000000000000000010203040607080954
:081C68000CFDFF7F01000000EC
:041C7000E101000886
:041C7400BD010008A6
:0C1C780001000000100000000024F40037
:04000005080018C90E
:00000001FF
