:020000040800F2
:1000000000000220511B0008550400085904000894
:100010005D04000861040008650400080000000099
:10002000000000000000000000000000690400085B
:100030006D04000800000000710400087504000849
:10004000A11B0008A11B0008A11B0008A11B0008A0
:10005000A11B0008A11B0008A11B0008A11B000890
:10006000A11B0008A11B0008A11B0008A11B000880
:10007000A11B0008A11B0008A11B0008A11B000870
:10008000A11B0008A11B0008A11B0008A11B000860
:10009000A11B0008A11B0008A11B0008A11B000850
:1000A000A11B0008A11B0008A11B0008A11B000840
:1000B000A11B0008A11B0008A11B0008A11B000830
:1000C000A11B0008A11B0008A11B0008A11B000820
:1000D000A11B000879040008A11B0008A11B00084F
:1000E000A11B0008A11B0008A11B0008A11B000800
:1000F000A11B0008A11B0008A11B0008A11B0008F0
:10010000A11B0008A11B0008A11B0008A11B0008DF
:10011000A11B0008A11B0008A11B00088504000802
:10012000A11B0008A11B0008A11B0008A11B0008BF
:10013000A11B0008A11B0008A11B0008A11B0008AF
:10014000A11B0008A11B0008A11B0008A11B00089F
:10015000A11B0008A11B0008A11B0008A11B00088F
:10016000A11B0008A11B0008A11B0008A11B00087F
:10017000A11B0008A11B0008A11B00080000000033
:08018000A11B0008A11B0008EF
:1001880053B94AB9002908BF00281CBF4FF0FF31F6
:100198004FF0FF3000F00CB8ADF1080C6DE904CE5B
:1001A80001F020FDDDF804E0DDE9022304B070472A
:1001B800704700BF10B5054C237833B9044B13B111
:1001C8000448AFF300800123237010BD1000002005
:1001D80000000000A81E000808B5034B1BB1034926
:1001E8000348AFF3008008BD0000000014000020A1
:1001F800A81E000810B50C480C4C06220023C4E9C0
:1002080000024FF400314FF400122046C4E90233D3
:10021800C4E90412A361A38300F04CFA00B910BD2D
:10022800BDE8104000F0F4B8006400402C00002045
:1002380010B51B4A016888B000239142CDE902330A
:10024800CDE90433069301D008B010BD02F5EA32B7
:100258000093106C40F000701064106C00F0007097
:10026800009000980193136B0E4843F00803136342
:10027800136B9FED097B03F0080301930322092305
:1002880002A98DED027BCDE90523019C00F064FBFA
:1002980008B010BDAFF300800300000002000000AA
:1002A80000640040000C024010B500248AB0CDE97B
:1002B8000444CDE90644244B009408941A6B23485F
:1002C80042F002021A631A6B02F002020092009ACC
:1002D80001941A6B42F008021A631A6B02F00802C2
:1002E8000192019A02941A6B42F001021A631A6B86
:1002F80002F001020292029A03941A6B42F0800201
:100308001A631B6B03F08003039322464FF4C0511A
:10031800039B00F001FD4FF4C052012304A90B48D0
:10032800CDE90423CDE9064400F016FB4FF48062C2
:100338004FF488130548069404A9CDE9042300F076
:100348000BFB0AB010BD00BF00380240001C024081
:1003580010B5002394B0CDE90A33CDE90C33CDE9CB
:100368000333CDE90533214901930793086C204AEB
:1003780040F080500864096C01F0805101910199A6
:100388000293136843F480431360136801204FF409
:10039800803103F48043CDE9080102934FF48001D2
:1003A8000224CDE90E41029804210220CDE9120170
:1003B8000622A82308A81092119300F0B1FC08B1F6
:1003C80072B6FEE70F220346CDE903244FF4A05C82
:1003D8004FF4805203A80521CDE9053C079200F0AF
:1003E800B9FE08B172B6FEE714B010BD003802407D
:1003F8000070004008B500F031F9FFF7A9FFFFF7DA
:1004080053FFFFF7F7FE00F049F800F091F8FEE718
:1004180072B6FEE782B00C4B002100915A6C42F490
:1004280080425A645A6C02F480420092009A019108
:100438001A6C42F080521A641B6C03F080530193CB
:10044800019B02B0704700BF00380240FEE700BFC2
:10045800FEE700BFFEE700BFFEE700BFFEE700BF04
:10046800704700BF704700BF704700BF00F010B969
:10047800014801F0AFB900BFA0000020014800F01A
:10048800C9BF00BF58000020034AD2F8883043F49F
:100498007003C2F88830704700ED00E000B51248DC
:1004A800124940F2F31283B000234260A722CDE93B
:1004B8000033C0E902320160836100F009FF58B9D6
:1004C8000022002308486946CDE9002301F03EF8E0
:1004D80028B903B05DF804FBFFF79AFFF0E7FFF7D0
:1004E80097FF03B05DF804FB58000020001400409B
:1004F8000E4B02689A4200D0704700B583B00022C4
:1005080003F509330192196C41F0200119641B6C41
:1005180003F02003019311463720019B00F05CF99A
:10052800372003B05DF804EB00F092B900140040E6
:1005380010B50B480B4C4FF496410023C4E9000159
:100548000C222046C4E90233C4E90432C4E9063364
:1005580001F040F800B910BDBDE81040FFF758BFE2
:1005680000100140A000002070B5274B02688AB037
:1005780000249A42CDE90444CDE90644089401D008
:100588000AB070BD03F5943301945A6C1F4842F0C9
:1005980010025A645A6C02F010020192019A0294F5
:1005A8001A6B42F002021A631A6B02F002020292FC
:1005B800029A03941A6B42F001021A631B6B03F050
:1005C8000103039380220326072504A90223CDE90A
:1005D8000423CDE90765039B00F0BEF94FF40073CF
:1005E80004A904930A48089502230593CDE9064611
:1005F80000F0B2F922462146252000F0EDF825202A
:1006080000F026F90AB070BD001001400004024055
:100618000000024038B50E4A0E4B1278054618689D
:100628004FF47A73B3FBF2F3B0FBF3F000F01EF96A
:1006380008B90F2D01D9012038BD044602462946C4
:100648004FF0FF3000F0C8F8034B20461D6038BD5E
:1006580004000020000000200800002008B50B4B13
:100668001A6842F400721A601A6842F480621A60CA
:100678001A6842F480721A60032000F09BF80F2079
:10068800FFF7C8FFFFF7C6FE002008BD003C024088
:10069800034A044B11681B780B441360704700BF72
:1006A800E800002004000020014B1868704700BFD4
:1006B800E800002000287BD038B590F820300446A8
:1006C800002B72D02268136843F001031360FFF710
:1006D800EBFF054604E0FFF7E7FF401B0A285BD85D
:1006E80023685A68D107F6D51A6822F002021A6000
:1006F800FFF7DAFF054604E0FFF7D6FF401B0A289C
:100708004AD823685A689207F6D4227E012A1A68C2
:100718000CBF42F0800222F080021A60627E012A39
:100728001A680CBF42F0400222F040021A60A27E12
:10073800012A1A680CBF42F0200222F020021A6037
:10074800E27E012A1A680CBF22F0100242F0100261
:100758001A60227F012A1A680CBF42F0080222F0B0
:1007680008021A60627F012A1A680CBF42F004026C
:1007780022F004021A60D4E90220216902430A43E4
:1007880060696168024301390A4300200121DA6186
:10079800606284F8201038BD636A052243F4003390
:1007A800636284F82020012038BDFFF741FD89E706
:1007B800012070470749CA6803024FF6FF0003F497
:1007C800E0630240134343F0BF6343F40033CB605C
:1007D800704700BF00ED00E01B4BDB68C3F302234A
:1007E80000B5C3F1070EBEF1040F03F1040C28BFD6
:1007F8004FF0040EBCF1060F1CD9A3F1030C4FF007
:10080800FF3303FA0CF322EA03024FF0FF3303FA33
:100818000EF321EA030303FA0CF313431B01002828
:10082800DBB20ADB00F1604000F5614080F800337C
:100838005DF804FB00229446E7E7044A00F00F0045
:10084800024413765DF804FB00ED00E0FCEC00E0E8
:10085800002807DB044A4109012300F01F008340F8
:1008680042F82130704700BF00E100E00138B0F1E4
:10087800807F01D30120704710B44FF0E023074C6C
:1008880058614FF0F00C84F823C00022072110466D
:100898009A615DF8044B1961704700BF00ED00E0F4
:1008A80070B50446866DFFF7FFFE94F83530022BCD
:1008B80006D080236365002384F83430012070BD9E
:1008C80023681A6822F016021A605A6922F0800218
:1008D8005A61226C054642B31A6822F008021A606F
:1008E8001A6822F001021A6005E0FFF7DDFE431BDB
:1008F800052B10D823681B6813F00103F5D1E16DAF
:100908003F228A40184601210023B26084F835103E
:1009180084F8343070BD032320226265184684F8B9
:100928003530002384F8343070BDA26C002AD3D14E
:10093800D6E700BF90F83530022B03D080234365FB
:10094800012070470268052380F83530136823F0CA
:1009580001030020136070472DE9F04FAC4A0B6883
:10096800904285B04FF000024FF0010B00F0DA80A2
:10097800DFF8ACE28A4603E00132102A00F0A680D4
:100988000BFA02F101EA03069943F5D1DAF80440BB
:1009980004F0030C510003250CF1FF378D40012FA3
:1009A8006FEA050558D9BCF1030F08D0C76807EAF4
:1009B8000508DAF808708F4047EA0807C760076833
:1009C8000CFA01F13D40294314F4403F0160D3D0B3
:1009D800904D00210391696C41F480416964696C10
:1009E80001F480410391039922F0030101F1804150
:1009F80001F59C3102F003078D68BF004FF00F0C22
:100A08000CFA07FC25EA0C08834DA84261D0834DF7
:100A1800A84200F05E81DFF80CC2604500F06081FA
:100A2800DFF804C2604500F06981DFF800C2604564
:100A380000F06B81DFF8F8C1604500F05881DFF8FD
:100A4800F4C160450CBF4FF0070C4FF0080C0CFACE
:100A580007F748EA070542E0876807EA0508DAF871
:100A68000C708F4047EA08078760476827EA06083E
:100A7800C4F30017974047EA08074760C76807EAC2
:100A88000508DAF808708F4047EA0807BCF1020F3A
:100A9800C76094D14FEAD20900EB890902F0070830
:100AA800D9F820700097DAF810704FEA880807FA2A
:100AB80008F701970F2707FA08F8009F27EA0808A0
:100AC800019F47EA0807C9F8207078E705B0BDE834
:100AD800F08F4FF0010C0CFA07F748EA07058D6014
:100AE800DEF80810F543E70254BF29403143CEF839
:100AF8000810DEF80C10A70254BF29403143CEF885
:100B08000C10DEF80410A70354BF29403143CEF877
:100B18000410DEF80010E40354BF29403143CEF836
:100B2800001029E7DFF8ECA002E00132102ACDD04E
:100B38000BFA02F403EA04079C43F6D14D6854000B
:100B4800032606FA04FC05F003096FEA0C0809F10C
:100B5800FF3CBCF1010F6FD9B9F1030F0AD0D0F8EF
:100B68000CE08E6808EA0E0E06FA04FC4CEA0E0C3D
:100B7800C0F80CC0D0F800C009FA04F40CEA080C5C
:100B880044EA0C0415F4403F0460CED000240394DA
:100B9800DAF8444044F48044CAF84440DAF844405F
:100BA80004F480440394039C22F0030404F1804479
:100BB80004F59C3402F0030CD4F808E00F264FEA41
:100BC8008C0C06FA0CFC2EEA0C0CC4F808C0144C69
:100BD800EE02A4686FEA070C79D404EA0C04104EFC
:100BE800B460F468AE0270D404EA0C040C4EF460ED
:100BF8007468AE0367D40CEA0404094EED0374600C
:100C080034685ED40CEA0404054D2C608DE700BFFF
:100C18000000024000380240000402400008024080
:100C2800003C0140000C0240001002400014024049
:100C380000180240001C0240D0F808E0CE6808EA1C
:100C48000E0E06FA04FC4CEA0E0CC0F808C0D0F8E8
:100C580004E0C5F3001C2EEA070E0CFA02FC4CEA6D
:100C68000E0CC0F804C0D0F80CE08E6808EA0E0E2E
:100C780006FA04FC4CEA0E0CB9F1020FC0F80CC0DD
:100C88007FF478AF4FEAD20C4FEA8C0C0CF1804C11
:100C98000CF5003C02F0070EDCF8206000960E69A7
:100CA8004FEA8E0E06FA0EF601960F2606FA0EFE8B
:100CB800009E26EA0E0E019E46EA0E0ECCF820E0B3
:100CC80058E73C43A0E73C4397E73C438EE73C4367
:100CD80085E74FF0020C0CFA07F748EA0705FEE62D
:100CE8004FF0030C0CFA07F748EA0705F7E64FF050
:100CF800060C0CFA07F748EA0705F0E64FF0040C73
:100D08000CFA07F748EA0705E9E64FF0050C0CFA74
:100D180007F748EA0705E2E602B909048161704766
:100D2800002800F06A812DE9F0410368DD0782B0F0
:100D380004462FD59F498A6802F00C02042A00F065
:100D4800EF808A6802F00C02082A00F0E5806368E8
:100D5800B3F5803F00F0EE80B3F5A02F00F0798165
:100D6800944D2A6822F480322A602A6822F480226C
:100D78002A60002B40F0E380FFF796FC064605E06A
:100D8800FFF792FC801B642800F203812B689F0305
:100D9800F6D423689D0728D5864A916811F00C0F70
:100DA80000F09280916801F00C01082900F0888019
:100DB800E368002B00F010817F4B7E4E01221A6001
:100DC800FFF772FC054605E0FFF76EFC401B0228A2
:100DD80000F2DF8033689F07F6D53368226923F075
:100DE800F80343EAC203336023681A0753D45D0744
:100DF80030D5704A136C13F0805300F081800025C1
:100E08006E4E3368D80540F1B480A368012B00F01A
:100E1800C480052B00F02D81664E326F22F001024E
:100E28003267326F22F004023267002B40F0BA803A
:100E3800FFF73AFC41F28838074605E0FFF734FC33
:100E4800C01B404500F2A580336F9B07F6D4002DE8
:100E580040F00981A369D3B1564DAA6802F00C028B
:100E6800082A00F0CC80022B534B4FF000021A6680
:100E780000F00981FFF718FC044605E0FFF714FCB1
:100E8800001B022800F285802B689B01F6D4002005
:100E980002B0BDE8F08163690BB3474B454E0122B0
:100EA800C3F8802EFFF700FC054604E0FFF7FCFBC3
:100EB800401B02286DD8736F9B07F7D5236896E708
:100EC800526851023FF574AF3A4A1268920744D506
:100ED800E268012A41D0012002B0BDE8F081364A1B
:100EE800344EC2F8803EFFF7DFFB054604E0FFF70B
:100EF800DBFB401B02284CD8736F9F07F7D4DDE754
:100F08000193136C43F080531364136C03F0805304
:100F18000193019B012573E74A6851027FF517AFDA
:100F2800244A126892037FF535AF6268002A7FF47D
:100F380031AFD0E71F4A136843F480331360FFF7DB
:100F4800B3FB1C4E054604E0FFF7AEFB401B6428CC
:100F58001FD833689B03F7D51BE7164920690A6831
:100F680022F0F80242EAC0020A601A077FF53FAF92
:100F780091E7336843F480733360FFF795FB0746C6
:100F88003368D9053FF541AFFFF78EFBC01B022838
:100F9800F6D9032002B0BDE8F081064A136F43F08A
:100FA80001031367FFF780FB024F064641F28838BA
:100FB8000BE000BF003802400000474200700040CC
:100FC800FFF772FB801B4045E3D83B6F9A07F7D5C4
:100FD800002D3FF43FAF46E0424A434E1360FFF70F
:100FE80063FB054604E0FFF75FFB401B0228D0D8EF
:100FF80033689907F7D42368F7E601207047012B77
:101008003FF469AF6B68E26903F4800191427FF4B1
:1010180062AF226A03F03F0191427FF45CAF616ADC
:1010280047F6C0721A40B2EB811F7FF454AFA26A30
:10103800520803F44031013AB1EB024F7FF44BAF51
:10104800E26A03F07063B3EB026F14BF0120002063
:101058001EE7254B1A6842F480221A601A6842F487
:1010680080321A606BE7204A136C23F080531364B4
:10107800F0E61D4B1A6F42F004021A671A6F42F02D
:1010880001021A678EE7FFF70FFB064605E0FFF738
:101098000BFB801B02283FF67CAF2B689901F6D426
:1010A800D4E90731626A0B4343EA8213D4E90A2080
:1010B80052080C4943EA0063013A43EA0243012219
:1010C8006B600A66FFF7F0FA074D044605E0FFF784
:1010D800EBFA001B02283FF65CAF2B689A01F6D5A5
:1010E800D5E600BF0000474200380240164908B55F
:1010F8008B6803F00C03042B1BD0082B01D013487A
:1011080008BD4A684B68496813F4800302F03F023F
:1011180011D10E48C1F38811A1FB0001FFF730F887
:10112800094B5B68C3F3014301335B00B0FBF3F089
:1011380008BD074808BD0648C1F388110023A1FB74
:101148000001FFF71DF8EBE7003802400024F40027
:10115800001BB700002800F08780484A136803F096
:1011680007038B422DE9F0410D46044609D2CBB264
:101178001370136803F007038B4202D00120BDE807
:10118800F0812368980714D5590704D53C498A6823
:1011980042F4E0528A601A0704D539498A6842F451
:1011A80060428A603649A0688A6822F0F0020243E9
:1011B8008A60DF0721D56268012A57D0931E012B68
:1011C8002F4B1B684DD99907D8D52D4EB36823F0FE
:1011D80003031343B360FFF767FA41F28838074601
:1011E80004E0FFF761FAC01B404544D8B368626861
:1011F80003F00C03B3EB820FF3D1204A136803F01A
:101208000703AB4206D9EBB21370136803F0070368
:10121800AB42B3D123685A0706D51949E0688A68F2
:1012280022F4E05202438A601B0707D5144A216959
:10123800936823F4604343EAC1039360FFF756FFC2
:101248000F4A104C92681049C2F303120346A25C7D
:101258000E48D34000680B60FFF7DCF90020BDE8BA
:10126800F0819801B1D489E701207047044B1B68CD
:101278009E03AAD482E7032081E700BF003C024016
:1012880000380240C81E00080000002008000020A6
:10129800044B05499B68054A0868C3F38223D35C5D
:1012A800D84070470038024000000020C01E0008E7
:1012B800044B05499B68054A0868C3F34233D35C6D
:1012C800D84070470038024000000020C01E0008C7
:1012D800002800F08F8038B590F83D30044603F0C0
:1012E800FF02002B00F0818022684349022384F822
:1012F8003D308A42136864D0B2F1804F30D0A1F5F6
:101308007C418A422CD001F580618A4228D001F5BF
:1013180080618A4224D001F578418A4251D0374908
:101328008A4221D001F580618A421DD001F5806191
:101338008A4219D0A1F598318A4215D001F5806109
:101348008A4211D001F580618A420DD0A569616891
:10135800E06823F080032B431360D062916210E0B1
:10136800A16823F070030B432069A16923F440733B
:10137800034323F08003E0680B4361681360D06285
:101388009162012353611369DB0703D5136923F0C5
:1013980001031361012384F8463084F83E3084F851
:1013A8003F3084F8403084F8413084F8423084F883
:1013B800433084F8443084F8453084F83D300020C8
:1013C80038BDA068216923F07003034323F44073F8
:1013D8000B43A16923F080030B431360E368D362D6
:1013E8006368936263691363CBE780F83C20FFF777
:1013F8007FF879E701207047000001400040014074
:10140800704700BF704700BF704700BF704700BFFC
:10141800704700BF036870B5DE681D69A9070446F8
:1014280001D5B20751D4690701D572073AD42B0701
:1014380001D5300724D4EA0601D5F30610D4E8070D
:1014480001D5F10757D42A0601D533065BD46806BF
:1014580001D571065FD4AA0601D5B30642D470BD82
:1014680023686FF010021A6108222277DB6913F4EF
:10147800407F204663D0FFF7C7FF00232377DEE7CE
:1014880023686FF008021A6104222277DB69990742
:10149800204651D1FFF7B6FF2046FFF7B7FF0023DC
:1014A8002377C8E723686FF004021A6102222277C3
:1014B8009B6913F4407F20463BD1FFF7A3FF2046EA
:1014C800FFF7A4FF00232377B1E76FF002021A6148
:1014D800012202779B699B0725D0FFF795FF002320
:1014E8002377A0E723686FF0200220461A61BDE841
:1014F800704000F06BB823686FF001021A61204653
:10150800FFF77EFF9FE723686FF080021A6120468D
:1015180000F05EF89BE723686FF040021A612046EE
:10152800FFF776FF97E7FFF76DFF2046FFF76EFF9F
:10153800D5E7FFF769FFC5E7FFF766FFAFE7FFF7F6
:1015480061FF2046FFF762FF97E700BF90F83C2055
:10155800012A37D003460268022030B483F83D00E0
:1015680050680D68946820F0700028435060164851
:1015780082421AD0B2F1804F17D0A0F57C40824247
:1015880013D000F5806082420FD000F5806082425F
:101598000BD000F57840824207D000F570508242A7
:1015A80003D0A0F59430824204D1496824F0800425
:1015B8000C4394600020012283F83D2083F83C000E
:1015C80030BC70470220704700000140704700BFE0
:1015D800704700BF002800F0878038B590F8413088
:1015E800044603F0FF02002B79D02368E068242228
:1015F80084F84120DA6822F40052DA601969A26896
:1016080021F4405101432069196102436069D96896
:101618000243E06921F4164121F00C0102430A4318
:10162800DA605A69A069314922F4407202438B4258
:101638005A6136D02E4A934233D0FFF729FEE26929
:101648001921B2F5004FD4E90053A0FB01012BD0BA
:101658009A009B0FFEF794FD264AA2FB00135B0934
:10166800642101FB130000013230A2FB00201B01A2
:1016780003EB5013AB602A6922F490422A616A692D
:1016880022F02A026A61EA680023202142F400520B
:10169800EA60636484F8411084F842101846636372
:1016A80038BDFFF705FECAE7DA184FF000035B41C3
:1016B800FEF766FD0F4AA2FB00314909642303FBCC
:1016C8001103DB003233A2FB0323C3F342121B09CD
:1016D80002EB011203F4F8731344AB60CBE780F814
:1016E8004020FEF741FF80E70120704700100140CD
:1016F800001401401F85EB51704700BF704700BFC1
:10170800704700BF08B5806B0023C385C384FFF70B
:10171800F7FF08BD704700BF83680168826AB3F5A8
:10172800805F42D0002B39D04B6803F07F031370E1
:10173800826A0132C38D8262013B9BB2C385002B52
:1017480032D100B50268D16821F0200183B0D160A0
:10175800D16821F48071D16051694FF0200C21F0DB
:101768000101516180F842C04363016B012925D111
:10177800036302F10C0353E8003F23F0100302F166
:101788000C0C4CE800310029F3D11368DB061AD49D
:10179800818DFFF7BFFF03B05DF804FB0369002BE1
:1017A800C2D14B68DBB2C2E770470369002BF8D19E
:1017B8004B68C3F3080322F8023BBBE7FFF79EFF21
:1017C80003B05DF804FB019113680193536801931A
:1017D800019BDDE730B503681A68DD68596912F0C6
:1017E8000F0F83B0044613D1910602D5A90600F164
:1017F800BC80216B012945D0100602D5290600F1CD
:10180800BE80520602D5680600F1D88003B030BD0C
:1018180011F0010140F0938015F4907FE9D0D007D2
:101828000CD5E80540F1F480606C40F0010060647C
:10183800500740F1D880002940F08580900740F19A
:10184800D880100700F1E180616C0029DED0910694
:1018580009D5AA0607D594F84220222A03D12046A2
:10186800FFF75AFF23685A69616C02F0400201F0E1
:10187800080152EA010540F00A812046FFF740FFBF
:101888006564C3E7D006B7D5E906B5D5002201924D
:101898001A6801925A680192019A5A69550640F1EC
:1018A800BB80E06B0268526892B2002AAED0A18D6C
:1018B8009142ABD9E285C269B2F5807F36D003F197
:1018C8000C0252E8002F22F4807203F10C0545E85F
:1018D80000210029F3D103F1140252E8002F22F06D
:1018E800010203F1140545E800210029F3D103F1B1
:1018F800140252E8002F22F0400203F1140545E8D3
:1019080000210029F3D1202284F84220216303F129
:101918000C0252E8002F22F0100203F10C0545E8F2
:1019280000210029F3D1FEF7BBFFA18D02236363D9
:10193800E38DC91A204689B2FFF7ECFE66E7D007A7
:101948004CD4500745D5616C41F0020161649107A0
:1019580041D5616C41F00401616411077FF574AFF2
:10196800616C41F0080161646EE790F84230222B07
:101978007FF44CAF03B0BDE83040FFF7CDBE94F81C
:101988004120212A7FF442AFA168226AB1F5805F25
:1019980000F0CD80511C216212785A60E28C013A25
:1019A80092B2E284002A7FF431AFDA6822F0800232
:1019B800DA60DA6842F04002DA6027E7DA68202164
:1019C80022F04002DA60204684F84110FFF794FEC6
:1019D8001CE79107BDD41107C2D435E7E8053FF5E8
:1019E80023AF5007AFD4900703D500293FF429AFA0
:1019F800AFE710077FF528AF05F020000843AFD107
:101A0800626C002A7FF42FAF00E7A906A8D4F7E795
:101A180050073FF513AFE6E7E18DE28D92B289B248
:101A2800002A3FF4F3AEA28D511A89B200293FF47F
:101A3800EDAE03F10C0252E8002F22F4907203F18C
:101A48000C0545E800200028F3D103F1140252E800
:101A5800002F22F0010203F1140545E800200028B8
:101A6800F3D1202284F84220206303F10C0252E8CB
:101A7800002F22F0100203F10C0545E80020002891
:101A8800F3D1022363632046FFF744FEBEE61946FE
:101A980001F10C0252E8002F22F490720C3141E857
:101AA800002019460028F3D103F1140252E8002F50
:101AB80022F0010203F1140040E800210029F3D1CB
:101AC800226B012A22D00022202184F842102263AE
:101AD8005A69550627D503F1140252E8002F22F05F
:101AE800400203F1140040E800210029F3D1E06B23
:101AF800C8B1144B0365FEF71DFF00283FF486AEFE
:101B0800E06B036D03B0BDE83040184703F10C02E9
:101B180052E8002F22F0100203F10C0040E80021E7
:101B28000029F3D1CFE72046FFF7EAFD6EE62169E9
:101B380000297FF42FAF32F8021BC1F30801596066
:101B480022622BE70D170008DFF834D0FEF79CFC63
:101B58000C480D490D4A002302E0D458C450043300
:101B6800C4188C42F9D30A4A0A4C002301E01360D6
:101B78000432A242FBD300F011F8FEF73BFC704799
:101B880000000220000000200C000020E81E0008D1
:101B980010000020EC000020FEE7000070B50D4D9D
:101BA8000D4C641BA4100026A64209D10B4D0C4C09
:101BB80000F076F9641BA4100026A64205D170BD7A
:101BC80055F8043B98470136EEE755F8043B98472B
:101BD8000136F2E7E01E0008E01E0008E01E0008DB
:101BE800E41E00082DE9F0478C468E46089E1546EF
:101BF80004461946002B40F0D080724547D9B2FA06
:101C080082F74FB1C7F120030EFA07FC20FA03F35D
:101C1800BD4043EA0C0CBC404FEA154EA8B2BCFBD1
:101C2800FEF8230C0EFB18CC08FB00F943EA0C4322
:101C3800994528D9EB1808F1FF3204D2994502D901
:101C4800A8F102022B44A3EB0903A4B2B3FBFEFCE8
:101C58000EFB1C330CFB00F044EA0344A04214D9E9
:101C68002C190CF1FF3304D2A04202D9ACF10203C3
:101C78002C44241A43EA02401EB1FC40002334607D
:101C88007360BDE8F0874246DDE76346F1E7002A66
:101C980079D0B2FA82F3002B3FD01946C1F1200364
:101CA80002FA01F52EFA03F20EFA01FE20FA03F306
:101CB80043EA0E034FEA154E00FA01F4B2FBFEFCAC
:101CC800AFB20EFB1C201A0C0CFB07F842EA0042CC
:101CD80090455AD9AA180CF1FF3004D2904502D980
:101CE800ACF102002A44A2EB08029BB2B2FBFEFC54
:101CF8000EFB1C220CFB07F743EA02439F4246D91E
:101D0800EB180CF1FF3204D29F4202D9ACF1020267
:101D18002B44DB1B42EA004202E0AEEB0203012245
:101D28004FEA154EAFB2B3FBFEFC200C0EFB1C3382
:101D38000CFB07F840EA034398452AD9EB180CF145
:101D4800FF3004D2984502D9ACF102002B44A3EB32
:101D58000803A4B2B3FBFEFC0EFB1C330CFB07F715
:101D680044EA0344A74216D92C190CF1FF3304D2D4
:101D7800A74202D9ACF102032C44E41B43EA004019
:101D88000F46114678E71F2188E76046ABE76246B1
:101D9800BFE76046DBE76346EFE7734506D916B948
:101DA800002108466DE7C6E9000EF9E7B3FA83F7A4
:101DB80087B9734501D3824207D8841A6EEB0303AF
:101DC80001209C461EB900215BE73846FAE7C6E9C0
:101DD800004CF8E7C7F1200CBB4022FA0CF51D4374
:101DE80020FA0CF12EFA0CF30EFA07FE41EA0E0166
:101DF8004FEA154900FA07F4B3FBF9F81FFA85FE14
:101E080009FB18300B0C08FB0EFA43EA00439A450D
:101E180002FA07F240D9EB1808F1FF3004D29A45CC
:101E280002D9A8F102002B44A3EB0A0389B2B3FB41
:101E3800F9F809FB183308FB0EFE41EA03418E4509
:101E48002CD9691808F1FF3304D28E4502D9A8F1BC
:101E58000203294443EA0040A0FB0298A1EB0E01CB
:101E68004145CE46434602D306D14C4504D2B9EB90
:101E7800020E68EB05030138002EA4D0B4EB0E0265
:101E880061EB030101FA0CFC22FA07F34CEA0303A5
:101E9800F940C6E9003196E74046C5E74346D9E729
:101EA800F8B500BFF8BC08BC9E467047F8B500BF3F
:081EB800F8BC08BC9E4670470F
:101EC0000000000001020304000000000000000008
:081ED0000102030406070809E2
:081ED80014FDFF7F0100000072
:041EE000E101000814
:041EE400BD01000834
:0C1EE8000024F4000100000010000000C5
:0400000508001B5183
:00000001FF
