:020000040800F2
:1000000000000220D91D00088504000889040008AA
:100010008D04000891040008950400080000000009
:10002000000000000000000000000000990400082B
:100030009D04000800000000A1040008A5040008B9
:10004000291E0008291E0008291E0008291E000874
:10005000291E0008291E0008291E0008291E000864
:10006000291E0008291E0008291E0008291E000854
:10007000291E0008291E0008291E0008291E000844
:10008000291E0008291E0008291E0008291E000834
:10009000A9040008291E0008291E0008291E0008BE
:1000A000291E0008291E0008291E0008291E000814
:1000B000291E0008291E0008291E0008291E000804
:1000C000291E0008291E0008291E0008291E0008F4
:1000D000291E0008B5040008291E0008291E000872
:1000E000291E0008291E0008291E0008291E0008D4
:1000F000291E0008291E0008291E0008291E0008C4
:10010000291E0008291E0008291E0008291E0008B3
:10011000291E0008291E0008291E0008291E0008A3
:10012000291E0008291E0008291E0008291E000893
:10013000291E0008291E0008291E0008291E000883
:10014000291E0008291E0008291E0008291E000873
:10015000291E0008291E0008C1040008291E0008E5
:10016000291E0008291E0008291E0008291E000853
:10017000291E0008291E0008291E00080000000092
:08018000291E0008291E0008D9
:1001880053B94AB9002908BF00281CBF4FF0FF31F6
:100198004FF0FF3000F00CB8ADF1080C6DE904CE5B
:1001A80001F064FEDDF804E0DDE9022304B07047E5
:1001B800704700BF10B5054C237833B9044B13B111
:1001C8000448AFF300800123237010BD1000002005
:1001D800000000003021000808B5034B1BB103499B
:1001E8000348AFF3008008BD0000000014000020A1
:1001F8003021000810B50C480C4C03220023C4E938
:1002080000024FF400214FF440122046C4E90233A3
:10021800C4E90412A361A38300F040FA00B910BD39
:10022800BDE8104000F00CB9006400402C0000202C
:1002380030B51F4B026889B000249A42CDE90244C8
:10024800CDE90444069401D009B030BD03F5EA3382
:1002580000941A6C174842F000721A641A6C02F083
:1002680000720092009A01941A6B42F008021A6315
:100278001B6B9FED0D7B03F00803019302A9092373
:100288000322CDE905238DED027B019D00F02AFEB6
:1002980022462146142000F0FBFB142000F034FC19
:1002A80009B030BDAFF30080030000000200000079
:1002B80000640040000C024000B583B000220A4BE5
:1002C8000192196B41F4800119631B6B03F48003DD
:1002D800019311464620019B00F0DAFB462003B04B
:1002E8005DF804EB00F010BC0038024000B50022B5
:1002F8008BB0CDE90422CDE906221F4B009208926B
:10030800196B1E4841F002011963196B01F00201D3
:10031800009100990192196B41F008011963196B5A
:1003280001F00801019101990292196B41F0010154
:100338001963196B01F00101029102990392196B7B
:1003480041F0800119631B6B03F0800303934FF4A2
:10035800E051039B00F0A6FF4FF4E0520123CDE9E2
:10036800042306480022002304A9CDE9062300F04F
:10037800B9FD0BB05DF804FB00380240001C0240D8
:1003880010B5002394B0CDE90A33CDE90C33CDE99B
:100398000333CDE90533214901930793086C204ABB
:1003A80040F080500864096C01F080510191019976
:1003B8000293136843F480431360136801204FF4D9
:1003C800803103F48043CDE9080102934FF48001A2
:1003D8000224CDE90E41029804210220CDE9120140
:1003E8000622A82308A81092119300F05FFF08B115
:1003F80072B6FEE70F220346CDE903244FF4A05C52
:100408004FF4805203A80521CDE9053C079201F07D
:1004180067F908B172B6FEE714B010BD00380240A3
:100428000070004008B500F00DF9FFF7A9FFFFF7CD
:100438005DFFFFF741FF00F04FF8FFF7DBFEFEE737
:1004480072B6FEE782B00C4B002100915A6C42F460
:1004580080425A645A6C02F480420092009A0191D8
:100468001A6C42F080521A641B6C03F0805301939B
:10047800019B02B0704700BF00380240FEE700BF92
:10048800FEE700BFFEE700BFFEE700BFFEE700BFD4
:10049800704700BF704700BF704700BF00F0ECB85E
:1004A800014800F095B900BF2C000020014801F078
:1004B800D5BA00BFB8000020014800F03DBC00BF1D
:1004C80054000020034AD2F8883043F47003C2F87D
:1004D8008830704700ED00E010B50B480B4C4FF426
:1004E80096410023C4E900010C222046C4E90233E6
:1004F800C4E90432C4E9063301F0B0F900B910BD0B
:10050800BDE81040FFF79CBF00100140B800002074
:10051800F0B5354B02688BB000249A42CDE904440B
:10052800CDE90644089401D00BB0F0BD03F594332F
:1005380001945A6C42F010025A645A6C02F010028C
:100548000192019A02941A6B42F002021A631A6B22
:1005580002F002020292029A03941A6B42F001021C
:100568001A631B6B03F001030393802207260223FF
:10057800032704A905461D48CDE90423CDE90776DC
:10058800039B00F0AFFC4FF4007202231848089652
:1005980004A9184E0797CDE90423069400F0A2FC9D
:1005A800154A74624FF00063C6E9002330464022C2
:1005B8004FF48063C6E90224C6E90544C6E9074446
:1005C800336100F0C9FA58B90022AE6311462520FC
:1005D800B56300F05DFA252000F096FA0BB0F0BD87
:1005E800FFF72EFFF0E700BF0010014000040240B3
:1005F8000000024054000020B864024038B50E4A9A
:100608000E4B1278054618684FF47A73B3FBF2F371
:10061800B0FBF3F000F086FA08B90F2D01D90120DC
:1006280038BD0446024629464FF0FF3000F030FA44
:10063800034B20461D6038BD040000200000002048
:100648000800002008B50B4B1A6842F400721A60C3
:100658001A6842F480621A601A6842F480721A605A
:10066800032000F003FA0F20FFF7C8FFFFF7EAFEA8
:10067800002008BD003C0240034A044B11681B7867
:100688000B441360704700BF0001002004000020E5
:10069800014B1868704700BF0001002000287BD07C
:1006A80038B590F820300446002B72D022681368C1
:1006B80043F001031360FFF7EBFF054604E0FFF783
:1006C800E7FF401B0A285BD823685A68D107F6D58C
:1006D8001A6822F002021A60FFF7DAFF054604E002
:1006E800FFF7D6FF401B0A284AD823685A689207A2
:1006F800F6D4227E012A1A680CBF42F0800222F04A
:1007080080021A60627E012A1A680CBF42F0400219
:1007180022F040021A60A27E012A1A680CBF42F039
:10072800200222F020021A60E27E012A1A680CBF19
:1007380022F0100242F010021A60227F012A1A6881
:100748000CBF42F0080222F008021A60627F012AF8
:100758001A680CBF42F0040222F004021A60D4E9BD
:100768000220216902430A43606961680243013932
:100778000A4300200121DA61606284F8201038BD44
:10078800636A052243F40033636284F82020012061
:1007980038BDFFF74DFD89E701207047704700BF5E
:1007A800704700BF704700BF704700BF704700BF69
:1007B800704700BF704700BF704700BF704700BF59
:1007C800704700BF704700BF704700BF704700BF49
:1007D8002DE9F84F03685C69D3F804809F68D3F863
:1007E8000CB0D3F81090D3F818A014F00106054601
:1007F80025D0FA0700F188804FF400514FF480406B
:100808000026FA050DD52B684FF480729A60BB0557
:1008180000F1BA807A0500F1D8803B0540F1F280FA
:100828000646F9030BD52B684FF480329A60BA0359
:1008380000F1A3807B0340F1CA8046F400462107FB
:1008480002D51BF0100F59D1620702D51BF0080F13
:1008580073D1A30703D52B68DB689F0774D16006A3
:1008680002D519F0100F5ED1A10602D519F0080FB4
:1008780075D1E20603D52B681B699B0759D1A703DD
:1008880002D518F0100F63D1E00302D518F0080F55
:100898006CD121042ED518F0040F2B6828D0E2055E
:1008A80044BF0AF001021643A70516D51AF0020F35
:1008B80013D0600546F0020604F400626AD51AF007
:1008C800040F65D18AB904225A606B6A33432846FB
:1008D8006B62FFF77BFFBDE8F88F610504F40062E7
:1008E80002D51AF0040F53D112B11AF0700A56D17A
:1008F80004225A60002EE8D1BDE8F88F2B68102238
:1009080046F40076DA609FE701229A60BB0738D484
:100918007E0761D4390779D54FF440514FF4A04090
:100928004FF480566DE72B68102246F480661A61F2
:100938009AE72846FFF742FFA1E72B680822DA600A
:100948002846FFF739FF84E72846FFF733FF86E795
:100958002B6810225A602846FFF734FF94E72B686B
:1009680008221A612846FFF72BFF82E72B68082226
:100978005A602846FFF728FF8BE72846FFF712FF43
:100988005DE7FFF70BFF37E72846FFF709FF48E762
:1009980046F00406002A96D01AF0700A93D0BAF1ED
:1009A800400F3FD01FD8BAF1200F56D0BAF1300F00
:1009B8004AD0BAF1100F30D19A69042122F070029E
:1009C8009A6146F0080659607FE70E4629E7380322
:1009D8001FD546F4803632E74FF420514FF490404B
:1009E8004FF400660DE7BAF1500F24D0BAF1600F4A
:1009F80013D19A69042122F070029A6146F4807634
:100A0800596062E72846FFF7D1FE0AE7FFF7CCFEF8
:100A1800F2E62846FFF7CCFE11E79A6922F0700249
:100A28009A6165E79A69042122F070029A6146F09A
:100A38004006596049E79A69042122F070029A61D8
:100A480046F08006596040E79A69042122F0700256
:100A58009A6146F02006596037E79A69042122F026
:100A680070029A6146F0100659602EE70749CA6875
:100A780003024FF6FF0003F4E0630240134343F020
:100A8800BF6343F40033CB60704700BF00ED00E064
:100A98001B4BDB68C3F3022300B5C3F1070EBEF19D
:100AA800040F03F1040C28BF4FF0040EBCF1060F2D
:100AB8001CD9A3F1030C4FF0FF3303FA0CF322EA1D
:100AC80003024FF0FF3303FA0EF321EA030303FA9C
:100AD8000CF313431B010028DBB20ADB00F1604072
:100AE80000F5614080F800335DF804FB002294466D
:100AF800E7E7044A00F00F00024413765DF804FBB0
:100B080000ED00E0FCEC00E0002807DB044A4109A6
:100B1800012300F01F00834042F82130704700BFD6
:100B280000E100E00138B0F1807F01D30120704777
:100B380010B44FF0E023074C58614FF0F00C84F8E4
:100B480023C00022072110469A615DF8044B196101
:100B5800704700BF00ED00E038B50446FFF798FD88
:100B6800002C6DD023680022022184F8351084F807
:100B780034201A6822F0010205461A6005E0FFF7E2
:100B880087FD431B052B37D823681A68D107F6D48D
:100B9800D4E90120E16802430A43D4E90451A06979
:100BA8002A430A43E1691D6802430A43314929403F
:100BB800256A2A430A43616A042924D01A605A69BB
:100BC80022F007021143D8B22B4A59611038A2FB10
:100BD8000052120929496FF30903895CE1655F280E
:100BE80088BF04333F228A40A36500209A6001230E
:100BF800606584F8353038BD03232022626584F8A7
:100C08003530184638BDD4E90B51294311431960D2
:100C18005969A26A21F00701114341F00401002D2E
:100C2800D1D078B1B0F5005F16D0022A03D9032AD3
:100C3800C9D1EA01C7D540220123626584F835305D
:100C4800012038BD012A03D032F00202BBD1F0E7FF
:100C5800B5F1C07FB7D1EEE7032AB4D801A050F8A8
:100C680022F000BF3F0C00083B0C00083F0C0008B6
:100C7800590C00083F8010F0ABAAAAAA602100080E
:100C880070B50446866DFFF703FD94F83530022BE6
:100C980006D080236365002384F83430012070BDBA
:100CA80023681A6822F016021A605A6922F0800234
:100CB8005A61226C054642B31A6822F008021A608B
:100CC8001A6822F001021A6005E0FFF7E1FC431BF5
:100CD800052B10D823681B6813F00103F5D1E16DCB
:100CE8003F228A40184601210023B26084F835105B
:100CF80084F8343070BD032320226265184684F8D6
:100D08003530002384F8343070BDA26C002AD3D16A
:100D1800D6E700BF90F83530022B03D08023436517
:100D2800012070470268052380F83530136823F0E6
:100D38000103002013607047F0B583B0674A876DE0
:100D4800166800230193C36D3D6808229A402A4221
:100D5800044603D001680868400778D401229A4005
:100D68002A4203D02168496908066AD404229A40B5
:100D78002A4203D02168096889075CD410229A4066
:100D88002A4203D021680868000741D420229A40EB
:100D98002A4214D021680868C00610D5BA6094F8B1
:100DA8003520052A63D00B6813F4802F0B687ED09A
:100DB800190340F18980E36B0BB120469847636DB6
:100DC80023B3636DDA071AD522684549052384F8E9
:100DD80035301368A1FB061623F00103B60A136029
:100DE80002E01368DB0704D5019B0133B34201938A
:100DF800F7D90122002384F8352084F83430E36CD5
:100E080023B1204603B0BDE8F040184703B0F0BD59
:100E1800BA600A6812F4802F0A6822D1D20503D476
:100E28000A6822F008020A60226C002AAED0204626
:100E38009047E36DAAE7BA60626D42F0040262650A
:100E48009CE7BA60626D42F0020262658EE708684C
:100E580020F004000860BA60626D42F00102626529
:100E68007CE71103E0D5A26C002AE0D18EE70A687E
:100E780022F016020A604A6922F080024A61226C56
:100E88003AB30A6822F008020A603F2202FA03F322
:100E9800216DBB600122002384F8352084F83430AA
:100EA8000029B3D0204603B0BDE8F040084713F44A
:100EB800807380D10A6822F010020A60012284F847
:100EC800352084F8343076E7636C002B7FF475AFF7
:100ED80075E7A26C002AD4D1D7E700BF0000002034
:100EE800B5814E1B2DE9F04FAC4A0B68904285B096
:100EF8004FF000024FF0010B00F0DA80DFF8ACE2AF
:100F08008A4603E00132102A00F0A6800BFA02F1AB
:100F180001EA03069943F5D1DAF8044004F0030C1A
:100F2800510003250CF1FF378D40012F6FEA0505AD
:100F380058D9BCF1030F08D0C76807EA0508DAF8E2
:100F480008708F4047EA0807C76007680CFA01F184
:100F58003D40294314F4403F0160D3D0904D002117
:100F68000391696C41F480416964696C01F48041C2
:100F78000391039922F0030101F1804101F59C31AD
:100F880002F003078D68BF004FF00F0C0CFA07FC46
:100F980025EA0C08834DA84261D0834DA84200F091
:100FA8005E81DFF80CC2604500F06081DFF804C2A2
:100FB800604500F06981DFF800C2604500F06B8190
:100FC800DFF8F8C1604500F05881DFF8F4C16045EA
:100FD8000CBF4FF0070C4FF0080C0CFA07F748EA63
:100FE800070542E0876807EA0508DAF80C708F40C1
:100FF80047EA08078760476827EA0608C4F3001726
:10100800974047EA08074760C76807EA0508DAF81B
:1010180008708F4047EA0807BCF1020FC76094D1F7
:101028004FEAD20900EB890902F00708D9F82070C5
:101038000097DAF810704FEA880807FA08F701975E
:101048000F2707FA08F8009F27EA0808019F47EAD0
:101058000807C9F8207078E705B0BDE8F08F4FF0B1
:10106800010C0CFA07F748EA07058D60DEF808104E
:10107800F543E70254BF29403143CEF80810DEF8A3
:101088000C10A70254BF29403143CEF80C10DEF8EB
:101098000410A70354BF29403143CEF80410DEF8EA
:1010A8000010E40354BF29403143CEF8001029E76B
:1010B800DFF8ECA002E00132102ACDD00BFA02F4DE
:1010C80003EA04079C43F6D14D685400032606FA48
:1010D80004FC05F003096FEA0C0809F1FF3CBCF1B8
:1010E800010F6FD9B9F1030F0AD0D0F80CE08E6860
:1010F80008EA0E0E06FA04FC4CEA0E0CC0F80CC006
:10110800D0F800C009FA04F40CEA080C44EA0C040C
:1011180015F4403F0460CED000240394DAF844402C
:1011280044F48044CAF84440DAF8444004F4804463
:101138000394039C22F0030404F1804404F59C34D6
:1011480002F0030CD4F808E00F264FEA8C0C06FADC
:101158000CFC2EEA0C0CC4F808C0144CEE02A4686F
:101168006FEA070C79D404EA0C04104EB460F468F2
:10117800AE0270D404EA0C040C4EF4607468AE033A
:1011880067D40CEA0404094EED03746034685ED435
:101198000CEA0404054D2C608DE700BF00000240F6
:1011A800003802400004024000080240003C0140B0
:1011B800000C0240001002400014024000180240D7
:1011C800001C0240D0F808E0CE6808EA0E0E06FAC5
:1011D80004FC4CEA0E0CC0F808C0D0F804E0C5F3D3
:1011E800001C2EEA070E0CFA02FC4CEA0E0CC0F8A2
:1011F80004C0D0F80CE08E6808EA0E0E06FA04FC6B
:101208004CEA0E0CB9F1020FC0F80CC07FF478AFAD
:101218004FEAD20C4FEA8C0C0CF1804C0CF5003CD8
:1012280002F0070EDCF8206000960E694FEA8E0E79
:1012380006FA0EF601960F2606FA0EFE009E26EA1C
:101248000E0E019E46EA0E0ECCF820E058E73C430D
:10125800A0E73C4397E73C438EE73C4385E74FF0E4
:10126800020C0CFA07F748EA0705FEE64FF0030CF4
:101278000CFA07F748EA0705F7E64FF0060C0CFAF0
:1012880007F748EA0705F0E64FF0040C0CFA07F7F1
:1012980048EA0705E9E64FF0050C0CFA07F748EAB3
:1012A8000705E2E602B9090481617047002800F0E9
:1012B8006A812DE9F0410368DD0782B004462FD525
:1012C8009F498A6802F00C02042A00F0EF808A68BD
:1012D80002F00C02082A00F0E5806368B3F5803F4D
:1012E80000F0EE80B3F5A02F00F07981944D2A68C4
:1012F80022F480322A602A6822F480222A60002B95
:1013080040F0E380FFF7C4F9064605E0FFF7C0F9AF
:10131800801B642800F203812B689F03F6D423689E
:101328009D0728D5864A916811F00C0F00F092802D
:10133800916801F00C01082900F08880E368002B0F
:1013480000F010817F4B7E4E01221A60FFF7A0F952
:10135800054605E0FFF79CF9401B022800F2DF80F4
:1013680033689F07F6D53368226923F0F80343EA08
:10137800C203336023681A0753D45D0730D5704A17
:10138800136C13F0805300F0818000256E4E336893
:10139800D80540F1B480A368012B00F0C480052B68
:1013A80000F02D81664E326F22F001023267326FF3
:1013B80022F004023267002B40F0BA80FFF768F988
:1013C80041F28838074605E0FFF762F9C01B40453F
:1013D80000F2A580336F9B07F6D4002D40F00981F9
:1013E800A369D3B1564DAA6802F00C02082A00F08E
:1013F800CC80022B534B4FF000021A6600F0098193
:10140800FFF746F9044605E0FFF742F9001B0228FA
:1014180000F285802B689B01F6D4002002B0BDE85D
:10142800F08163690BB3474B454E0122C3F8802E08
:10143800FFF72EF9054604E0FFF72AF9401B0228BA
:101448006DD8736F9B07F7D5236896E752685102EA
:101458003FF574AF3A4A1268920744D5E268012A08
:1014680041D0012002B0BDE8F081364A344EC2F8BE
:10147800803EFFF70DF9054604E0FFF709F9401B28
:1014880002284CD8736F9F07F7D4DDE70193136CDC
:1014980043F080531364136C03F080530193019B52
:1014A800012573E74A6851027FF517AF244A12688D
:1014B80092037FF535AF6268002A7FF431AFD0E739
:1014C8001F4A136843F480331360FFF7E1F81C4E9A
:1014D800054604E0FFF7DCF8401B64281FD8336892
:1014E8009B03F7D51BE7164920690A6822F0F80222
:1014F80042EAC0020A601A077FF53FAF91E73368F6
:1015080043F480733360FFF7C3F807463368D9059F
:101518003FF541AFFFF7BCF8C01B0228F6D90320FE
:1015280002B0BDE8F081064A136F43F00103136768
:10153800FFF7AEF8024F064641F288380BE000BFCD
:10154800003802400000474200700040FFF7A0F852
:10155800801B4045E3D83B6F9A07F7D5002D3FF431
:101568003FAF46E0424A434E1360FFF791F8054605
:1015780004E0FFF78DF8401B0228D0D8336899079C
:10158800F7D42368F7E601207047012B3FF469AFD1
:101598006B68E26903F4800191427FF462AF226ACA
:1015A80003F03F0191427FF45CAF616A47F6C07275
:1015B8001A40B2EB811F7FF454AFA26A520803F4B9
:1015C8004031013AB1EB024F7FF44BAFE26A03F0CE
:1015D8007063B3EB026F14BF012000201EE7254B98
:1015E8001A6842F480221A601A6842F480321A603B
:1015F8006BE7204A136C23F080531364F0E61D4B0D
:101608001A6F42F004021A671A6F42F001021A6751
:101618008EE7FFF73DF8064605E0FFF739F8801B2F
:1016280002283FF67CAF2B689901F6D4D4E907313C
:10163800626A0B4343EA8213D4E90A2052080C4930
:1016480043EA0063013A43EA024301226B600A66F7
:10165800FFF71EF8074D044605E0FFF719F8001BD1
:1016680002283FF65CAF2B689A01F6D5D5E600BF95
:101678000000474200380240164908B58B6803F05D
:101688000C03042B1BD0082B01D0134808BD4A6853
:101698004B68496813F4800302F03F0211D10E48E9
:1016A800C1F38811A1FB0001FEF76AFD094B5B68D5
:1016B800C3F3014301335B00B0FBF3F008BD0748F7
:1016C80008BD0648C1F388110023A1FB0001FEF7FD
:1016D80057FDEBE7003802400024F400001BB70078
:1016E800002800F08780484A136803F007038B42FC
:1016F8002DE9F0410D46044609D2CBB213701368A8
:1017080003F007038B4202D00120BDE8F081236873
:10171800980714D5590704D53C498A6842F4E05221
:101728008A601A0704D539498A6842F460428A6097
:101738003649A0688A6822F0F00202438A60DF070F
:1017480021D56268012A57D0931E012B2F4B1B68A5
:101758004DD99907D8D52D4EB36823F00303134309
:10176800B360FEF795FF41F28838074604E0FEF7BC
:101778008FFFC01B404544D8B368626803F00C0370
:10178800B3EB820FF3D1204A136803F00703AB428F
:1017980006D9EBB21370136803F00703AB42B3D159
:1017A80023685A0706D51949E0688A6822F4E05286
:1017B80002438A601B0707D5144A2169936823F4FA
:1017C800604343EAC1039360FFF756FF0F4A104C8A
:1017D80092681049C2F303120346A25C0E48D34034
:1017E80000680B60FEF70AFF0020BDE8F081980151
:1017F800B1D489E701207047044B1B689E03AAD423
:1018080082E7032081E700BF003C02400038024025
:10181800502100080000002008000020044B054962
:101828009B68054A0868C3F38223D35CD840704795
:10183800003802400000002048210008044B0549F8
:101848009B68054A0868C3F34233D35CD8407047A5
:10185800003802400000002048210008002800F05D
:10186800878038B590F84130044603F0FF02002B1A
:1018780079D02368E068242284F84120DA6822F4C9
:101888000052DA601969A26821F4405101432069C5
:10189800196102436069D9680243E06921F416417D
:1018A80021F00C0102430A43DA605A69A069314900
:1018B80022F4407202438B425A6136D02E4A934238
:1018C80033D0FFF7ABFFE2691921B2F5004FD4E935
:1018D8000053A0FB01012BD09A009B0FFEF750FC90
:1018E800264AA2FB00135B09642101FB13000001D7
:1018F8003230A2FB00201B0103EB5013AB602A69B6
:1019080022F490422A616A6922F02A026A61EA682E
:101918000023202142F40052EA60636484F84110F5
:1019280084F842101846636338BDFFF787FFCAE79B
:10193800DA184FF000035B41FEF722FC0F4AA2FBC6
:1019480000314909642303FB1103DB003233A2FB96
:101958000323C3F342121B0902EB011203F4F873C9
:101968001344AB60CBE780F84020FEF7D1FD80E759
:101978000120704700100140001401401F85EB5101
:10198800704700BF704700BF704700BF08B5806B45
:101998000023C385C384FFF7F7FF08BD704700BF66
:1019A80083680168826AB3F5805F42D0002B39D022
:1019B8004B6803F07F031370826A0132C38D826221
:1019C800013B9BB2C385002B32D100B50268D168B8
:1019D80021F0200183B0D160D16821F48071D160F9
:1019E80051694FF0200C21F00101516180F842C08B
:1019F8004363016B012925D1036302F10C0353E80A
:101A0800003F23F0100302F10C0C4CE800310029D0
:101A1800F3D11368DB061AD4818DFFF7BFFF03B03B
:101A28005DF804FB0369002BC2D14B68DBB2C2E747
:101A380070470369002BF8D14B68C3F3080322F8F9
:101A4800023BBBE7FFF79EFF03B05DF804FB019183
:101A58001368019353680193019BDDE730B5036870
:101A68001A68DD68596912F00F0F83B0044613D164
:101A7800910602D5A90600F1BC80216B012945D049
:101A8800100602D5290600F1BE80520602D5680666
:101A980000F1D88003B030BD11F0010140F093800F
:101AA80015F4907FE9D0D0070CD5E80540F1F48013
:101AB800606C40F001006064500740F1D880002954
:101AC80040F08580900740F1D880100700F1E18050
:101AD800616C0029DED0910609D5AA0607D594F8CD
:101AE8004220222A03D12046FFF75AFF23685A6969
:101AF800616C02F0400201F0080152EA010540F071
:101B08000A812046FFF740FF6564C3E7D006B7D5D2
:101B1800E906B5D5002201921A6801925A68019225
:101B2800019A5A69550640F1BB80E06B0268526819
:101B380092B2002AAED0A18D9142ABD9E285C2699A
:101B4800B2F5807F36D003F10C0252E8002F22F460
:101B5800807203F10C0545E800210029F3D103F157
:101B6800140252E8002F22F0010203F1140545E89F
:101B780000210029F3D103F1140252E8002F22F0CA
:101B8800400203F1140545E800210029F3D1202281
:101B980084F84220216303F10C0252E8002F22F05E
:101BA800100203F10C0545E800210029F3D1FFF7E5
:101BB80067F8A18D02236363E38DC91A204689B2B1
:101BC800FFF7ECFE66E7D0074CD4500745D5616CAB
:101BD80041F002016164910741D5616C41F0040153
:101BE800616411077FF574AF616C41F008016164AD
:101BF8006EE790F84230222B7FF44CAF03B0BDE87B
:101C08003040FFF7CDBE94F84120212A7FF442AF3F
:101C1800A168226AB1F5805F00F0CD80511C216275
:101C280012785A60E28C013A92B2E284002A7FF478
:101C380031AFDA6822F08002DA60DA6842F04002F6
:101C4800DA6027E7DA68202122F04002DA602046CD
:101C580084F84110FFF794FE1CE79107BDD41107E3
:101C6800C2D435E7E8053FF523AF5007AFD4900756
:101C780003D500293FF429AFAFE710077FF528AF58
:101C880005F020000843AFD1626C002A7FF42FAF23
:101C980000E7A906A8D4F7E750073FF513AFE6E732
:101CA800E18DE28D92B289B2002A3FF4F3AEA28DA3
:101CB800511A89B200293FF4EDAE03F10C0252E843
:101CC800002F22F4907203F10C0545E8002000284B
:101CD800F3D103F1140252E8002F22F0010203F1BC
:101CE800140545E800200028F3D1202284F842207A
:101CF800206303F10C0252E8002F22F0100203F1D6
:101D08000C0545E800200028F3D102236363204630
:101D1800FFF744FEBEE6194601F10C0252E8002F17
:101D280022F490720C3141E8002019460028F3D1C2
:101D380003F1140252E8002F22F0010203F114000B
:101D480040E800210029F3D1226B012A22D0002289
:101D5800202184F8421022635A69550627D503F1D9
:101D6800140252E8002F22F0400203F1140040E868
:101D780000210029F3D1E06BC8B1144B0365FEF7CD
:101D8800C9FF00283FF486AEE06B036D03B0BDE8E1
:101D98003040184703F10C0252E8002F22F01002DD
:101DA80003F10C0040E800210029F3D1CFE72046D9
:101DB800FFF7EAFD6EE6216900297FF42FAF32F8BC
:101DC800021BC1F30801596022622BE7951900082C
:101DD800DFF834D0FEF776FB0C480D490D4A002396
:101DE80002E0D458C4500433C4188C42F9D30A4AC8
:101DF8000A4C002301E013600432A242FBD300F036
:101E080011F8FEF70FFB70470000022000000020C9
:101E18000C00002078210008100000200401002098
:101E2800FEE7000070B50D4D0D4C641BA410002694
:101E3800A64209D10B4D0C4C00F076F9641BA41096
:101E48000026A64205D170BD55F8043B98470136D7
:101E5800EEE755F8043B98470136F2E77021000891
:101E68007021000870210008742100082DE9F0474E
:101E78008C468E46089E154604461946002B40F0AF
:101E8800D080724547D9B2FA82F74FB1C7F1200323
:101E98000EFA07FC20FA03F3BD4043EA0C0CBC40E1
:101EA8004FEA154EA8B2BCFBFEF8230C0EFB18CC6B
:101EB80008FB00F943EA0C43994528D9EB1808F1C7
:101EC800FF3204D2994502D9A8F102022B44A3EBB0
:101ED8000903A4B2B3FBFEFC0EFB1C330CFB00F0A1
:101EE80044EA0344A04214D92C190CF1FF3304D25C
:101EF800A04202D9ACF102032C44241A43EA02405E
:101F08001EB1FC40002334607360BDE8F087424690
:101F1800DDE76346F1E7002A79D0B2FA82F3002BB5
:101F28003FD01946C1F1200302FA01F52EFA03F257
:101F38000EFA01FE20FA03F343EA0E034FEA154EA8
:101F480000FA01F4B2FBFEFCAFB20EFB1C201A0C27
:101F58000CFB07F842EA004290455AD9AA180CF13E
:101F6800FF3004D2904502D9ACF102002A44A2EB1A
:101F780008029BB2B2FBFEFC0EFB1C220CFB07F70F
:101F880043EA02439F4246D9EB180CF1FF3204D2D0
:101F98009F4202D9ACF102022B44DB1B42EA004209
:101FA80002E0AEEB020301224FEA154EAFB2B3FBDB
:101FB800FEFC200C0EFB1C330CFB07F840EA034325
:101FC80098452AD9EB180CF1FF3004D2984502D96C
:101FD800ACF102002B44A3EB0803A4B2B3FBFEFC54
:101FE8000EFB1C330CFB07F744EA0344A74216D93F
:101FF8002C190CF1FF3304D2A74202D9ACF1020329
:102008002C44E41B43EA00400F46114678E71F21A1
:1020180088E76046ABE76246BFE76046DBE76346B2
:10202800EFE7734506D916B9002108466DE7C6E9FA
:10203800000EF9E7B3FA83F787B9734501D38242F3
:1020480007D8841A6EEB030301209C461EB90021B1
:102058005BE73846FAE7C6E9004CF8E7C7F1200C19
:10206800BB4022FA0CF51D4320FA0CF12EFA0CF3B2
:102078000EFA07FE41EA0E014FEA154900FA07F485
:10208800B3FBF9F81FFA85FE09FB18300B0C08FBA7
:102098000EFA43EA00439A4502FA07F240D9EB18D0
:1020A80008F1FF3004D29A4502D9A8F102002B4466
:1020B800A3EB0A0389B2B3FBF9F809FB183308FB51
:1020C8000EFE41EA03418E452CD9691808F1FF3309
:1020D80004D28E4502D9A8F10203294443EA0040FC
:1020E800A0FB0298A1EB0E014145CE46434602D320
:1020F80006D14C4504D2B9EB020E68EB0503013852
:10210800002EA4D0B4EB0E0261EB030101FA0CFC23
:1021180022FA07F34CEA0303F940C6E9003196E7CF
:102128004046C5E74346D9E7F8B500BFF8BC08BC48
:102138009E467047F8B500BFF8BC08BC9E4670477D
:10214800000000000102030400000000000000007D
:1021580001020304060708090006101600061016F7
:082168000CFDFF7F01000000E7
:04217000E101000881
:04217400BD010008A1
:0C2178000024F400010000001000000032
:0400000508001DD9F9
:00000001FF
