:020000040800F2
:1000000068080020F1010008AD270008A5270008B6
:10001000A927000819140008212B0008000000007F
:10002000000000000000000000000000D9270008C8
:100030001D14000800000000AF270008DB2700089F
:100040000B0200080B0200080B0200080B0200085C
:100050000B0200080B0200080B0200080B0200084C
:100060000B0200080B0200080B0200080B0200083C
:100070000B0200080B0200080B0200080B0200082C
:100080000B0200080B0200080B0200080B0200081C
:100090000B0200080B0200080B0200080B0200080C
:1000A0000B0200080B0200080B0200080B020008FC
:1000B0000B0200080B0200080B0200080B020008EC
:1000C0000B0200080B0200080B0200080B020008DC
:1000D0000B020008FD2A00080B0200080B020008B2
:1000E0000B0200080B0200080B0200080B020008BC
:1000F0000B0200080B0200080B0200080B020008AC
:100100000B0200080B0200080B0200080B0200089B
:100110000B020008E52700080B0200080B0200088C
:100120000B0200080B0200080B0200080B0200087B
:1001300000F002F800F04DF80AA090E8000C8244AC
:100140008344AAF10107DA4501D100F042F8AFF289
:10015000090EBAE80F0013F0010F18BFFB1A43F0A5
:100160000103184794C70000B4C70000103A24BF29
:1001700078C878C1FAD8520724BF30C830C144BF0C
:1001800004680C607047000000230024002500264E
:10019000103A28BF78C1FBD8520728BF30C148BFEA
:1001A0000B607047662909F07583642900F04E8062
:1001B000782900F08780002070471FB500F0DAFB37
:1001C00004000020002109F00FF8E0601FBD10B509
:1001D00010BD00F0EBFC1146FFF7EFFF08F008FF41
:1001E00000F009FD03B4FFF7F2FF03BC02F0D1FCFD
:1001F0000948804709480047FEE7FEE7FEE7FEE7BB
:10020000FEE7FEE7FEE7FEE7FEE7FEE704480549F6
:10021000054A064B70470000E3270008310100083B
:10022000680200206808002068040020680400209C
:10023000704700000FB4044910B503AA029800F0FB
:1002400087FB10BC5DF814FB080000202DE9F0418D
:100250000646002410687529314616A510D0AFF364
:100260000080002802DA404213A507E031688A07BF
:1002700001D512A502E0490704D511A5012401E02A
:10028000AFF3008000210A2206F1240709E0B0FB49
:10029000F2FCB0FBF2F302FB1C003030785418463D
:1002A000491C0028F3D123462A463046BDE8F041D8
:1002B00000F0E6B8000000002D0000002B00000058
:1002C0002000000070B504460D4621461068AFF3CB
:1002D00000802188090502D50F4A7A4402E00E4ABF
:1002E0007A440E32002104F1240305E000F00F06E9
:1002F0000009965D5E54491C0028F7D12078002340
:10030000000704D5702D02D009B102231132204616
:10031000BDE8704000F0B4B85EC500002DE9F047BC
:100320004FF0000A89460446C0F820A02046E16844
:100330008847002876D0252806D0D4E901219047A7
:10034000206A401C2062F1E7E168204600258847CA
:10035000C4F81CA006460027C4F818A02A2E09D00D
:10036000304602F00FFC38B304EB8708303EC8F883
:10037000186019E059F8041B204604EB87029161CC
:10038000E1688847012F064618D1E069002820DA85
:1003900025F020051DE0D8F8180000EB800006EBE2
:1003A00040003038C8F818002046E1688847064603
:1003B00002F0E8FB0028EED1012F0AD02E2E08D142
:1003C0002046E16888477F1C0646022F45F020053D
:1003D000C4DBA069002803DA404245F00105A061B2
:1003E000E80701D025F01005B6B1A6F141001928A3
:1003F00002D8203645F400654A463146204625603D
:100400004D46FFF7CFFE58B1012806D0ED1D25F06F
:10041000070000F1080989E704E005F1040985E710
:1004200030468AE7206ABDE8F0874FF0000200B549
:10043000134694469646203922BFA0E80C50A0E807
:100440000C50B1F12001BFF4F7AF090728BFA0E8B5
:100450000C5048BF0CC05DF804EB890028BF40F881
:10046000042B08BF704748BF20F8022B11F0804FC3
:1004700018BF00F8012B70477047704770477047EE
:100480002DE9F0470D4699469246044600F12408AE
:100490000168880604D5E06921F01001216000E0C0
:1004A0000120A84201DD471B00E00027A1697A195D
:1004B00002EB0900081AA0612078C00602D4204689
:1004C000AFF30080002608E0D4E901211AF8060005
:1004D0009047206A401C761C20624E45F4DB207851
:1004E000C0060AD52046AFF3008006E0D4E901211A
:1004F00030209047206A401C2062381EA7F1010777
:10050000F4DC07E0D4E9012118F805009047206ADF
:10051000401C2062281EA5F10105F3DC2046AFF344
:1005200000802078000602D50220BDE8F087012077
:10053000FBE770472DE9FF4F0C461E464FF0FF3793
:100540008BB0D2E90001DDF860800A908A46C1F3E1
:100550000A5505B93D46002108464FF00000BAF1A2
:10056000000F00F4400005DA00EB80004FF440017A
:1005700001EA50004FEA9059B9F1010F00DDB94688
:100580000A9850EA4A000ED044F61050A5F2FF3502
:1005900045432F14B8F1000F1ED07542291E1EDDF1
:1005A000C9F100021CE0B8F1010F4FF0000001D0CA
:1005B000302103E0F24305E02154401CB042FBDB54
:1005C00030460022002121540B99C1F80880C1E96E
:1005D00000200FB0BDE8F08FBD1B6D1CDEE74A4662
:1005E00000DA694206A800F067FA06AB93E8070054
:1005F00003AB83E8070050460A9900F045FB8DE8FD
:100600000700A0F500501F3800900398002D0ADD68
:1006100042F21F014A460844002303A9039068469A
:1006200000F0AEFD09E0A0F500504A461F38002357
:1006300003A90390684600F0B8FD8DE807000004A8
:10064000000C03D04FF0FF30410800E01046B8F135
:10065000000F03D00022009215461EE0751E05D43F
:1006600000F08CF9303262556D1EF9D5B346012287
:10067000084302D000227F1C04E02078302801D1FA
:1006800000227F1E002A099784D01DE0112D07DA71
:1006900000F074F9303262556D1C50EA0102F5D158
:1006A000084302D00098C8B10EE00021681E05E0A2
:1006B000235C625C63542254401E491C8142F7DB78
:1006C000AB46A81B401E0990002004F80B000B98B5
:1006D000099AC0F80880C0E9002B7AE711264FF08C
:1006E000000857E72DE9F04F88460446D21D22F056
:1006F000070191B0D1E90001CDE90A0102F012FA37
:1007000002460B98C00F01D02D2007E0206881071A
:1007100001D52B2002E0202101EAC000032A099024
:1007200001D0072A05DB03464146204600F084F944
:100730000BE12078800601D5E06900E00620B8F1E1
:10074000650F814606D0B8F1660F18D0B8F1670F73
:1007500070D131E00020B9F1110F009001DB1123BD
:1007600001E009F101030AAA01A90CA8FFF7E2FEC2
:10077000DDE90C70002609F10105834647E0012000
:100780004B4600904FF000470AAA01A90CA8FFF7BA
:10079000D1FEDDE90DB00C995D46002610B909F1D6
:1007A00001000D18B9EB050003D4C0F1FF3609F1C3
:1007B0000105A5EB09002BE0B9F1010F01DA4FF0BB
:1007C00001090020B9F1110F0090484601DD112305
:1007D00000E003460AAA01A90CA8FFF7ABFEDDE979
:1007E0000C704D4600268346207800070AD4AB459E
:1007F00000DA5D4601A8012D04DD411911F8011C44
:10080000302907D04F4502DA17F1040F04DA01202E
:1008100082460FE06D1EEEE7002F02DCED1B3E442A
:1008200003E0781CA84200DD7D1CB81B00F1010A22
:100830004FF000472078000703D4AA4501DB4FF0B2
:10084000FF3A0021B7F1004F0DF143088DF8431036
:1008500024D002202B23002F01DA7F422D230A21EE
:10086000021EA0F1010000DC5FB197FBF1FC97FBD9
:10087000F1F201FB1C7C17460CF1300C08F801CD9D
:10088000EEE7A8F1010003702188090501D5452193
:1008900000E06521A0F1010800F8011C09980FA9EA
:1008A000A1EB0807FF1D00B10120411901EBEA701F
:1008B000A1693844081A401EA0612078C00602D4FD
:1008C0002046AFF30080099828B1D4E90121904770
:1008D000206A401C20622078C00622D52046AFF353
:1008E00000801EE0002E04DBB34502DD01A8805D20
:1008F00000E03020D4E901219047206A401C2062AA
:10090000761CAAF101005FEA000A0AD100F032F871
:10091000C0680168405CD4E901219047206A401C0E
:100920002062281EA5F10105DCDC07E0D4E90121E5
:1009300018F8010B9047206A401C2062381EA7F16E
:100940000107F3DC2046AFF30080032011B041E63D
:10095000074B70B50D467B4400F05BF80446284613
:1009600000F01CF910B14FF0FF3070BD204670BD93
:100970005B300000004870472802002030B5B0F11D
:100980000A024FEA900E71F100034EEA817EB0EB4D
:100990000E0061EB91014FEA101E4EEA017E10EB52
:1009A0000E0041EB11114FEA102E4EEA016E10EBD2
:1009B0000E0041EB11214FEA104E4EEA014E10EBB2
:1009C0000E0041EB1141401841F100014FEAD00007
:1009D00040EA41704FEAD10110EB80054FEA8104F3
:1009E00044EA907444EB01046D1944EB0404521B77
:1009F000A3414FF0000348BF0A3200D530BD401C70
:100A000041F1000130BD000001694A1C0261087813
:100A1000704700B58FB0CDE901310021059105493E
:100A20007944CDE9031011466846FFF777FC0FB013
:100A300000BD0000E5FFFFFF2DE9F0411F46044621
:100A400003260168072A01F4006004DB08B116A53B
:100A500005E016A503E008B115A500E015A521F0F5
:100A600010002060A069C01EA0610FB1401EA061EF
:100A70002046AFF300804FB1D4E9012138469047BA
:100A8000206A401C2062C01C206206E0206AFAE74F
:100A9000D4E9012115F8010B9047761EF8D22046C3
:100AA000AFF30080BDE8F0814E414E006E616E00F4
:100AB000494E4600696E66002DE9F04781461646AC
:100AC0008AB0354878440DC88DE80D003248784426
:100AD000801C03AC0DC884E80D0041F69B3008442F
:100AE000372190FBF1F290FBF1F5A5F1800501FBB8
:100AF00012041B3C02D56442012000E00020DFF814
:100B000098A080460027FA44AAF1BE0A0EE0E0074A
:100B10000AD03246684607EB470101230AEB810100
:100B200000F043FB8DE8070064107F1C002CEED121
:100B3000194F7F44AE3F19E0E80715D007EB0410CA
:100B40000DF1180A90E80E008AE80E00C068F04225
:100B500001D1981908903246012306A903A800F094
:100B600024FB03AB83E807006D10641C002DE3D168
:100B70004FF0010332466946B8F1000F03A802D0D6
:100B800000F0FEFA01E000F010FBC9E90001C9F82D
:100B900008200AB0BDE8F08718BE0000007B00F016
:100BA0008000704700487047080200207546FFF734
:100BB000F9FFAE4605006946534620F0070085461A
:100BC00018B020B5FFF722FBBDE820404FF000062B
:100BD0004FF000074FF000084FF0000B21F0070125
:100BE000AC46ACE8C009ACE8C009ACE8C009ACE868
:100BF000C0098D46704710B50446AFF3008020460B
:100C0000BDE81040FFF7EEBA4FF0013C50F8042B5E
:100C100051F8043B9A4221D1A2EB0C03934313EA0F
:100C2000CC1317D150F8042B51F8043B9A4215D13C
:100C3000A2EB0C03934313EACC130BD150F8042B13
:100C400051F8043B9A4209D1A2EB0C03934313EAF7
:100C5000CC13DBD04FF00000704700BFD01A01BAB0
:100C6000B1FA81F101F0180122FA01F0CB40C1F193
:100C70002001DBB2C0B2C01A2CFA01F3D11A9143A1
:100C800011EAC311E6D170475FEA400C08BF91F04A
:100C9000000F4FEA8C234FEAC12243EA51514FEA39
:100CA0001C5018BF00F5F0404FEA300018BF41F06B
:100CB00000415FEA6C5C00F02980BCF1FF3F08BF97
:100CC00040F080407047130C06BF12044FF0100C28
:100CD0004FF0000C130E04BF12020CF1080C130F9E
:100CE00004BF12010CF1040C930F04BF92000CF12D
:100CF000020CD30F04BF52000CF1010C11464FF04F
:100D00000002A0F11F00A0EB0C00704711F0004F93
:100D100008BF704731F000413FF4D5AF0B0C06BF60
:100D200009044FF0100C4FF0000C0B0E04BF090229
:100D30000CF1080C0B0F04BF09010CF1040C8B0F14
:100D400004BF89000CF1020CCB0F04BF49000CF169
:100D5000010CCCF12003A0EB0C0022FA03F302FA01
:100D60000CF241EA030100F10100704720F07F4CD2
:100D700080EA030023F07F47ACEB070303F57C53C5
:100D800000F0004003F1FF032DE980494FEA154BC5
:100D900009B44FEA144325EA0B4E24EA03480FF244
:100DA000042606EB132749083E785FEA320203FB6C
:100DB0000667C7F5000707FB06F64FEA54374FEA08
:100DC000D64606F1020607FB066CCCF1005C4FEA42
:100DD0001C472CEA074C07FB06F40CFB06F504EB5A
:100DE00015464FEA961634BF00204FF000404FEAF8
:100DF000D13706FB07FC4FEA1C4C0CFB0BF7D21B50
:100E000003FB0CF761EB07010CFB0EF7B0EB07409F
:100E100072EB17420CFB08F734BFA2EB0742B2EBB0
:100E2000074261EB17414FEA0C444FEA910706FB7A
:100E300007FC4FEA1C4C0CFB0BF7B0EBC74072EB06
:100E4000573203FB0CF734BFA2EBC742B2EBC742E9
:100E500061EB57310CFB0EF7B0EBC70072EB57722A
:100E60000CFB08F734BFA2EBC702B2EBC70261EB81
:100E70005771039F4FEA816141EA921104EBCC0460
:100E80004FEAD1374FEA826206FB07FC42EA901232
:100E90004FEA80604FEA1C4C0CFB0BF7D21B03FBA4
:100EA0000CF761EB07010CFB0EF7B0EB074072EBA0
:100EB00017420CFB08F734BFA2EB0742B2EB074224
:100EC00061EB17414FEA8C554FEA910704EB9C24E4
:100ED00006FB07FC4FEA1C4C0CFB0BF7B0EBC740C2
:100EE00072EB573203FB0CF734BFA2EBC742B2EBF5
:100EF000C74261EB57310CFB0EF7B0EBC70072EB4A
:100F000057720CFB08F734BFA2EBC702B2EBC70263
:100F100061EB577115EB4C254FEA816141EA921163
:100F20004FEA82624FEAD13742EA901206FB07FC91
:100F300044F100044FEA80604FEA1C4C0CFB0BF7B5
:100F4000D21B03FB0CF761EB07010CFB0EF7B0EBB8
:100F5000074072EB17420CFB08F734BFA2EB0742C5
:100F6000B2EB074261EB174115EB1C154FEA8131DB
:100F700041EA92414FEA823242EA90424FEA80309F
:100F80004FEA0C7644F1000448EA03434EEA0B486A
:100F90004FF0000EB2EB080C71EB030724BF624662
:100FA00039464EEB0E0E4FF0000B001852414941EE
:100FB0004BEB0B0BB2EB080C71EB03077BF1000B57
:100FC00024BF624639464EEB0E0E4FF0000B001860
:100FD000524149414BEB0B0BB2EB080C71EB030791
:100FE0007BF1000B24BF624639464EEB0E0E51EAF0
:100FF000020718BF46F0010616EB0E7655F1000207
:1010000054F1000103D5BDE88901BDE80088BDE8C1
:101010008901BDE80048B619524141EB0101A3F135
:101020000103704780807F7E7D7C7B7A797877763C
:1010300076757473727171706F6E6E6D6C6C6B6AB5
:101040006A69686867666665646463636261616053
:10105000605F5F5E5E5D5D5C5C5B5B5A5A595958D0
:10106000585757565655555554545353525252513A
:10107000515050504F4F4F4E4E4D4D4D4C4C4C4B90
:101080004B4B4A4A4A4949494848484747474746D7
:101090004646454545444444444343434342424213
:1010A00042414141002B9C4630D477002BD01CB5E7
:1010B0004FEA370703B44FF010004FF01001BAF1B8
:1010C000000F06D0BCF1000FDCBF40F0080040F07C
:1010D00008014FF000000FBCBDE810400BF1010B00
:1010E000BBF1010F08BF5FEA170722BF12F101022F
:1010F00011F101014FF0004143F1000300F0004005
:1011000043EA00007047F9D35708D0E746EA06469D
:1011100013F1400F4FEA16461FDD13F1200FDFBF1A
:1011200016430A46002120335B42BED0C3F120079C
:1011300046EA064602FA07F74FEA164646EA070667
:10114000C3F1200722FA03F201FA07F721FA03F1AB
:101150004FF0000342EA0702A7E746EA020646EA22
:1011600006464FEA164646EA0106BCBF46EA064670
:10117000360C4FF000034FF000024FF0000194E7EF
:101180002DE9804C9A46934670B491E8380007C820
:1011900031EA400C48BF34EA430C03D5FFF7E6FDC3
:1011A000FFF780FFF0BCBDE8008C2DE9804C9A462B
:1011B000934670B491E8380007C810F0804F08BF1C
:1011C00013F0804F03D100F005F8FFF76BFFF0BC80
:1011D000BDE8008C20F07F4780EA030023F07F4CBD
:1011E00007EB0C03A3F57C5300F00040A3F1FE03D2
:1011F00092F0000F00F0B38095F0000F00F07780C0
:101200002DE901494FEA11404FEA144621EA00480E
:1012100000FB06FC24EA064708FB06F607FB08F875
:1012200000FB07F718EB06484CEB164C4FEA124B45
:1012300018EB07484FEA15464CEB174022EA0B4ED5
:101240000BFB06FC25EA06470EFB06F607FB0EFE27
:101250000BFB07F71EEB064E4CEB164C4FF000064F
:101260001EEB074E4CEB174B18EB0B0840F1000040
:1012700018EB0E0B58EB000840F100008F1A4FF0EE
:1012800000013CBFC943661B14BFB5EB040C002131
:101290003CBFC943F61B4FEA17444EEA8E0E27EABD
:1012A00004454FEA1C4704FB07622CEA074C05FB88
:1012B00007F70CFB05F604FB0CFC16EB074642EBAC
:1012C000174216EB0C4642EB1C421BEB060658EB92
:1012D0000202414146EA9E0601D5BDE80189B619E0
:1012E000524141EB0101A3F10103BDE801894FEA3D
:1012F00014454FEA114724EA054621EA074C05FB4D
:1013000007F406FB07F70CFB06F105FB0CFC11EBE1
:10131000074144EB17444FEA124711EB0C4144EBF1
:101320001C4422EA074C05FB07F206FB07F70CFBFF
:1013300006F605FB0CFC16EB074642EB174216EBD4
:101340000C4642EB1C456A1854F1000148BF704737
:10135000B619524141EB0101A3F10103704795F029
:10136000000F37D04FEA11424FEA144721EA0246F4
:1013700024EA074C02FB07F106FB07F70CFB06F417
:1013800002FB0CFC14EB074441EB17414FEA1547F5
:1013900014EB0C4441EB1C4125EA074C02FB07F51A
:1013A00006FB07F70CFB06F602FB0CFC16EB0746E8
:1013B00045EB174516EB0C4645EB1C42121951F153
:1013C000000148BF7047B619524141EB0101A3F13A
:1013D000010370474FEA14454FEA114724EA0546D6
:1013E00021EA074C05FB07F106FB07F70CFB06F2A9
:1013F0004FF0000605FB0CFC12EB074241EB1741D6
:1014000012EB0C4251EB1C4148BF7047921841EB64
:101410000101A3F10103704700BFFEE77047000020
:1014200070B50446002594F82100022803D004205A
:10143000A0630125C1E02068006820F00E0021684B
:1014400008602068006820F00100216808605C499D
:101450002068884252D95A4978392068884201D197
:10146000012047E0564964392068884201D11020A4
:1014700040E0534950392068884201D1801539E055
:101480004F493C392068884201D1801432E04C49F0
:1014900028392068884202D14FF480302AE0484938
:1014A00014392068884202D14FF4801022E0444968
:1014B0002068884201D140041CE0424920688842EB
:1014C00001D1012016E03F4914312068884201D142
:1014D00010200FE03B4928312068884201D1801557
:1014E00008E038493C312068884201D1801401E08D
:1014F0004FF480303349091F086051E03049783992
:101500002068884201D1012047E02D4964392068D4
:10151000884201D1102040E0294950392068884292
:1015200001D1801539E026493C392068884201D133
:10153000801432E0224928392068884202D14FF4D1
:1015400080302AE01E4914392068884202D14FF4C5
:10155000801022E01A492068884201D140041CE032
:1015600018492068884201D1012016E0154914313C
:101570002068884201D110200FE0124928312068EC
:10158000884201D1801508E00E493C31206888422C
:1015900001D1801401E04FF480300949803948605E
:1015A000012084F8210000BF002084F8200000BF43
:1015B000606B10B12046616B8847284670BD000003
:1015C00080000240080402402DE9F847024600234B
:1015D0009C467BE14FF0010808FA03F4D1F8008043
:1015E00008EA0400A0427DD1DFF8F4A2D1F804801B
:1015F000A8EB0A09D0453AD014DCB8F1030F50D05B
:1016000009DCB8F1000F31D0B8F1010F1CD0B8F1EE
:10161000020F49D120E0B8F1110F18D0B8F1120F24
:1016200042D11EE0B9F5881F25D006DCB9F5803F10
:1016300020D0B9F5801F37D11AE0B9F5001F18D0B6
:10164000B9F5041F30D117E0D1F80CC02DE0D1F866
:101650000C8008F1040C28E0D1F80C8008F1080C8B
:1016600023E0D1F80C8008F10C0C1EE000BF00BF95
:1016700000BF00BF00BF00BFD1F80880B8F1000F65
:1016800002D14FF0040C0BE0D1F80880B8F1010F43
:1016900003D14FF0080C146102E04FF0080C5461C4
:1016A00003E04FF0000C00E000BF00BFFF2801D8AE
:1016B000904601E002F104084646FF2802D84FEAAE
:1016C000830803E0A3F108084FEA88084746D6F8E4
:1016D00000804FF00F0909FA07F928EA09080CFA07
:1016E00007F900E07AE048EA0908C6F80080D1F876
:1016F000048008F08058B8F1805F6FD100BFDFF838
:10170000E481D8F8188048F00108DFF8D891C9F8CA
:101710001880C846D8F8188008F00108CDF8008075
:1017200000BF00BF4FEAB9384FEA930958F8295073
:101730004FEA83784FEA18794FF00F0808FA09F852
:1017400025EA0805DFF8A081424502D14FF00008E4
:1017500024E0DFF89881424502D14FF001081DE0F6
:10176000DFF88C81424502D14FF0020816E0DFF825
:101770008481424502D14FF003080FE0DFF8788101
:10178000424502D14FF0040808E0DFF8708142457D
:1017900002D14FF0050801E04FF006084FEA8379C7
:1017A0004FEA197908FA09F848EA0505DFF8508187
:1017B0004FEA930948F82950D1F8048008F480389A
:1017C000B8F5803F0BD1DFF83C81D8F8008048EABB
:1017D0000008DFF83091C9F800800AE075E0DFF812
:1017E0002481D8F8008028EA0008DFF81891C9F8A9
:1017F0000080D1F8048008F40038B8F5003F0ED11D
:10180000DFF8008108F10408D8F8008048EA0008F1
:10181000DFF8F09009F10409C9F800800DE0DFF865
:10182000E48008F10408D8F8008028EA0008DFF80E
:10183000D49009F10409C9F80080D1F8048008F4B3
:101840008018B8F5801F0ED1DFF8B88008F10808BD
:10185000D8F8008048EA0008DFF8A89009F10809E4
:10186000C9F800800DE0DFF89C8008F10808D8F87E
:10187000008028EA0008DFF88C9009F10809C9F80F
:101880000080D1F8048008F40018B8F5001F0ED1CC
:10189000DFF8708008F10C08D8F8008048EA0008EA
:1018A000DFF8609009F10C09C9F800800DE0DFF85D
:1018B000548008F10C08D8F8008028EA0008DFF806
:1018C000449009F10C09C9F800805B1CD1F8008034
:1018D00028FA03F8B8F1000F7FF47CAEBDE8F88772
:1018E000000011100010024000080140000C0140EF
:1018F000001001400014014000180140001C01408C
:101900000800014000040140024693680B400BB1FF
:10191000012000E00020704710B5C26821EA0203F0
:1019200002EA010443EA0443036110BD0AB1016104
:1019300001E00B0403617047014800687047000034
:101940001000002003480068034909780844014951
:1019500008607047100000201800002010B50848EB
:10196000006840F0100006490860052000F080F88B
:101970000F2000F007F800F02BF8002010BD000049
:101980000020024070B504460E4800784FF47A718A
:10199000B1FBF0F00C490968B1FBF0F5284600F006
:1019A000F7FB08B1012070BD102C07D200222146A0
:1019B000501E00F01EF80548046001E00120F2E727
:1019C0000020F0E718000020000000201400002094
:1019D000704701460846002809DB00F01F0301227A
:1019E0009A4043099B0003F1E023C3F8002100BFA4
:1019F00070472DE9F05F80460D461646002701F03E
:101A0000A5F8074639462A46334601F00700C0F1DB
:101A1000070ABAF1040F02D94FF0040A01E0C0F13D
:101A2000070AD14600F1040ABAF1070F02D24FF0BB
:101A3000000A01E0A0F1030AD4464FF0010A0AFAB5
:101A400009FAAAF1010A0AEA020A0AFA0CFA4FF0A4
:101A5000010B0BFA0CFBABF1010B0BEA030B4AEA8F
:101A60000B042146404601F079F8BDE8F09F0000E4
:101A700000BF00F00702064B19684FF6FF0319403C
:101A8000044B0B4343EA0221014B196000BF70472E
:101A90000CED00E00000FA0570B504460D460CB9E7
:101AA000012070BD5A48006800F00700A8420ED21D
:101AB0005748006820F00700284355490860084649
:101AC000006800F00700A84201D00120E9E7207873
:101AD00000F0020002281DD1207800F00400042844
:101AE00005D14C48406840F4E0604A49486020789D
:101AF00000F00800082805D14648406840F46050CE
:101B0000444948604348406820F0F000A168084319
:101B100040494860207800F0010078B360680128EF
:101B200006D13C48006800F4003090B90120B8E7C5
:101B30006068022806D13748006800F0007040B99C
:101B40000120AEE73348006800F0020008B9012028
:101B5000A7E73048406820F00300616808432D493A
:101B60004860FFF7E9FE064609E0FFF7E5FE801B47
:101B700041F28831884202D9032092E707E02548E4
:101B8000406800F00C006168B0EB810FEDD1204897
:101B9000006800F00700A8420ED91D48006820F038
:101BA000070028431A4908600846006800F007004B
:101BB000A84201D0012074E7207800F00400042836
:101BC00007D11448406820F4E060E16808431149F7
:101BD0004860207800F00800082808D10D484068C7
:101BE00020F46050216940EAC1000A49486000F0D1
:101BF0003FF808494968C1F30311074A515CC840DE
:101C00000649086006480068FFF7BCFE002048E768
:101C100000200240001002409898000800000020B8
:101C200014000020014800687047000000000020F8
:101C300000B5FFF7F7FF04494968C1F30221034AE1
:101C4000515CC84000BD000000100240A898000888
:101C500000B5FFF7E7FF04494968C1F3C221034A11
:101C6000515CC84000BD000000100240A898000868
:101C7000F0B585B00FF26C0C9CE8E01001A8A0E86C
:101C8000E0101CA52D6800950021002200230024EF
:101C90000020194D696801F00C05F5B1042D02D042
:101CA000082D19D101E0154819E001ADC1F38346B3
:101CB000AC5D01F4803555B10F4D6D68C5F34045FD
:101CC0001DF805200D4D6543B5FBF2F302E00C4D08
:101CD00004FB05F3184602E000BF084800BF00BF40
:101CE00005B0F0BD02030405060708090A0B0C0D38
:101CF0000E0F1010010200000010024000127A00C6
:101D000000093D00F8B504460CB90120F8BD207863
:101D100000F00100002878D0F848406800F00C007E
:101D200004280CD0F548406800F00C00082811D1B8
:101D3000F248406800F48030B0F5803F0AD1EF48A7
:101D4000006800F4003000285FD0606800285CD193
:101D50000120DBE700BF6068B0F5803F06D1E748AF
:101D6000006840F48030E549086028E0606858B9B0
:101D7000E248006820F48030E049086008460068C6
:101D800020F4802008601AE06068B0F5A02F0BD125
:101D9000DA48006840F48020D849086008460068A6
:101DA00040F4803008600AE0D448006820F48030B5
:101DB000D24908600846006820F48020086000BF0F
:101DC000606888B1FFF7B8FD054606E0FFF7B4FD8F
:101DD000401B642801D9032098E7C848006800F434
:101DE00000300028F2D010E0FFF7A6FD054606E01F
:101DF000FFF7A2FD401B642801D9032086E7BF48F6
:101E0000006800F400300028F2D1207800F00200D1
:101E1000022857D1B948406800F00C0050B1B748CB
:101E2000406800F00C00082818D1B448406800F45D
:101E3000803098B9B148006800F0020020B12069F4
:101E4000012801D0012061E7AC48006820F0F800CB
:101E5000616940EAC100A949086033E02069E8B13E
:101E60000120A7490860FFF767FD054606E0FFF778
:101E700063FD401B022801D9032047E79F48006803
:101E800000F002000028F2D09C48006820F0F80022
:101E9000616940EAC1009949086013E0002098494F
:101EA0000860FFF749FD054606E0FFF745FD401BCA
:101EB000022801D9032029E79048006800F00200B9
:101EC0000028F2D1207800F0080008282DD1A06960
:101ED000B8B101208B490860FFF72EFD054606E0EA
:101EE000FFF72AFD401B022801D903200EE7834893
:101EF000406A00F002000028F2D0012000F058FCF7
:101F000013E000207F490860FFF716FD054606E054
:101F1000FFF712FD401B022801D90320F6E677489F
:101F2000406A00F002000028F2D1207800F004009E
:101F3000042873D100277148C06900F0805070B93F
:101F400000BF6E48C06940F080506C49C8610846C7
:101F5000C06900F08050009000BF00BF01276A48B0
:101F6000006800F48070B0B96748006840F4807081
:101F700065490860FFF7E0FC054606E0FFF7DCFC7A
:101F8000401B642801D90320C0E65F48006800F4C4
:101F900080700028F2D000BFE068012806D15748C1
:101FA000006A40F001005549086227E0E06858B92E
:101FB0005248006A20F00100504908620846006A51
:101FC00020F00400086219E0E06805280BD14B48B6
:101FD000006A40F00400494908620846006A40F07F
:101FE000010008620AE04548006A20F00100434908
:101FF00008620846006A20F00400086200BFE0683A
:10200000A0B1FFF799FC054609E0FFF795FC401BDE
:1020100041F28831884202D9032077E622E037482E
:10202000006A00F002000028EFD012E0FFF784FC05
:10203000054608E0FFF780FC401B41F288318842EA
:1020400001D9032062E62D48006A00F00200002852
:10205000F0D1012F05D12948C06920F080502749CF
:10206000C86100BFE069C8B32448406800F00C00B4
:10207000082860D0E069022848D10020204908667D
:10208000FFF75AFC054606E0FFF756FC401B022806
:1020900001D903203AE61948006800F000700028D2
:1020A000F2D1206AB0F5803F07D11448406820F48F
:1020B0000030A168084311494860D4E90801084389
:1020C0000E49496821F4741108430C494860012005
:1020D0000B490866FFF730FC054607E03DE0FFF7D7
:1020E0002BFC401B022801D903200FE6034800689F
:1020F00000F000700028F2D02FE000000010024035
:102100000000424280044242007000400020144916
:102110000866FFF711FC054606E0FFF70DFC401BC3
:10212000022801D90320F1E50E48006800F0007094
:102130000028F2D111E0E069012800D1E6E5094864
:10214000466806F48031206A814204D106F4701199
:10215000606A814201D00120D8E50020D6E5000068
:102160000000424200100240042808D14FF0E02154
:10217000096941F004014FF0E022116107E04FF0DE
:10218000E021096921F004014FF0E022116170475C
:1021900070B504462546681EB0F1807F01D301204A
:1021A0000FE0681E4FF0E02148610F214FF0FF3033
:1021B00000F0D4FC00204FF0E02188610720086186
:1021C000002070BD704700002DE9F04704462068EC
:1021D00005682068C668206847694FF00008C14656
:1021E00005F00F08B8F1000F0AD105F0200038B152
:1021F00006F0200020B1204600F04CFBBDE8F0873F
:10220000B8F1000F71D007F0010018B906F4907012
:1022100000286AD005F0010030B106F4807018B1D2
:10222000E06B40F00100E06305F0040030B107F01E
:10223000010018B1E06B40F00200E06305F002001D
:1022400030B107F0010018B1E06B40F00400E0632A
:1022500005F0080048B106F0200010B907F00100B1
:1022600018B1E06B40F00800E063E06B68B305F084
:10227000200028B106F0200010B1204600F00AFB33
:1022800020684069C0F38019E06B00F0080010B9C5
:10229000B9F1000F22D0204600F0DCFA2068406936
:1022A00000F04000B0B12068406920F04000216893
:1022B0004861606B50B11848616B4863606BFFF711
:1022C000AFF810B1606B416B88470CE02046FFF718
:1022D00079FF08E02046FFF775FF04E02046FFF78E
:1022E00071FF0020E06389E7FFE705F0800030B16F
:1022F00006F0800018B1204600F09AFB7EE705F05A
:10230000400030B106F0400018B1204600F0B2FAAB
:1023100074E700BF72E700004128000810B50446CA
:102320000CB9012010BDA06900B100E000BF94F815
:10233000390028B9002084F83800204600F028F839
:10234000242084F839002068C06820F400502168F7
:10235000C860204600F0EEFA2068006920F4904042
:10236000216808612068406920F02A0021684861DE
:102370002068C06840F400502168C8600020E06315
:10238000202084F8390084F83A000020CAE70000D1
:1023900010B586B004465449206888424BD100BF2E
:1023A00000BF5248806940F00400504988610846E7
:1023B000806900F00400019000BF00BF00BF00BFB3
:1023C00000BF0846806940F00400886108468069C3
:1023D00000F00400019000BF00BF00BF00BF00BFBD
:1023E0000846806940F4804088610846806900F4AE
:1023F0008040019000BF00BF00BF4815029002203E
:102400000390012004900320059002A93848FFF7AB
:10241000DBF84FF4806002900020039002A934485A
:10242000FFF7D2F82520FFF7D4FA03221146252022
:10243000FFF7DFFA56E02F492068884252D100BFEB
:1024400000BF2A48806940F010002849886108468A
:10245000806900F01000019000BF00BF00BF00BF06
:1024600000BF0846806940F0200088610846806906
:1024700000F02000019000BF00BF00BF00BF00BF00
:102480000846C06940F48010C8610846C06900F47D
:102490008010019000BF00BF00BF8814029002208E
:1024A0000390002004900320059002A91248FFF732
:1024B0008BF80420029000200390049003200590E4
:1024C00002A90E48FFF780F8002211463520FFF7D9
:1024D00090FA3520FFF77DFA2068C06840F02000B0
:1024E0002168C86006B010BD0038014000100240ED
:1024F000000801400050004000100140001401405D
:102500002DE9F84F04460E46174699464FF0000A4B
:1025100094F83A0020285DD106B117B90120BDE832
:10252000F88F00BF94F83800012801D10220F6E7A7
:10253000012084F8380000BF0020E063222084F8E6
:102540003A00FFF7F9F98246A785E785A068B0F55C
:10255000805F04D1206910B90025B04602E03546FD
:102560004FF0000800BF002084F8380000BF29E0C9
:102570005346002220212046CDF8009000F088FA32
:1025800008B10320CBE745B920684068C0F30800D4
:10259000A8F8000008F1020811E0A068B0F5805F1B
:1025A00003D0A06828B9206918B92068406828704D
:1025B00004E02068406800F07F0028706D1CE08D0A
:1025C000401EE085E08D0028D2D1202084F83A001A
:1025D0000020A4E70220A2E710B5034693F83A00D2
:1025E00020282FD101B10AB9012010BD00BF93F8F6
:1025F0003800012801D10220F7E7012083F83800D4
:1026000000BF99629A85DA850020D863222083F87A
:102610003A0000BF002083F8380000BF1868C06887
:1026200040F480701C68E0601868406940F0010068
:102630001C6860611868C06840F020001C68E06099
:102640000020D2E70220D0E71D4A0168914236D12E
:102650001C49098801F4004189BB1A49098801F421
:10266000804171B1184909780A2903D00021154A1F
:10267000118024E01349098841F40041114A118076
:102680001DE0114909780D2906D10E49098841F448
:1026900080410C4A118012E00B490978094A1288DE
:1026A000C2F30D02094B995406490988491C054A91
:1026B000118011460988C72901DD0021118070476A
:1026C000003801400C0000200E00002028000020EF
:1026D0002DE9F84F04460E46174699464FF0000A7A
:1026E00094F8390020285AD106B117B90120BDE865
:1026F000F88F00BF94F83800012801D10220F6E7D6
:10270000012084F8380000BF0020E063212084F815
:102710003900FFF711F98246A784E784A068B0F575
:10272000805F04D1206910B90025B04602E035462B
:102730004FF0000800BF002084F8380000BF1BE005
:102740005346002280212046CDF8009000F0A0F9E9
:1027500008B10320CBE745B9B8F80000C0F3080082
:102760002168486008F1020803E028782168486081
:102770006D1CE08C401EE084E08C0028E0D15346C4
:10278000002240212046CDF8009000F081F908B1E8
:102790000320ACE7202084F839000020A7E70220BE
:1027A000A5E7704700BFFEE700BFFEE77047704730
:1027B00008B508490968C9084FF47A72B1FBF2F10B
:1027C0004143009100BF00BF00994A1E00920029BA
:1027D000F9D108BD00000020704710B5FFF7B2F82E
:1027E00010BD70471CB5154800680068C0F3C000F4
:1027F00090B100BF00200090104800680068009071
:102800000E4800684068009000BF00BF0B48006899
:1028100000680A4800684068084800680068C0F31B
:10282000401050B14FF0FF33012201A90348FFF7D8
:1028300067FE012101A800F003FD1CBD400100203E
:1028400070B505466C6A0020E085E0842046FFF7FD
:10285000B9FC70BD0168C96821F490710268D1604B
:102860000168496921F0010102685161202180F865
:102870003A10704710B504462068C06820F0400048
:102880002168C860202084F839002046FFF789FFBE
:10289000002010BD70B5044694F83A00222847D1B4
:1028A000A068B0F5805F0CD1206950B90025A66AF8
:1028B00020684068C0F308003080A06A801CA062D5
:1028C00015E0A56A0026A068B0F5805F03D0A06877
:1028D00028B9206918B920684068287004E0206889
:1028E000406800F07F002870A06A401CA062E08D64
:1028F000401E80B2E085C8B92068C06820F0200082
:102900002168C8602068C06820F480702168C860B1
:102910002068406920F0010021684861202084F887
:102920003A002046FFF790FE002070BD0020FCE733
:102930000220FAE770B504462168096921F4405184
:10294000E2681143226811612269A168114362693A
:1029500041EA02052168C96841F20C6291432943AA
:102960002268D1602168496921F44071A26911434C
:10297000226851612D4A2168914202D1FFF768F91E
:1029800001E0FFF755F900EBC00101EB00116268AF
:102990009200B1FBF2F100EBC00202EB001263689F
:1029A0009B00B2FBF3F26423B2FBF3F202EBC2032F
:1029B00003EB0212A1EB8201322202EB011164222D
:1029C000B1FBF2F101F0F00100EBC00202EB0012EA
:1029D00063689B00B2FBF3F26423B2FBF3F201EBFA
:1029E000021200EBC00101EB001163689B00B1FB18
:1029F000F3F100EBC00303EB00136668B600B3FB12
:102A0000F6F36426B3FBF6F303EBC30606EB0313FE
:102A1000A1EB8301322303EB01116423B1FBF3F13A
:102A200001F00F0111442268916070BD003801402F
:102A3000014691F83900212828D18868B0F5805FD7
:102A40000BD1086948B90A6A1088C0F308000B68FE
:102A50005860086A801C086205E00B6A581C08620E
:102A600018780B685860C88C401E80B2C88458B96A
:102A70000868C06820F080000B68D8600868C068EB
:102A800040F040000B68D860002070470220FCE74F
:102A90002DE9F04104460D4617469846069E21E072
:102AA000701CF8B12EB1FEF747FFA0EB0800B04252
:102AB00018D92068C06820F4D0702168C8602068E8
:102AC000406920F0010021684861202084F8390025
:102AD00084F83A0000BF002084F8380000BF0320CB
:102AE000BDE8F081206800682840A84201D101209B
:102AF00000E00020B842D3D00020F1E710B506482E
:102B0000FFF762FB00BF012204490348FFF764FDA1
:102B10000028F8D110BD0000F00000200E000020B9
:102B200000BFFEE7490050EAC12018BF04204A0D4B
:102B300018BF40F0010040F2FF72B2EB515F08BFD6
:102B400040F00200012808BF0520704702480068D5
:102B5000C0F30220704700000CED00E010B5002823
:102B600004DB0A07130E054A135406E00A07140E85
:102B7000034A00F00F031B1FD45410BD00E400E013
:102B800018ED00E030380A2801D2012070470020FB
:102B9000704700BF704700002DE9F0418AB004463D
:102BA0000E46242101A8FDF740FC1CB901200AB003
:102BB000BDE8F08133460022012101A800F08CF825
:102BC00005460DB10120F2E79DF80910090209B28E
:102BD0009DF8082041EA020006F064FD80464FF0AF
:102BE0008E4106F081FC0746164906F087FD2060FD
:102BF0009DF80B10090209B29DF80A2041EA020073
:102C000006F050FD80464FF08E4106F06DFC074601
:102C10000C4906F073FD60609DF80D10090209B2C1
:102C20009DF80C2041EA020006F03CFD80464FF082
:102C30008E4106F059FC0746024906F05FFDA06090
:102C40000020B4E700003443F0B589B004460E46D6
:102C500024216846FDF7E9FB14B9012009B0F0BD55
:102C6000334600220521684600F036F805460DB1CE
:102C70000120F3E79DF8070001069DF8060041EAF0
:102C800000419DF8050041EA00209DF8041008432A
:102C900020609DF80B0001069DF80A0041EA004102
:102CA0009DF8090041EA00209DF808100843606083
:102CB0009DF80D10090209B29DF80C2041EA0200AE
:102CC00006F0F0FC0746034906F00EFCA060002069
:102CD000C4E700000000C8422DE9F84F04468846CA
:102CE00091461D464FF0000A00260027C3E015B9A3
:102CF0000320BDE8F88F0121684600F061FA50B961
:102D0000012000F0FDFA781C87B2B7F57A7F01D177
:102D100000276D1EAFE0BAF1040F65D009DCBAF1EF
:102D2000000F0DD0BAF1010F1AD0BAF1020F70D115
:102D300047E0BAF1080F71D0BAF1160FF7D180E071
:102D40009DF80000552808D19DF8000020702078DB
:102D500084F820004FF0010A01E04FF0000A7EE005
:102D6000B9F1000F03D0B9F1010F26D112E09DF89F
:102D7000000055280BD19DF80000607094F82000E9
:102D80006178084484F820004FF0020A01E04FF017
:102D9000000A14E09DF80000AF280BD19DF8000058
:102DA000607094F820006178084484F820004FF0A7
:102DB000020A01E04FF0000A01E0022099E700BF9B
:102DC0004DE09DF8000040450BD19DF80000A0703B
:102DD00094F82000A178084484F820004FF0040AF9
:102DE00001E04FF0000A3AE09DF800001C2802DDE7
:102DF0004FF0000A11E09DF80000E07094F8200008
:102E0000E178084484F82000E07820B94FF0160AF1
:102E100003E021E002E04FF0080A20E09DF80010F6
:102E2000201D815594F82010805D084484F820000E
:102E3000701CC6B2E078B04202D100264FF0160AEC
:102E40000DE094F820009DF80010884201D1002088
:102E50004FE74FF0000A02E04FF0000A00BF00BF4A
:102E6000012000F04DFA781C87B2B7F57A7F01D1C6
:102E700000276D1E00BF3AE72DE9F0478AB00446EF
:102E80000D461746242101A8FDF7CFFA24B91DB934
:102E900001200AB0BDE8F0873B460022032101A8CB
:102EA000FFF71AFF06460EB10120F2E7002C59D0B9
:102EB0009DF80F00000200B29DF80E10084320801C
:102EC0009DF81100000200B29DF8101008436080C8
:102ED0009DF81300000200B29DF812100843A08074
:102EE0004E4909784E4A32F8110006F0F3FB81464C
:102EF000B4F9000006F0D6FB82464FF08E4106F092
:102F0000F3FA8046494606F0F9FBA0604349097888
:102F1000434A32F8110006F0DDFB8146B4F90200A5
:102F200006F0C0FB82464FF08E4106F0DDFA804687
:102F3000494606F0E3FBE06038490978384A32F840
:102F4000110006F0C7FB8146B4F9040006F0AAFBA5
:102F500082464FF08E4106F0C7FA8046494606F099
:102F6000CDFB2061002D56D09DF80900000200B273
:102F70009DF80810084328809DF80B00000200B25D
:102F80009DF80A10084368809DF80D00000200B209
:102F90009DF80C100843A88020494978214A505CCC
:102FA00006F098FB8146B5F9000006F07BFB8246EF
:102FB0004FF08E4106F098FA8046494606F09EFB97
:102FC000A86016494978174A505C06F083FB814691
:102FD000B5F9020006F066FB82464FF08E4106F01E
:102FE00083FA8046494606F089FBE8600B49497838
:102FF0000C4A505C06F06EFB8146B5F9040006F001
:1030000051FB82464FF08E4106F06EFA80464946EB
:1030100006F074FB286100203BE70000240000203C
:1030200030C8000838C80008F0B589B004460E461C
:1030300024216846FDF7F9F914B9012009B0F0BD63
:103040003346002204216846FFF746FE05460DB1CF
:103050000120F3E79DF80500000200B29DF804107E
:10306000084320809DF80700000200B29DF806107A
:10307000084360809DF80900000200B29DF8081026
:103080000843A0809DF80B10090209B29DF80A20A0
:1030900041EA020006F006FB0746034906F024FA5F
:1030A000A0600020CAE700000000C84270B50546D5
:1030B000284600F063F864220949032000F012F862
:1030C00004460CB9012070BD64220549491C042046
:1030D00000F008F804460CB90120F4E70020F2E7FC
:1030E000240000202DE9F0418CB005460E4617461D
:1030F000242101A8FDF799F955208DF82800AF206B
:103100008DF8290045F080008DF82A0001208DF807
:103110002B0000208DF82C009DF828009DF8291028
:1031200008449DF82A1008449DF82B1008449DF887
:103130002C100844C0B28DF82D0006210AA800F01A
:10314000A1F83B460122294601A8FFF7C5FD8046AC
:10315000B8F1000F03D000200CB0BDE8F0810024CE
:1031600004E002A8005D3055601CC4B29DF8070061
:10317000A042F6DC9DF80700EEE7000010B504461B
:103180000C480D4908600846446000218160C16018
:1031900001610C21416100218161C161FFF7BEF82D
:1031A00080200649A1F880000020A1F88200A1F843
:1031B000840010BD0050004040010020800100202C
:1031C00070B504461D48B0F884001C4DB5F8825017
:1031D000A84208DB1948B0F88400184DB5F88250B1
:1031E000401B82B20BE01548B0F88000134DB5F8D3
:1031F0008250401B114DB5F88450284482B2914250
:1032000000DD1146002314E00C48B0F882000B4D9D
:10321000285CE0542846B0F88200401CB5F8805085
:1032200090FBF5F605FB1600044DA5F88200581C2E
:1032300083B28B42E8DB084670BD000080010020AD
:1032400030B502460B46002115E0505C0C4CB4F83A
:1032500084400B4D28552846B0F88400401C2C466D
:10326000B4F8804090FBF4F504FB1500044CA4F87E
:103270008400481C81B29942E7DB002030BD000089
:103280008001002070B504460D464FF0FF332A46FA
:1032900021460248FFF71CFA70BD000040010020E3
:1032A00010B5044600204FF0E0210861FEF75CFFF6
:1032B0002046E11704EB5171C1F3CF01014A11809F
:1032C00010BD00000400002070B504464FF47A7071
:1032D00094FBF0F594FBF0F100FB114603E0074886
:1032E00000F00EF86D1E002DF9D12EB14FF47A7159
:1032F00006FB01F000F004F870BD000040420F0032
:103300000146114A12884A434FF0E0235A610022D5
:103310009A611A46126942F001021A6100BF4FF029
:10332000E022106900F001021AB100F48032002A94
:10333000F5D04FF0E022126922F001024FF0E023B5
:103340001A6100229A617047040000202DE9F043C1
:1033500097B0642114A8FFF71FFC64220AA90FA8E4
:10336000FFF78AFD642107A8FFF75EFE642104A829
:10337000FFF76AFC04A914A800F0BCF9169806F03F
:1033800087F804460D46159806F082F806460F4663
:10339000149806F07DF8804642460B4629A0CDE9F8
:1033A0000067CDE90245FCF745FF139806F070F879
:1033B00004460D46129806F06BF806460F46119823
:1033C00006F066F8804642460B4629A0CDE9006724
:1033D000CDE90245FCF72EFF0E9806F059F8044699
:1033E0000D460D9806F054F806460F460C9806F068
:1033F0004FF8804642460B4628A0CDE90067CDE94C
:103400000245FCF717FF099806F042F8CDE90001E4
:10341000BDF92030BDF91E20BDF91C1028A0FCF715
:1034200009FF069806F034F8CDE900012EA0DDE989
:103430000412FCF7FFFE36A0FCF7FCFE17B0BDE857
:10344000F0830000526F6C6C3A20252E303266A15A
:10345000E32050697463683A20252E303266A1E378
:10346000205961773A20252E303266A1E30D0A00FB
:1034700047783A20252E303266A1E32F7320477912
:103480003A20252E303266A1E32F7320477A3A2066
:10349000252E303266A1E32F730D0A0041783A20C1
:1034A000252E303266472041793A20252E3032666B
:1034B0004720417A3A20252E303266470D0A000017
:1034C0004D783A202564204D793A202564204D7AA4
:1034D0003A2025642C2054656D703A20252E303218
:1034E00066A1E30D0A000000507265733A2025645E
:1034F000506120416C743A202564636D2054656DE1
:10350000703A20252E303266A1E30D0A000000003B
:103510002A2A2A2A2A2A2A2A2A2A2A2A2A2A2A2A0B
:103520002A2A2A2A2A2A2A2A2A2A2A2A2A2A2A2AFB
:103530002A2A2A2A2A2A2A2A0D0A0D0A000000000D
:103540000EB51F2023A110221346CDE900210290C1
:10355000C8228221142005F0ABFB1F2023A11022DA
:103560001346CDE900210290C8229721142005F0CE
:103570009FFB1F2023A110221346CDE900210290BA
:10358000C822AC21142005F093FB1F2023A1102298
:103590001346CDE900210290C822C121142005F074
:1035A00087FB1F2023A110221346CDE900210290A2
:1035B000C822D621142005F07BFB1F2023A1102256
:1035C0001346CDE900210290C822EB21142005F01A
:1035D0006FFB0EBD526F6C6C202020202020203A03
:1035E000202020302E303027000000005069746306
:1035F000682020202020203A202020302E30302724
:103600000000000059617720202020202020203A4F
:10361000202020302E3030270000000050726573CB
:10362000737572652020203A202020202020305001
:1036300061000000416C7469747564652020203A53
:1036400020202020202030636D00000074656D7004
:10365000657261747572653A202020302E303027F3
:10366000000000004FF4E130FFF720FD054675B182
:1036700011A0FCF7DFFD09E000BF4FF48071154891
:10368000FEF74AF900BFC820FFF71EFEF4E712A0BC
:10369000FCF7D0FDFFF754FF0DE0002000F0F6F935
:1036A0000446012C02D1FFF751FE00E000BF00BF2D
:1036B0000A20FFF709FEF0E741544B2D4D533930F6
:1036C000314D20696E6974206661696C6564210DF5
:1036D0000A0000000008014041544B2D4D53393081
:1036E000314D20696E69742073756363657373214E
:1036F0000D0A0A00FEB505460E46AB49286805F0DE
:10370000FDFF074605F0B2FF0446002C0DDA6442C7
:103710001F20A6A110221346CDE900210290082205
:103720008221742005F0C4FA0BE01F20A0A1102212
:103730001346CDE90021029008228221742005F071
:10374000B7FA642094FBF0F71F20102103233A46B8
:10375000CDE9001082217C2005F05EFA642094FB04
:10376000F0F100FB11471F20802110220223CDE938
:10377000002102903A4682219C2005F0CEFA8A4927
:10378000686805F0BBFF074605F070FF0446002C93
:103790000DDA64421F2085A110221346CDE90021D5
:1037A000029008229721742005F082FA0BE01F2076
:1037B0007FA110221346CDE9002102900822972113
:1037C000742005F075FA642094FBF0F71F20102197
:1037D00003233A46CDE9001097217C2005F01CFA1E
:1037E000642094FBF0F100FB11471F208021102280
:1037F0000223CDE9002102903A4697219C2005F052
:103800008CFA6949A86805F079FF074605F02EFF94
:103810000446002C0DDA64421F2064A110221346D6
:10382000CDE9002102900822AC21742005F040FA75
:103830000BE01F205EA110221346CDE9002102906B
:103840000822AC21742005F033FA642094FBF0F7D1
:103850001F20102103233A46CDE90010AC217C2023
:1038600005F0DAF9642094FBF0F100FB11471F200A
:10387000802110220223CDE9002102903A46AC219A
:103880009C2005F04AFA3468002C0DDA64421F20AF
:1038900046A110221346CDE9002102900822C12141
:1038A000742005F005FA0BE01F2041A110221346F9
:1038B000CDE9002102900822C121742005F0F8F919
:1038C0001F20102106232246CDE90010C1217C20B3
:1038D00005F0A2F97468002C0DDA64421F2033A1B0
:1038E00010221346CDE9002102900822D62174202F
:1038F00005F0DEF90BE01F202DA110221346CDE9C3
:10390000002102900822D621742005F0D1F91F2051
:10391000102106232246CDE90010D6217C2005F097
:103920007BF92149B06805F0E9FE074605F09EFEE7
:103930000446002C0DDA64421F201CA110221346FD
:10394000CDE9002102900822EB21742005F0B0F9A6
:103950000BE01F2016A110221346CDE90021029092
:103960000822EB21742005F0A3F9642094FBF0F702
:103970001F20102103233A46CDE90010EB217C20C3
:1039800005F04AF9642094FBF0F100FB11471F2079
:10399000802110220223CDE9002102903A46EB213A
:1039A0009C2005F0BAF9FEBD0000C8422D000000C1
:1039B0002000000000BF054A126802F04002002A01
:1039C000F9D0C2B2014B1B1D1A607047003801408C
:1039D00000B585B000BF00BF2948806940F01000E5
:1039E000274988610846806900F01000009000BFF8
:1039F00000BF00BF00BF00BF0846806940F0040060
:103A000088610846806900F00400009000BF00BF94
:103A100000BF00BF00BF0846806940F00400886115
:103A20000846806900F00400009000BF00BF00BF9E
:103A30002020019000200290012003900320049098
:103A400001A91048FDF7C0FD4FF40040019000208F
:103A50000290012003900320049001A90A48FDF779
:103A6000B3FD01200190002002900220039003206A
:103A7000049001A90448FDF7A7FD05B000BD0000B2
:103A800000100240001001400008014070B50446DB
:103A9000002514B10120234908702248007858B34A
:103AA00020212148FDF730FF58B14FF400411F4855
:103AB000FDF72AFF28B101211C48FDF725FF012849
:103AC0001AD10A20FFF700FC0020164908702021B7
:103AD0001548FDF719FF00B901254FF400411348BF
:103AE000FDF712FF00B9022501211048FDF70CFF78
:103AF000012815D1032513E020210B48FDF704FF11
:103B000001280DD1C1030948FDF7FEFE012807D1A8
:103B100001210648FDF7F8FE10B90120014908709F
:103B2000284670BD19000020001001400008014027
:103B300078B5044600261B48058840884543002187
:103B4000084604F0A1FD00BF1648008900904FF020
:103B500080701549086140000861BDF800001349F4
:103B600008604FF40000104908618020086180005F
:103B7000086100BF00BF401008614004086100BF39
:103B800008E00A4804604FF40000074908618020FB
:103B90000861761CAE42F4D34FF40070024908610C
:103BA00078BD000030010020001001400C0C0140E5
:103BB00010B5044658488471002C58D1F02056495D
:103BC00008804FF4A07048800846808845F2105164
:103BD000884210D14FF430504F4908814FF428509B
:103BE00048814FF42C5088814FF4F07008804FF4D6
:103BF000487048801AE04848808841F6631188423E
:103C00000DD12C20444908812B2048812A2088810D
:103C10004FF4F07008804FF44870488006E02C2084
:103C20003D4908812A2048812B2088813A48808894
:103C300045F21031884205D03748808847F29671A6
:103C4000884206D14FF4A070334908804FF4F070D9
:103C500048803148808849F60601884258D14FF49F
:103C6000F0702D4908804FF44870488050E04FF4C0
:103C7000A07029490880F02048800846808845F2D5
:103C80001051884210D14FF43050234908814FF42D
:103C9000285048814FF42C5088814FF44870088098
:103CA0004FF4F070488020E01B48808841F6631193
:103CB000884205D01848808849F6060188420DD10F
:103CC0002C20154908812A2048812B2088814FF417
:103CD000487008804FF4F070488006E02C200E49B0
:103CE00008812A2048812B2088810B48808845F252
:103CF0001031884205D00848808847F29671884282
:103D000006D14FF4F070044908804FF4A070488049
:103D1000002004F025FA10BD3001002078B50546DA
:103D20000E4614463146284604F0AEFC00BF124849
:103D3000008900904FF080701049086140000861D0
:103D4000BDF800000E4908604FF400000B490861FF
:103D5000802008618000086100BF00BF401008613A
:103D600040040861064804604FF4000008618020A8
:103D700008618000086178BD30010020001001401A
:103D80000C0C014008B5CF2000904FF08070FE4928
:103D9000086140000861BDF80000FC4908604FF46C
:103DA0000000F9490861802008618000086100BFB7
:103DB000002005F099F8C12005F096F8302005F0B4
:103DC00093F8ED2000904FF08070EF4908614000BB
:103DD0000861BDF80000ED4908604FF40000EA49B1
:103DE0000861802008618000086100BF642005F040
:103DF0007BF8032005F078F8122005F075F8812093
:103E000005F072F8E82000904FF08070DE490861FC
:103E100040000861BDF80000DC4908604FF4000074
:103E2000D9490861802008618000086100BF8520B1
:103E300005F05AF8102005F057F87A2005F054F8EC
:103E4000CB2000904FF08070CF490861400008619E
:103E5000BDF80000CD4908604FF40000CA49086170
:103E6000802008618000086100BF392005F03CF81F
:103E70002C2005F039F8002005F036F8342005F044
:103E800033F8022005F030F8F72000904FF08070F2
:103E9000BD49086140000861BDF80000BB490860E9
:103EA0004FF40000B8490861802008618000086173
:103EB00000BF202005F018F8EA2000904FF0807035
:103EC000B149086140000861BDF80000AF490860D1
:103ED0004FF40000AC49086180200861800008614F
:103EE00000BF002005F000F8002004F0FDFFC02016
:103EF00000904FF08070A449086140000861BDF84F
:103F00000000A24908604FF400009F49086180202A
:103F100008618000086100BF1B2004F0E5FFC1209C
:103F200000904FF080709849086140000861BDF82A
:103F30000000964908604FF4000093490861802012
:103F400008618000086100BF012004F0CDFFC5209A
:103F500000904FF080708C49086140000861BDF806
:103F600000008A4908604FF40000874908618020FA
:103F700008618000086100BF302004F0B5FF3020E8
:103F800004F0B2FFC72000904FF080707E490861B6
:103F900040000861BDF800007C4908604FF4000053
:103FA00079490861802008618000086100BFB7205E
:103FB00004F09AFF362000904FF08070724908613B
:103FC00040000861BDF80000704908604FF400002F
:103FD0006D490861802008618000086100BF4820A9
:103FE00004F082FF3A2000904FF08070664908612B
:103FF00040000861BDF80000644908604FF400000B
:1040000061490861802008618000086100BF552077
:1040100004F06AFFB12000904FF080705A490861A7
:1040200040000861BDF80000584908604FF40000E6
:1040300055490861802008618000086100BF0020A8
:1040400004F052FF1A2004F04FFFB62000904FF00A
:1040500080704D49086140000861BDF800004B497F
:1040600008604FF400004849086180200861800022
:10407000086100BF0A2004F037FFA22004F034FFDB
:10408000F22000904FF080703F49086140000861C5
:10409000BDF800003D4908604FF400003A4908614E
:1040A000802008618000086100BF002004F01CFF30
:1040B000262000904FF0807033490861400008616D
:1040C000BDF80000314908604FF400002E49086136
:1040D000802008618000086100BF012004F004FF17
:1040E000E02000904FF0807027490861400008618F
:1040F000BDF80000254908604FF40000224908611E
:10410000802008618000086100BF0F2004F0ECFEF1
:104110002A2004F0E9FE282004F0E6FE082004F03E
:10412000E3FE0E2004F0E0FE082004F0DDFE542043
:1041300004F0DAFEA92004F0D7FE432004F0D4FEF8
:104140000A2004F0D1FE0F2004F0CEFE002004F07F
:10415000CBFE002004F0C8FE002004F0C5FE0020C5
:1041600004F0C2FEE12000904FF080700649086123
:1041700040000861BDF80000044908604FF40000E9
:1041800001490861802003E0001001400C0C01404F
:1041900008618000086100BF002004F0A5FE152022
:1041A00004F0A2FE172004F09FFE072004F09CFEFE
:1041B000112004F099FE062004F096FE2B2004F056
:1041C00093FE562004F090FE3C2004F08DFE052066
:1041D00004F08AFE102004F087FE0F2004F084FE15
:1041E0003F2004F081FE3F2004F07EFE0F2004F00B
:1041F0007BFE2B2000904FF0807036490861400014
:104200000861BDF80000344908604FF400003149EE
:104210000861802008618000086100BF002004F070
:1042200063FE002004F060FE012004F05DFE3F20EC
:1042300004F05AFE2A2000904FF080702549086152
:1042400040000861BDF80000234908604FF40000F9
:1042500020490861802008618000086100BF0020BB
:1042600004F042FE002004F03FFE002004F03CFE7B
:10427000EF2004F039FE112000904FF080701549B6
:10428000086140000861BDF80000134908604FF460
:10429000000010490861802008618000086100BFAB
:1042A0007820FFF711F8292000904FF0807009491D
:1042B000086140000861BDF80000074908604FF43C
:1042C000000004490861802008618000086100BF87
:1042D00008BD0000001001400C0C014008B5FF2093
:1042E00000904FF08070FE49086140000861BDF801
:1042F0000000FC4908604FF40000F9490861802083
:1043000008618000086100BFFF2004F0EDFD9820E7
:1043100004F0EAFD062004F0E7FDBC2000904FF019
:104320008070EF49086140000861BDF80000ED4968
:1043300008604FF40000EA490861802008618000AD
:10434000086100BF012004F0CFFD0F2004F0CCFD78
:10435000612004F0C9FDFF2004F0C6FD012004F037
:10436000C3FD012004F0C0FD0B2004F0BDFD1020B2
:1043700004F0BAFD372004F0B7FD632004F0B4FD6B
:10438000FF2004F0B1FDFF2004F0AEFD012004F099
:10439000ABFD012004F0A8FD002004F0A5FD0020E5
:1043A00004F0A2FDFF2004F09FFD522004F09CFDCC
:1043B000012004F099FD002004F096FD402004F057
:1043C00093FDBD2000904FF08070C549086140000A
:1043D0000861BDF80000C34908604FF40000C049FF
:1043E0000861802008618000086100BF012004F09E
:1043F0007BFD232004F078FD452004F075FD672047
:1044000004F072FD012004F06FFD232004F06CFD28
:10441000452004F069FD672004F066FDBE20009091
:104420004FF08070AE49086140000861BDF800009F
:10443000AC4908604FF40000A94908618020086178
:104440008000086100BF002004F04EFD012004F050
:104450004BFDAB2004F048FD602004F045FD222018
:1044600004F042FD222004F03FFD222004F03CFD38
:10447000222004F039FD222004F036FDC7200090F0
:104480004FF080709649086140000861BDF8000057
:10449000944908604FF40000914908618020086148
:1044A0008000086100BF362004F01EFDED20009062
:1044B0004FF080708A49086140000861BDF8000033
:1044C000884908604FF40000854908618020086130
:1044D0008000086100BF7F2004F006FD0F2004F07B
:1044E00003FDC02000904FF080707D4908614000BE
:1044F0000861BDF800007B4908604FF4000078496E
:104500000861802008618000086100BF0F2004F06E
:10451000EBFC0B2004F0E8FC0A2004F0E5FCFC2096
:1045200000904FF080706E49086140000861BDF84E
:1045300000006C4908604FF4000069490861802060
:1045400008618000086100BF082004F0CDFCDF2076
:1045500000904FF080706249086140000861BDF82A
:104560000000604908604FF400005D490861802048
:1045700008618000086100BF002004F0B5FC002045
:1045800004F0B2FC002004F0AFFC002004F0ACFC0E
:10459000002004F0A9FC202004F0A6FCF3200090E9
:1045A0004FF080704E49086140000861BDF800007E
:1045B0004C4908604FF400004949086180200861B7
:1045C0008000086100BF742004F08EFCB4200090CD
:1045D0004FF080704249086140000861BDF800005A
:1045E000404908604FF400003D490861802008619F
:1045F0008000086100BF002004F076FC002004F079
:1046000073FC002004F070FCF72000904FF08070E5
:104610003349086140000861BDF800003149086075
:104620004FF400002E490861802008618000086175
:1046300000BF822004F058FCB12000904FF0807041
:104640002749086140000861BDF80000254908605D
:104650004FF4000022490861802008618000086151
:1046600000BF002004F040FC132004F03DFC1320A8
:1046700004F03AFCF22000904FF080701849086175
:1046800040000861BDF80000164908604FF40000C2
:1046900013490861802008618000086100BF802004
:1046A00004F022FC042004F01FFC402004F01CFC59
:1046B000282004F019FCC12000904FF080700849B8
:1046C000086140000861BDF80000064908604FF429
:1046D000000003490861802008618000086103E050
:1046E000001001400C0C014000BF172004F0FCFB3F
:1046F000882004F0F9FB882004F0F6FB202004F069
:10470000F3FBE02000904FF080709F49086140006B
:104710000861BDF800009D4908604FF400009A4907
:104720000861802008618000086100BF002004F05B
:10473000DBFB0A2004F0D8FB122004F0D5FB10208C
:1047400004F0D2FB0E2004F0CFFB202004F0CCFBC1
:10475000CC2004F0C9FB072004F0C6FB062004F0BF
:10476000C3FB0B2004F0C0FB0E2004F0BDFB0F20A8
:1047700004F0BAFB0D2004F0B7FB152004F0B4FBE5
:10478000102004F0B1FB002004F0AEFBE12000900B
:104790004FF080707C49086140000861BDF800005E
:1047A0007A4908604FF40000774908618020086169
:1047B0008000086100BF002004F096FB0B2004F08D
:1047C00093FB132004F090FB0D2004F08DFB0E20D2
:1047D00004F08AFB1B2004F087FB712004F084FBAB
:1047E000062004F081FB062004F07EFB0A2004F082
:1047F0007BFB0F2004F078FB0E2004F075FB0F20EC
:1048000004F072FB152004F06FFB0C2004F06CFB2D
:10481000002004F069FB2A2000904FF080705A4974
:10482000086140000861BDF80000584908604FF475
:10483000000055490861802008618000086100BFC0
:10484000002004F051FB002004F04EFB012004F096
:104850004BFBDF2004F048FB2B2000904FF08070D2
:104860004949086140000861BDF8000047490860F7
:104870004FF400004449086180200861800008610D
:1048800000BF002004F030FB002004F02DFB0320CB
:1048900004F02AFB1F2004F027FB3A2000904FF081
:1048A00080703949086140000861BDF8000037494F
:1048B00008604FF4000034490861802008618000DE
:1048C000086100BF552004F00FFB362000904FF028
:1048D00080702D49086140000861BDF800002B4937
:1048E00008604FF4000028490861802008618000BA
:1048F000086100BF002004F0F7FA112000904FF08B
:1049000080702149086140000861BDF800001F491E
:1049100008604FF400001C49086180200861800095
:10492000086100BF7820FEF7CFFC292000904FF0EF
:1049300080701549086140000861BDF80000134906
:1049400008604FF400001049086180200861800071
:10495000086100BF1420FEF7B7FC2C2000904FF038
:1049600080700949086140000861BDF800000749EE
:1049700008604FF40000044908618020086180004D
:10498000086100BF08BD0000001001400C0C014090
:1049900008B5ED2000904FF08070FE49086140009E
:1049A0000861BDF80000FC4908604FF40000F949B7
:1049B0000861802008618000086100BF012004F0C8
:1049C00093FAFE2004F090FAEE2000904FF08070F1
:1049D000F049086140000861BDF80000EE49086038
:1049E0004FF40000EB4908618020086180000861F5
:1049F00000BFDE2004F078FA212004F075FAF120DF
:104A000000904FF08070E349086140000861BDF8F4
:104A10000000E14908604FF40000DE490861802091
:104A200008618000086100BF012004F05DFADF200A
:104A300000904FF08070D749086140000861BDF8D0
:104A40000000D54908604FF40000D2490861802079
:104A500008618000086100BF102004F045FAC420FE
:104A600000904FF08070CB49086140000861BDF8AC
:104A70000000C94908604FF40000C6490861802061
:104A800008618000086100BF8F2004F02DFAC62065
:104A900000904FF08070BF49086140000861BDF888
:104AA0000000BD4908604FF40000BA490861802049
:104AB00008618000086100BF002004F015FAE220C0
:104AC00004F012FAE22004F00FFAE22004F00CFAEB
:104AD000BF2000904FF08070AE490861400008612F
:104AE000BDF80000AC4908604FF40000A949086116
:104AF000802008618000086100BFAA2004F0F4F95A
:104B0000B02000904FF08070A24908614000086119
:104B1000BDF80000A04908604FF400009D490861FD
:104B2000802008618000086100BF0D2004F0DCF9DE
:104B3000002004F0D9F90D2004F0D6F9002004F08B
:104B4000D3F9112004F0D0F9002004F0CDF9192098
:104B500004F0CAF9002004F0C7F9212004F0C4F9D8
:104B6000002004F0C1F92D2004F0BEF9002004F06B
:104B7000BBF93D2004F0B8F9002004F0B5F95D2040
:104B800004F0B2F9002004F0AFF95D2004F0ACF9B4
:104B9000002004F0A9F9B12000904FF080707D4909
:104BA000086140000861BDF800007B4908604FF4CF
:104BB000000078490861802008618000086100BF1A
:104BC000802004F091F9002004F08EF98B2004F08D
:104BD0008BF9002004F088F9962004F085F9002074
:104BE00004F082F9B22000904FF0807069490861AA
:104BF00040000861BDF80000674908604FF40000FC
:104C000064490861802008618000086100BF0020BD
:104C100004F06AF9002004F067F9022004F064F956
:104C2000002004F061F9032004F05EF9002004F094
:104C30005BF9B32000904FF0807056490861400046
:104C40000861BDF80000544908604FF40000514964
:104C50000861802008618000086100BF002004F026
:104C600043F9002004F040F9002004F03DF9002051
:104C700004F03AF9002004F037F9002004F034F988
:104C8000002004F031F9002004F02EF9002004F097
:104C90002BF9002004F028F9002004F025F9002069
:104CA00004F022F9002004F01FF9002004F01CF9A0
:104CB000002004F019F9002004F016F9002004F097
:104CC00013F9002004F010F9002004F00DF9002081
:104CD00004F00AF9002004F007F9002004F004F9B8
:104CE000002004F001F9002004F0FEF8B420009048
:104CF0004FF080702749086140000861BDF800004E
:104D0000254908604FF400002249086180200861AD
:104D10008000086100BF8B2004F0E6F8002004F05A
:104D2000E3F8962004F0E0F8002004F0DDF8A1207C
:104D300004F0DAF8002004F0D7F8B52000904FF026
:104D400080701449086140000861BDF800001249F4
:104D500008604FF400000F4908618020086180005E
:104D6000086100BF022004F0BFF8002004F0BCF886
:104D7000032004F0B9F8002004F0B6F8042004F091
:104D8000B3F8002004F0B0F8B62000904FF0807027
:104D9000004903E0001001400C0C01400861400094
:104DA0000861BDF80000FE4908604FF40000FD49AD
:104DB0000861802008618000086100BF002004F0C5
:104DC00093F8002004F090F8B72000904FF0807026
:104DD000F449086140000861BDF80000F04908602E
:104DE0004FF40000EF4908618020086180000861ED
:104DF00000BF002004F078F8002004F075F83F2090
:104E000004F072F8002004F06FF85E2004F06CF8F3
:104E1000002004F069F8642004F066F8002004F033
:104E200063F88C2004F060F8002004F05DF8AC20FA
:104E300004F05AF8002004F057F8DC2004F054F88D
:104E4000002004F051F8702004F04EF8002004F027
:104E50004BF8902004F048F8002004F045F8EB20CF
:104E600004F042F8002004F03FF8DC2004F03CF8A5
:104E7000002004F039F8B82000904FF08070C94944
:104E8000086140000861BDF80000C54908604FF4A2
:104E90000000C4490861802008618000086100BFEB
:104EA000002004F021F8002004F01EF8002004F097
:104EB0001BF8002004F018F8002004F015F800207A
:104EC00004F012F8002004F00FF8002004F00CF8B1
:104ED000BA2000904FF08070B2490861400008612C
:104EE000BDF80000AE4908604FF40000AD4908610C
:104EF000802008618000086100BF242003F0F4FFD7
:104F0000002003F0F1FF002003F0EEFF002003F08B
:104F1000EBFFC12000904FF08070A2490861400073
:104F20000861BDF800009E4908604FF400009D49EB
:104F30000861802008618000086100BF202003F024
:104F4000D3FF002003F0D0FF542003F0CDFF00205A
:104F500003F0CAFFFF2003F0C7FF002003F0C4FFE7
:104F6000C22000904FF080708E49086140000861B7
:104F7000BDF800008A4908604FF4000089490861C3
:104F8000802008618000086100BF0A2003F0ACFFA8
:104F9000002003F0A9FF042003F0A6FF002003F087
:104FA000A3FFC32000904FF080707E49086140004D
:104FB0000861BDF800007A4908604FF400007949A3
:104FC0000861802008618000086100BF3C2003F078
:104FD0008BFF002003F088FF3A2003F085FF0020BC
:104FE00003F082FF392003F07FFF002003F07CFFF5
:104FF000372003F079FF002003F076FF3C2003F018
:1050000073FF002003F070FF362003F06DFF0020D7
:1050100003F06AFF322003F067FF002003F064FF13
:105020002F2003F061FF002003F05EFF2C2003F02F
:105030005BFF002003F058FF292003F055FF0020FC
:1050400003F052FF262003F04FFF002003F04CFF37
:10505000242003F049FF002003F046FF242003F042
:1050600043FF002003F040FF232003F03DFF00201A
:1050700003F03AFF3C2003F037FF002003F034FF39
:10508000362003F031FF002003F02EFF322003F022
:105090002BFF002003F028FF2F2003F025FF002026
:1050A00003F022FF2C2003F01FFF002003F01CFF61
:1050B000292003F019FF002003F016FF262003F03B
:1050C00013FF002003F010FF242003F00DFF002049
:1050D00003F00AFF242003F007FF002003F004FF81
:1050E000232003F001FF002003F0FEFEC420009007
:1050F0004FF080702B49086140000861BDF8000046
:10510000274908604FF400002649086180200861A3
:105110008000086100BF622003F0E6FE002003F07B
:10512000E3FE052003F0E0FE002003F0DDFE842016
:1051300003F0DAFE002003F0D7FEF02003F0D4FEE7
:10514000002003F0D1FE182003F0CEFE002003F073
:10515000CBFEA42003F0C8FE002003F0C5FE1820FB
:1051600003F0C2FE002003F0BFFE502003F0BCFE9F
:10517000002003F0B9FE0C2003F0B6FE002003F07F
:10518000B3FE172003F0B0FE002003F0ADFE952023
:1051900003F0AAFE002003F0A7FEF32004E00000C5
:1051A0000C0C01400010014003F09EFE002003F0B3
:1051B0009BFEE62003F098FE002003F095FEC5203C
:1051C00000904FF08070FE49086140000861BDF812
:1051D0000000FC4908604FF40000F9490861802094
:1051E00008618000086100BF322003F07DFE0020CE
:1051F00003F07AFE442003F077FE002003F074FEF3
:10520000652003F071FE002003F06EFE762003F0AF
:105210006BFE002003F068FE882003F065FE00208E
:1052200003F062FEC62000904FF08070E4490861F0
:1052300040000861BDF80000E24908604FF400003A
:10524000DF490861802008618000086100BF2020DC
:1052500003F04AFE002003F047FE172003F044FE4F
:10526000002003F041FE012003F03EFE002003F089
:105270003BFEC72000904FF08070D149086140008C
:105280000861BDF80000CF4908604FF40000CC4928
:105290000861802008618000086100BF002003F0E1
:1052A00023FE002003F020FE002003F01DFE00205E
:1052B00003F01AFEC82000904FF08070C0490861CA
:1052C00040000861BDF80000BE4908604FF40000CE
:1052D000BB490861802008618000086100BF002090
:1052E00003F002FE002003F0FFFD002003F0FCFDB0
:1052F000002003F0F9FDC92000904FF08070B04904
:10530000086140000861BDF80000AE4908604FF434
:105310000000AB490861802008618000086100BF7F
:10532000002003F0E1FD002003F0DEFD002003F08B
:10533000DBFD002003F0D8FD002003F0D5FD0020A8
:1053400003F0D2FD002003F0CFFD002003F0CCFDE0
:10535000002003F0C9FD002003F0C6FD002003F08B
:10536000C3FD002003F0C0FD002003F0BDFD0020C0
:1053700003F0BAFD002003F0B7FD002003F0B4FDF8
:10538000E02000904FF080708D4908614000086176
:10539000BDF800008B4908604FF40000884908619F
:1053A000802008618000086100BF162003F09CFD8A
:1053B000002003F099FD1C2003F096FD002003F06F
:1053C00093FD212003F090FD002003F08DFD362099
:1053D00003F08AFD002003F087FD462003F084FDE2
:1053E000002003F081FD522003F07EFD002003F039
:1053F0007BFD642003F078FD002003F075FD7A202A
:1054000003F072FD002003F06FFD8B2003F06CFDB4
:10541000002003F069FD992003F066FD002003F0F1
:1054200063FDA82003F060FD002003F05DFDB920BE
:1054300003F05AFD002003F057FDC42003F054FD93
:10544000002003F051FDCA2003F04EFD002003F0C0
:105450004BFDD22003F048FD002003F045FDD9208C
:1054600003F042FD002003F03FFDE02003F03CFD8F
:10547000002003F039FDF32003F036FD002003F097
:1054800033FDE12000904FF080704D4908614000ED
:105490000861BDF800004B4908604FF4000048491E
:1054A0000861802008618000086100BF162003F0B9
:1054B0001BFD002003F018FD1C2003F015FD00204B
:1054C00003F012FD222003F00FFD002003F00CFD7D
:1054D000362003F009FD002003F006FD452003F00F
:1054E00003FD002003F000FD522003F0FDFC00202E
:1054F00003F0FAFC642003F0F7FC002003F0F4FC56
:105500007A2003F0F1FC002003F0EEFC8B2003F086
:10551000EBFC002003F0E8FC992003F0E5FC002000
:1055200003F0E2FCA82003F0DFFC002003F0DCFC29
:10553000B92003F0D9FC002003F0D6FCC42003F00E
:10554000D3FC002003F0D0FCCA2003F0CDFC0020E7
:1055500003F0CAFCD22003F0C7FC002003F0C4FC17
:10556000D82003F0C1FC002003F0BEFCE02003F0D3
:10557000BBFC002003F0B8FCF32003F0B5FC0020D6
:1055800003F0B2FCE22000904FF080700C490861FB
:1055900040000861BDF800000A4908604FF40000AF
:1055A00007490861802008618000086100BF05206C
:1055B00003F09AFC002003F097FC0B2004E00000AD
:1055C000001001400C0C014003F08EFC002003F0A1
:1055D0008BFC1B2003F088FC002003F085FC3420AA
:1055E00003F082FC002003F07FFC442003F07CFCED
:1055F000002003F079FC4F2003F076FC002003F03C
:1056000073FC612003F070FC002003F06DFC792036
:1056100003F06AFC002003F067FC882003F064FCC0
:10562000002003F061FC972003F05EFC002003F0F3
:105630005BFCA62003F058FC002003F055FCB720CB
:1056400003F052FC002003F04FFCC22003F04CFC9E
:10565000002003F049FCC72003F046FC002003F0C3
:1056600043FCD12003F040FC002003F03DFCD62099
:1056700003F03AFC002003F037FCDD2003F034FC9B
:10568000002003F031FCF32003F02EFC002003F097
:105690002BFCE32000904FF08070FE490861400031
:1056A0000861BDF80000FC4908604FF40000F949AA
:1056B0000861802008618000086100BF052003F0B8
:1056C00013FC002003F010FC0A2003F00DFC002066
:1056D00003F00AFC1C2003F007FC002003F004FC8C
:1056E000332003F001FC002003F0FEFB442003F014
:1056F000FBFB002003F0F8FB502003F0F5FB00203B
:1057000003F0F2FB622003F0EFFB002003F0ECFB60
:10571000782003F0E9FB002003F0E6FB882003F08B
:10572000E3FB002003F0E0FB972003F0DDFB00200B
:1057300003F0DAFBA62003F0D7FB002003F0D4FB34
:10574000B72003F0D1FB002003F0CEFBC22003F012
:10575000CBFB002003F0C8FBC72003F0C5FB0020F3
:1057600003F0C2FBD12003F0BFFB002003F0BCFB21
:10577000D52003F0B9FB002003F0B6FBDD2003F0D9
:10578000B3FB002003F0B0FBF32003F0ADFB0020DF
:1057900003F0AAFBE42000904FF08070BD4908613F
:1057A00040000861BDF80000BB4908604FF40000EC
:1057B000B8490861802008618000086100BF0120AD
:1057C00003F092FB002003F08FFB012003F08CFB21
:1057D000002003F089FB022003F086FB002003F089
:1057E00083FB2A2003F080FB002003F07DFB3C209C
:1057F00003F07AFB002003F077FB4B2003F074FBEF
:10580000002003F071FB5D2003F06EFB002003F02D
:105810006BFB742003F068FB002003F065FB842021
:1058200003F062FB002003F05FFB932003F05CFBBE
:10583000002003F059FBA22003F056FB002003F0E8
:1058400053FBB32003F050FB002003F04DFBBE20C0
:1058500003F04AFB002003F047FBC42003F044FBA5
:10586000002003F041FBCD2003F03EFB002003F0BD
:105870003BFBD32003F038FB002003F035FBDD2099
:1058800003F032FB002003F02FFBF32003F02CFB8E
:10589000002003F029FBE52000904FF080707D4947
:1058A000086140000861BDF800007B4908604FF4C2
:1058B000000078490861802008618000086100BF0D
:1058C000002003F011FB002003F00EFB002003F08A
:1058D0000BFB002003F008FB022003F005FB002077
:1058E00003F002FB292003F0FFFA002003F0FCFA8A
:1058F0003C2003F0F9FA002003F0F6FA4B2003F005
:10590000F3FA002003F0F0FA5D2003F0EDFA002036
:1059100003F0EAFA742003F0E7FA002003F0E4FA57
:10592000842003F0E1FA002003F0DEFA932003F074
:10593000DBFA002003F0D8FAA22003F0D5FA002009
:1059400003F0D2FAB32003F0CFFA002003F0CCFA30
:10595000BE2003F0C9FA002003F0C6FAC42003F009
:10596000C3FA002003F0C0FACD2003F0BDFA0020F6
:1059700003F0BAFAD32003F0B7FA002003F0B4FA28
:10598000DC2003F0B1FA002003F0AEFAF32003F0BC
:10599000ABFA002003F0A8FAE62000904FF08070E8
:1059A0003C49086140000861BDF800003A490860C0
:1059B0004FF40000374908618020086180000861C9
:1059C00000BF112003F090FA002003F08DFA34207C
:1059D00003F08AFA002003F087FA562003F084FAD5
:1059E000002003F081FA762003F07EFA002003F015
:1059F0007BFA772003F078FA002003F075FA66202E
:105A000003F072FA002003F06FFA882003F06CFABA
:105A1000002003F069FA992003F066FA002003F0F1
:105A200063FABB2003F060FA002003F05DFA9920CE
:105A300003F05AFA002003F057FA662003F054FAF4
:105A4000002003F051FA552003F04EFA002003F035
:105A50004BFA552003F048FA002003F045FA4520A0
:105A600003F042FA002003F03FFA432003F03CFA2F
:105A7000002003F039FA442003F036FA002003F046
:105A800033FAE72000904FF080700249086140002F
:105A9000086103E0001001400C0C0140BDF800005B
:105AA000FE4908604FF40000FD490861802008614C
:105AB0008000086100BF322003F016FA002003F0D6
:105AC00013FA552003F010FA002003F00DFA7620A7
:105AD00003F00AFA002003F007FA662003F004FA44
