:020000040800F2
:10000000005000201D100008E1020008E302000873
:10001000E5020008E7020008E9020008000000000D
:10002000000000000000000000000000EB020008DB
:10003000ED02000800000000EF020008F1020008D5
:1000400065100008651000086510000865100008BC
:1000500065100008651000086510000865100008AC
:10006000651000086510000865100008651000089C
:10007000651000086510000865100008651000088C
:10008000651000086510000865100008651000087C
:10009000651000086510000865100008651000086C
:1000A000651000086510000865100008651000085C
:1000B000F50200080103000865100008651000083B
:1000C000651000086510000865100008651000083C
:1000D000651000086510000865100008651000082C
:1000E0006510000865100008651000080000000099
:1000F0000000000000000000000000000000000000
:0C01000000000000000000005FF808F1A3
:10010C0010B5054C237833B9044B13B10448AFF345
:10011C0000800123237010BD0C00002000000000A3
:10012C00C010000808B5034B1BB103490348AFF3DB
:10013C00008008BD0000000010000020C010000866
:10014C0010222DE9F04188B00DEB0200002100F0E7
:10015C0084FF214BDFF884809A69214C42F0100215
:10016C009A619A69404602F010020192019A9A69CA
:10017C004FF4005142F020029A619A69012702F073
:10018C0020020292029A9A69002642F004029A61B5
:10019C009B69002203F004030393039B00F0C6FE4B
:1001AC0000222046602100F0C1FE02254FF40053CE
:1001BC00404604A9CDE90437CDE9066500F0E2FD1F
:1001CC006023204604A9CDE90437CDE9066500F08B
:1001DC00D9FD08B0BDE8F0810010024000100140CC
:1001EC0000080140036810B5B3F1804F044603D1F9
:1001FC002021074800F09FFE2268064B9A4205D149
:10020C00BDE810404021024800F095BE10BD00BF73
:10021C00000801400004004030B591B014220021C8
:10022C0008A800F01AFF1422002101A800F015FF05
:10023C0001244FF480330225CDE90643CDE90D535B
:10024C004FF4002306A80A940F9300F03DFB08B16D
:10025C0072B6FEE70F23CDE903000590214601A8F5
:10026C00CDE9013500F0F2FC08B172B6FEE711B031
:10027C0030BD000008B500F003FBFFF7CDFFFFF722
:10028C005FFF00F03FF800F071F8034800F0DAF877
:10029C00024800F0D7F8FEE770000020280000208C
:1002AC0072B6FEE70A4B82B09A6942F001029A617B
:1002BC009A6902F001020092009ADA6942F08052C7
:1002CC00DA61DB6903F080530193019B02B0704744
:1002DC0000100240FEE7FEE7FEE7FEE7FEE7704790
:1002EC007047704700F0DEBA014800F0D9B800BF83
:1002FC0070000020014800F0D3B800BF2800002097
:10030C00704700007FB51022002102A800F0A5FE66
:10031C0047F6FF424FF0804113480023C0E900121A
:10032C0040F22B12CDE90033C0E9032383608361D3
:10033C0000F082F908B1FFF7B3FF4FF480530A487D
:10034C0002A9029300F0AEF908B1FFF7A9FF002350
:10035C0069460548CDE9003300F03EFA08B1FFF7D5
:10036C009FFF07B05DF804FB700000207FB51022E2
:10037C00002102A800F071FE47F6FF42144815490F
:10038C000023C0E9001240F2E732CDE90033C0E9A6
:10039C0003238360836100F04FF908B1FFF780FFFE
:1003AC004FF480530A4802A9029300F07BF908B17C
:1003BC00FFF776FF002369460548CDE9003300F0CE
:1003CC000BFA08B1FFF76CFF07B05DF804FB00BF38
:1003DC002800002000040040036807B5B3F1804FEB
:1003EC0015D103F50433DA691C2042F00102DA61FD
:1003FC000022DB69114603F001030093009B00F01F
:10040C00B5FD1C2003B05DF804EB00F0DFBD0B4A1A
:10041C00934210D10A4B1D20DA6942F00202DA61D4
:10042C000022DB69114603F002030193019B00F0EB
:10043C009DFD1D20E6E703B05DF804FB00040040C1
:10044C000010024090F83D30012B20D1022380F89F
:10045C003D300368DA6842F00102DA600D4A9342DB
:10046C000AD0B3F1804F07D0A2F59432934203D057
:10047C0002F58062934204D19A6802F00702062AC0
:10048C0003D01A6842F001021A6000207047012064
:10049C00704700BF002C0140704770477047704791
:1004AC00036810B51A69044691070ED5DA689207ED
:1004BC000BD56FF002021A61012202779B699B0730
:1004CC0077D0FFF7EAFF0023237723681A695007D8
:1004DC0010D5DA6851070DD56FF004021A610222AB
:1004EC0022779B69204613F4407F68D0FFF7D5FF35
:1004FC000023237723681A6912070FD5DA681007CF
:10050C000CD56FF008021A6104222277DB692046B1
:10051C0099075AD0FFF7C1FF0023237723681A6984
:10052C00D20610D5DA68D0060DD56FF010021A611C
:10053C0008222277DB69204613F4407F4BD0FFF76B
:10054C00ACFF0023237723681A69D10708D5DA6832
:10055C00D20705D56FF0010220461A61FFF742FE63
:10056C0023681A69100608D5DA68110605D56FF0EC
:10057C00800220461A6100F05EF923681A6952065F
:10058C0008D5DA68500605D56FF0400220461A618E
:10059C00FFF785FF23681A69910622D5DA6892065F
:1005AC001FD56FF020022046BDE810401A6100F004
:1005BC0041B9FFF771FF2046FFF770FF83E7FFF7A4
:1005CC006BFF2046FFF76AFF92E7FFF765FF2046B7
:1005DC00FFF764FFA0E7FFF75FFF2046FFF75EFF22
:1005EC00AFE710BD134A036890420AD0B0F1804FB8
:1005FC0007D0A2F59432904203D002F5806290426B
:10060C0007D14A6823F070031343CA6823F440737C
:10061C0013434A6923F08003134303608B68C3625E
:10062C000B688362034B984204BF0B69036301237D
:10063C0043617047002C014010B5044630B390F86C
:10064C003D3003F0FF021BB980F83C20FFF7C4FEDD
:10065C000223206884F83D30211DFFF7C3FF0123DE
:10066C00002084F8463084F83E3084F83F3084F81B
:10067C00403084F8413084F8423084F8433084F8B8
:10068C00443084F8453084F83D3010BD0120FCE73F
:10069C0010B584680A4324F47F4442EA03222243BF
:1006AC00826010BD38B590F83C300446012B4FF0F9
:1006BC00020000F08E80012284F83D00206884F84E
:1006CC003C20836823F47F4323F0770383600B681B
:1006DC00602B4FD032D8402B64D016D8202B0DD0A5
:1006EC000AD833F0100109D0012384F83D300023DF
:1006FC0084F83C30104638BD302BF5D1826822F09E
:10070C007002134343F0070328E0502BECD14A68E6
:10071C00CD68016A036A21F00A0123F00103036228
:10072C0083690A4323F0F00343EA051383610262F1
:10073C00836823F0700343F057030FE0B3F5805F39
:10074C000DD0B3F5005F0CD0702BCDD1CB68D1E9B7
:10075C000121FFF79DFF836843F07703836000223C
:10076C00C2E7CB68D1E90121FFF792FF836843F41C
:10077C008043F3E7036A026A4D6822F01002C968ED
:10078C000262826923F0A00322F4704243EA05134B
:10079C0042EA013282610362836823F0700343F002
:1007AC006703DBE74A68CD68016A036A21F00A0136
:1007BC0023F00103036283690A4323F0F00343EA45
:1007CC00051383610262836823F0700343F04703CF
:1007DC00C4E702468EE7000030B590F83C30024684
:1007EC00012B4FF0020022D0136882F83D005C68A8
:1007FC000D6824F070042C4398685C600C4CA34288
:10080C000AD0B3F1804F07D0A4F59434A34203D09F
:10081C0004F58064A34204D1496820F080000143B0
:10082C0099600123002082F83D3082F83C0030BDF5
:10083C00002C01407047704738B50E4B05461A78AE
:10084C004FF47A73B3FBF2F30B4A1068B0FBF3F07E
:10085C0000F0CAFB044658B90F2D09D802462946A8
:10086C004FF0FF3000F082FB2046044B1D6038BD7A
:10087C000120FCE7040000200000002008000020FC
:10088C00074A08B51368032043F01003136000F007
:10089C005BFB0F20FFF7D0FFFFF704FD002008BD26
:1008AC0000200240034A044B11681B780B44136070
:1008BC00704700BFB800002004000020014B1868EE
:1008CC00704700BFB80000202DE9F341054638B34E
:1008DC000368DB0710D42B689F075ED42B681907BD
:1008EC0000F195802B685A0700F1C180EB69002B51
:1008FC0040F02C81002029E0904C636803F00C033D
:10090C00042B07D0636803F00C03082B0AD163682F
:10091C00DE0307D523689C03DDD56B68002BDAD189
:10092C00012013E06B68B3F5803F12D1236843F4C8
:10093C0080332360FFF7C2FF064623689803CAD4AE
:10094C00FFF7BCFF801B6428F7D9032002B0BDE879
:10095C00F0819BB9236823F480332360236823F44C
:10096C0080232360FFF7AAFF064623689903B2D5BC
:10097C00FFF7A4FF801B6428F7D9E6E7B3F5A02F97
:10098C00236803D143F480232360CFE723F480331F
:10099C002360236823F48023CBE7684C636813F04F
:1009AC000C0F07D0636803F00C03082B10D163689D
:1009BC00DA030DD423689B0702D52B69012BAFD129
:1009CC0023686A6923F0F80343EAC203236085E7CE
:1009DC002A695B4B6AB101221A60FFF76FFF06466A
:1009EC0023689F07ECD4FFF769FF801B0228F7D917
:1009FC00ABE71A60FFF762FF0646236898077FF59E
:100A0C006DAFFFF75BFF801B0228F6D99DE7AA6943
:100A1C004A4E4B4BE2B10122C3F88024FFF74EFF44
:100A2C000446736A9B070DD54FF4FA52454B1B686D
:100A3C00B3FBF2F3019300BF019B5A1E0192002BF2
:100A4C00F9D14FE7FFF73AFF001B0228E9D97CE701
:100A5C00C3F88024FFF732FF0446736A9F077FF5C3
:100A6C0041AFFFF72BFF001B0228F6D96DE7334C83
:100A7C00E369D80024D40127E36943F08053E36190
:100A8C00E36903F080530093009B2F4E3368D90524
:100A9C0018D5EB68012B26D1236A43F0010323629E
:100AAC00FFF70CFF41F288380646236A9B073FD5B7
:100ABC00002F3FF41BAFE36923F08053E36115E78C
:100ACC000027E2E7336843F480733360FFF7F6FEE8
:100ADC0080463368DA05DCD4FFF7F0FEA0EB0800A3
:100AEC006428F6D931E7ABB9236A41F2883823F090
:100AFC0001032362236A23F004032362FFF7DEFE63
:100B0C000646236A9807D3D5FFF7D8FE801B4045CD
:100B1C00F7D91AE7052B236A03D143F004032362A8
:100B2C00BAE723F001032362236A23F00403B6E738
:100B3C00FFF7C4FE801B4045B7D906E70010024002
:100B4C000000424200000020007000402A4C626805
:100B5C0002F00C02082A3ED00022022B274B1A6608
:100B6C002CD1FFF7ABFE06462368990120D42B6AE3
:100B7C00B3F5803F05D16268A96822F400320A43BC
:100B8C006260696A62680B4322F474121343012297
:100B9C0063601A4B1A66FFF791FE054623689A01AB
:100BAC003FF5A8AEFFF78AFE401B0228F6D9CCE62B
:100BBC00FFF784FE801B0228D6D9C6E6FFF77EFE1F
:100BCC00054623689B017FF595AEFFF777FE401B2A
:100BDC000228F6D9B9E6012B3FF4A2AE60682B6A65
:100BEC0000F480329A427FF49BAE6B6A00F4701072
:100BFC00C01A18BF0120A9E60010024000004242B2
:100C0C000D4A536803F00C01082912D10B48C3F3A9
:100C1C008341DB03405C09D55368094AC3F3404365
:100C2C005043084AD35CB0FBF3F07047064B584373
:100C3C0070470348704700BF00100240EA100008DC
:100C4C0000127A00E810000800093D002DE9F0417F
:100C5C000D46044610B90120BDE8F081444A1368E2
:100C6C0003F007038B4228D321688E0730D4CA07C0
:100C7C0043D43F4A136803F00703AB4265D822689C
:100C8C003C4D12F0040F6CD1130706D56B6822692A
:100C9C0023F4605343EAC2036B60FFF7B1FF6B6848
:100CAC00354AC3F30313D35CD840344B1860344B30
:100CBC001868FFF7C1FD0020CEE7136823F0070387
:100CCC000B431360136803F007038B42C3D1CBE7CC
:100CDC00284B11F0040F1EBF5A6842F4E0625A60B0
:100CEC00080742BF5A6842F460525A605A68A068BA
:100CFC0022F0F00202435A60B9E762681D4E012AE5
:100D0C0033681AD113F4003FA5D0736841F28838C8
:100D1C0023F0030313437360FFF7D0FD074673689A
:100D2C00626803F00C03B3EB820FA2D0FFF7C6FD91
:100D3C00C01B4045F3D903208EE7022A02D113F0E1
:100D4C00007FE1E713F0020FDEE7136823F00703DF
:100D5C002B431360136803F00703AB427FF47BAFA4
:100D6C008DE76B68E16823F4E0630B436B608BE702
:100D7C000020024000100240D810000800000020A3
:100D8C00080000202DE9F74F00244FF00F0E2646E7
:100D9C00DFF884C1614B00F104080A6832FA06F5E9
:100DAC0002D103B0BDE8F08F012505FA06F702EA7F
:100DBC00070537EA020276D14A68032A07D8013AB6
:100DCC00022A00F28380DFE802F091969C00122A3E
:100DDC0000F0948069D8112A00F08A80FF2D94BF0E
:100DEC008146C1464FEA8602D9F8007088BF203A86
:100DFC000EFA02FA27EA0A0704FA02F21743C9F8B4
:100E0C000070D1F8049019F0805F4CD0DCF81820F9
:100E1C0026F0030742F00102CCF81820DCF8182069
:100E2C0007F1804702F00102019207F5803706F0C6
:100E3C00030A019A4FEA8A0ABA680EFA0AFB22EAF6
:100E4C000B0B374A904260D002F5806290425ED024
:100E5C0002F5806290425CD002F58062904214BF31
:100E6C000422032202FA0AF242EA0B02BA609A68DE
:100E7C0019F4801F14BF2A43AA439A60DA6819F444
:100E8C00001F14BF2A43AA43DA605A6819F4003FC2
:100E9C0014BF2A43AA435A601A6819F4803F14BF3E
:100EAC002A43AA431A60013677E7DFF878904A455F
:100EBC000CD014D8A9F580194A4507D009F570292A
:100ECC004A4503D0A9F580194A4587D18A68D2B121
:100EDC00012A4FF008040CBF076147617EE7DFF879
:100EEC0048904A45F2D009F58039EDE7CC6875E7B2
:100EFC00CC68043472E7CC6808346FE7CC680C34E7
:100F0C006CE700246AE7042468E70022AAE70122C0
:100F1C00A8E70222A6E700BF00100240000401402F
:100F2C000008014000002210000031100AB10161DC
:100F3C0070470904FBE7C36801EA030221EA0301D5
:100F4C0041EA02410161704707490302CA6803F490
:100F5C00E06322F4E0621204120C134343F0BF630B
:100F6C0043F40033CB60704700ED00E0154B30B517
:100F7C00DC68C4F30224C4F10703251D042B28BF2D
:100F8C000423062D4FF0FF3594BF0024033C05FAD3
:100F9C0003F321EA0303A54022EA0502A34000283B
:100FAC0043EA0203ACBF00F16040074A4FEA031367
:100FBC00DBB2ABBF00F5614000F00F0080F80033EE
:100FCC00135430BD00ED00E014ED00E0002807DB09
:100FDC0001234109034A00F01F00834042F82130ED
:100FEC00704700BF00E100E00138B0F1807F0BD208
:100FFC004FF0E023F021054A586182F823100020BD
:10100C00072298611A6170470120704700ED00E0DB
:10101C00FFF776F90B480C490C4A002302E0D45830
:10102C00C4500433C4188C42F9D3094A094C002328
:10103C0001E013600432A242FBD300F017F8FFF773
:10104C0019F97047000000200C0000200411000862
:10105C000C000020BC000020FEE703460244934233
:10106C0000D1704703F8011BF9E7000070B50026AA
:10107C000C4D0D4C641BA410A64209D100F01AF8BB
:10108C0000260A4D0A4C641BA410A64205D170BD63
:10109C0055F8043B98470136EEE755F8043B984762
:1010AC000136F2E7FC100008FC100008FC100008E8
:1010BC0000110008F8B500BFF8BC08BC9E4670478C
:0C10CC00F8B500BFF8BC08BC9E46704799
:1010D80000000000000000000102030406070809E0
:1010E800010202030405060708090A0B0C0D0E0F7E
:0410F80010100000D4
:0410FC0031010008B6
:041100000D010008D5
:0C1104000024F4000100000010000000B6
:040000050800101DC2
:00000001FF
